:1000000019C006C332C031C030C02FC02EC02DC0B1
:100010002CC02BC02AC029C028C027C026C025C09C
:1000200024C023C022C021C020C01FC01EC01DC0CC
:100030001CC01BC011241FBECFEFD4E0DEBFCDBF5C
:1000400011E0A0E0B1E0EAEDF8E002C005900D9209
:10005000AE30B107D9F712E0AEE0B1E001C01D92B9
:10006000AF3AB107E1F7ECD036C4CACF26E331E0AE
:1000700080E090E00BC01192E217F307E1F70196E0
:100080009F012F5D3F4F8430910559F0FC0145E001
:10009000EE0FFF1F4A95E1F7E80FF91FEB5EFE4FE9
:1000A000EACF08954F925F926F927F928F929F92C4
:1000B000BF92CF92DF92EF92FF920F931F93CF9355
:1000C000DF93C82EB62E79018A01DD24D3946AE02D
:1000D000662E712C812C912C06C0CA01B901A40195
:1000E0009301C7D3D3942A30310541055105ACF7AC
:1000F0008B2D90E09C012D0D311D213231050CF02E
:100100005CC021E23C2D329FE0011124C80FD91FB1
:10011000CB5EDE4F17FF0BC010950095F094E09476
:10012000E11CF11C011D111DCC24CA9401C0CC247A
:100130004E015AE0452E512C612C712CC801B7019B
:10014000A301920196D3605DF40161934F018E2F5C
:100150008C1B79018A01121613061406150674F316
:100160007C2D7F3F49F4E82FFF27E7FDF095EC0F4A
:10017000FD1F9DE290838F5FE82FFF27E7FDF0953D
:10018000EC0FFD1F10828150582F569540E0282F0C
:1001900030E0842F90E0DE01A80FB91F6C91F901C7
:1001A000E81BF90BEC0FFD1F80818C9360834F5F80
:1001B000541778F78D2D8B0D01C081E2DF91CF911F
:1001C0001F910F91FF90EF90DF90CF90BF909F9085
:1001D0008F907F906F905F904F9008950F931F9333
:1001E000062FFA01DA010D900020E9F711971A2F76
:1001F000141B462F50E0410F511D413251050CF0A8
:1002000011E221E2829F90011124200F311D412F24
:1002100050E0C9018B5E9E4FBF0146D3812F800FF6
:100220001F910F910895FF920F931F93F82E3ADFBD
:10023000682F8F2DA801D2DF1F910F91FF90089595
:1002400080E28BB980E48AB929988CE084B983E094
:100250008093690081E08DBB80E880BF10927B00B5
:100260001EBC8DB58E7F8DBD84E58CBDE0911101E6
:10027000F0E0EE0FFF1FEA5FFE4F808191819093C7
:1002800014018093130110927E0080917C008064A1
:1002900080937C0080917A00866080937A0010922F
:1002A0007B007894E3DE1AE0212E312C412C512C76
:1002B0004D990AC0662463946092A1028091A202C3
:1002C0008B3050F05E9A08C08091A10281115E9837
:1002D0001092A1021092A20280911201823009F0C4
:1002E0004FC0109212012091110100E010E0CC24C7
:1002F000DD24822F90E0EC01B5E0CC0FDD1FBA9534
:10030000E1F7C80FD91FCB5EDE4F41E2249F5001B9
:10031000112486E391E0A80EB91E2AC0F70181914D
:100320007F018032A1F0882391F090E0A3E0880F54
:10033000991FAA95E1F78C0D9D1D80509140F1E029
:10034000883D9F0720F480509040BDD201C080E0DE
:10035000F40181934F01EA14FB0401F70894C11CD6
:10036000D11C0F5D1F4FF1E008301F0709F4A0CF2B
:100370007E01F9E98F2EF1E09F2E800E911ECECFE7
:1003800080911201813009F093CF10921201809177
:10039000A102882329F08091A2028F5F8093A2029C
:1003A0008091A302882309F068C05E9AE4EAEE2EE9
:1003B000E2E0FE2EC8EAD2E000E080917C00807F7F
:1003C00080937C0080917C00802B80937C008091C6
:1003D0007A00806A80937A0080917A0080648093AA
:1003E0007A0080917A0084FFFCCF80917A0080614E
:1003F00080937A0080917A008F7580937A00609163
:10040000780070917900F701619371937F0180E02A
:1004100090E026E331E040E050E0D6D1A201910126
:1004200006D259016A017AE0D694C794B794A7948A
:100430007A95D1F78A2D90E0982F8827990F990FF8
:10044000A0E0B0E039014A01681A790A8A0A9B0AD9
:10045000C401B30124E630E040E050E0B5D12AE029
:1004600096958795779567952A95D1F76883A982A0
:100470000F5F2296023009F0A0CF8091A3028F5F18
:100480008093A3028091A302823338F01092A302DA
:100490008091AC028F5F8093AC028091AC028C3370
:1004A00038F01092AC028091AD028F5F8093AD0264
:1004B0008091AD028C3338F01092AD028091AE0283
:1004C0008F5F8093AE028091AE02833610F010925F
:1004D000AE02CCDDFF24FF2009F094C08091AE0273
:1004E0008A3030F410E3712E7092150161E001C082
:1004F00060E02091AE0230E040E050E080E000E0BB
:1005000011E091DE682F8091AD028A3040F4E62F31
:10051000F0E0EB5EFE4FB0E38B2E80826F5F2091A8
:10052000AD0230E040E050E080E000E011E07BDE32
:10053000682F8091AC028A3040F4E62FF0E0EB5E49
:10054000FE4FA0E39A2E90826F5F2091AC0230E0C4
:1005500040E050E080E0A6DD0091A802682F6F5FC8
:100560002091A90230E040E050E080E09BDDE82FE0
:10057000F0E0EB5EFE4F2EE22083682F6F5F0A30C3
:1005800038F4E62FF0E0EB5EFE4F40E340836F5F10
:10059000202F30E040E050E080E002E011E043DE58
:1005A000E82FEF5F8091A90254E6859FC0011124D6
:1005B0002091A802820F911DF1E0863D9F07A8F4CB
:1005C00089379105A8F09C012857304074E6672EC2
:1005D000712C269DC001279D900D369D900D1124F4
:1005E0006DE571E010D19B0105C024E630E002C04A
:1005F00020E030E030E040E050E080E06E2F04E0AA
:1006000011E011DEF3942F2D243009F064CF50CE89
:100610001F920F920FB60F9211242F933F938F9337
:100620009F93AF93BF93EF93FF9388E28A95F1F77F
:100630004A99B2C080910E0190910F01009709F480
:1006400055C080911001813009F050C0A091110176
:1006500088E18A95F1F780910E0190910F01B0E049
:10066000FD0125E0EE0FFF1F2A95E1F7EA0FFB1FC2
:10067000EB5EFE4FAA0FBB1FAA5FBE4F2D913C91B0
:10068000821B930B96958795A1E28A9FD001112436
:10069000A756BE4F81E29191903221F0992311F03B
:1006A000219A01C021989D919EBD0000000000008C
:1006B000000000000000000000000000000000003A
:1006C000000000000000000000000000000000002A
:1006D000815009F700000000000000000000000049
:1006E00000000000000000001EBC219810921001C4
:1006F00080910E0190910F01019690930F018093CC
:100700000E0180910E0190910F018436910521F424
:1007100081E0809312014BC020910E0130910F01B6
:1007200080911301909114012817390780F02091CE
:100730000E0130910F0180911301909114014096A8
:100740002817390720F481E08093100130C02091F0
:100750000E0130910F018091130190911401409688
:100760002817390721F582E0809312018091110149
:1007700090E001968370907080931101E0911101D7
:10078000F0E0EE0FFF1FEA5FFE4F808191819093B2
:100790001401809313010BC080910E0190910F0101
:1007A000893C910520F010920F0110920E01FF91EB
:1007B000EF91BF91AF919F918F913F912F910F90AA
:1007C0000FBE0F901F901895629FD001739FF0018C
:1007D000829FE00DF11D649FE00DF11D929FF00DD1
:1007E000839FF00D749FF00D659FF00D9927729F08
:1007F000B00DE11DF91F639FB00DE11DF91FBD0193
:10080000CF0111240895AA1BBB1B51E107C0AA1FE9
:10081000BB1FA617B70710F0A61BB70B881F991FA1
:100820005A95A9F780959095BC01CD010895A1E254
:100830001A2EAA1BBB1BFD010DC0AA1FBB1FEE1F5A
:10084000FF1FA217B307E407F50720F0A21BB30BA5
:10085000E40BF50B661F771F881F991F1A9469F721
:1008600060957095809590959B01AC01BD01CF017D
:10087000089597FB092E05260ED057FD04D0D7DF2B
:100880000AD0001C38F450954095309521953F4F83
:100890004F4F5F4F0895F6F790958095709561954D
:1008A0007F4F8F4F9F4F0895FB01DC014150504017
:1008B00048F001900D920020C9F701C01D924150EF
:1008C0005040E0F70895F999FECF92BD81BDF89AA6
:0A08D000992780B50895F894FFCF32
:0E08DA003A005600250033004C00F0000901E2
:00000001FF
