:1000000019C09AC332C031C030C02FC02EC02DC01D
:100010002CC02BC02AC029C028C075C426C025C04A
:1000200024C023C022C021C020C01FC01EC01DC0CC
:100030001CC01BC011241FBECFEFD4E0DEBFCDBF5C
:1000400011E0A0E0B1E0E2E9FAE002C005900D9213
:10005000A632B107D9F713E0A6E2B1E001C01D92C4
:10006000AF35B107E1F7E8D012C5CACF4F925F9222
:100070006F927F928F929F92AF92BF92CF92DF92B8
:10008000EF92FF920F931F93DF93CF930F92CDB711
:10009000DEB72C01C62E79018A0117FF07C022277F
:1000A0003327A9012E193F09400B510BDD24D394AE
:1000B0009AE0892E912CA12CB12C06C0CA01B9015D
:1000C000A5019401AAD4D3942A30310541055105E4
:1000D000ACF717FDD3948C2D90E09C012D0D311DB4
:1000E000213231050CF055C0480E591E17FF0BC0C8
:1000F00010950095F094E094E11CF11C011D111D78
:100100006FEF698301C0198252018AE0682E712C59
:10011000812C912CC801B701A40193017ED4605DAC
:10012000F50161935F018E2F841979018A011216FE
:1001300013061406150674F3F981FF3F49F4E82FFE
:10014000FF27E7FDF095E40DF51D9DE290838F5F9D
:10015000E82FFF27E7FDF095E40DF51D1082815093
:10016000582F569540E0282F30E0842F90E0D201A0
:10017000A80FB91F6C91F901E81BF90BE40DF51DEF
:1001800080818C9360834F5F541778F78D2D8C0D91
:1001900001C081E20F90CF91DF911F910F91FF90ED
:1001A000EF90DF90CF90BF90AF909F908F907F9017
:1001B0006F905F904F9008950F931F939C01062FAF
:1001C000FA01DA010D900020E9F711971A2F141B9C
:1001D000862F90E0810F911D813291050CF011E284
:1001E000412F50E0C901800F911DBF0131D4812FF3
:1001F000800F1F910F9108950F931F93CF93DF935B
:10020000EC0134DF682FCE01A801D6DFDF91CF915A
:100210001F910F9108951092580310925703109256
:100220005A031092590310925C0310925B031092D0
:100230005E0310925D030895DF93CF9300D000D04A
:1002400000D0CDB7DEB780E28BB980E48AB92998B7
:100250008CE084B980916F00816080936F00809101
:10026000810082608093810083E08093690081E057
:100270008DBB80E880BF10927B001EBC8DB58E7F49
:100280008DBD84E58CBDE0912A01F0E0EE0FFF1FEB
:10029000E15FFE4F8081918190932D0180932C012D
:1002A00010927E0080917C00806480937C0080911D
:1002B0007A00866080937A0010927B00789450E3F5
:1002C000C52E4D9909C081E08093FD028091FE0208
:1002D000833350F05E9A08C08091FD0281115E98D0
:1002E0001092FD021092FE0280912B01823009F0E3
:1002F0007AC010922B0180912A0190E0FC0145E028
:10030000EE0FFF1F4A95E1F7E80FF91FE15DFE4F81
:100310003FEFE32E32E0F32ED70180E090E0219111
:100320002032E1F02223D1F02B3550F4822F90E0DF
:1003300023E0880F991F2A95E1F78852914010C059
:10034000322F3556393060F4822F90E003E0880F69
:10035000991F0A95E1F78057914002C08FEF9FEFF8
:100360008D939D9303E0A134B007C9F680E090E03F
:1003700018E0D12EAA24AA944C01D7010D911D9109
:100380007D0180912101992787FD90958017910724
:1003900061F0BFEF0F3F1B0771F081E493E0B801FC
:1003A00048E050E064D300932101A1E4B3E0F401FC
:1003B000EB50FE4F09C0E1E4F3E00D2D11920A95D8
:1003C000E9F7A0922101F1CF8D918083B19613E0DE
:1003D000A934B107C9F70894811C911C21E2821647
:1003E000910459F66ECF80912B01813009F069CFCD
:1003F00010922B018091FD02882329F08091FE024A
:100400008F5F8093FE0280914903882309F0D3C057
:100410005E9ABAE4AB2EB3E0BB2EA2E28A2EA1E034
:100420009A2EF4E26F2EF1E07F2E8EE493E0DD242D
:10043000EAE02E2E312C412C512C9E838D8380910D
:100440007C00807F80937C0080917C008D2980934C
:100450007C0080917A00806A80937A0080917A0093
:10046000806480937A002D813E8180917A0084FFA0
:10047000FCCF3E832D8380917A00806180937A0047
:1004800080917A008F7580937A00609178007091E6
:100490007900D5016D937D935D0180E090E026E3C6
:1004A00031E040E050E051D2A201910194D27901B3
:1004B0008A01F40121914F0130E040E050E0C80191
:1004C000B70143D2D3012D913D0130E040E050E02F
:1004D00082D279018A017AE016950795F794E7941C
:1004E0007A95D1F7E982FA820B831C838E2D90E0F6
:1004F000982F8827990F990FA0E0B0E079018A0121
:10050000E81AF90A0A0B1B0BC801B70124E630E010
:1005100040E050E01AD24AE0969587957795679526
:100520004A95D1F7AD81BE816C93E9811196EC9328
:100530001197D3941296BE83AD83FD2DF23009F04E
:100540007ECF90914F0384E6989FC00111242091A3
:100550004E03820F911D01E0853F900798F4893783
:10056000910598F0AC014857504024E630E0429F96
:10057000C001439F900D529F900D11246CE771E0D4
:1005800003D205C064E670E002C060E070E06093F2
:1005900052039091510384E6989FC0011124209149
:1005A0005003820F911D21E011E0843F910708F074
:1005B00020E020935303809149038F5F8093490388
:1005C00080914903823378F010924903809154035B
:1005D0008F5F809354038091560390E00196817061
:1005E000907080935603809154038C3338F01092AE
:1005F0005403809155038F5F809355038091550379
:100600008C3310F01092550330E5E32E31E0F32ED9
:1006100080E090E05C0185C01192EE15FF05E1F7E6
:100620008A2DAA2099F58FE291E060E040E051E048
:10063000C3DD8FE291E067E043E051E0BDDD8091F2
:1006400055038A3020F4C0924A016CE101C06BE18D
:100650002091550330E040E050E08FE291E005E06A
:1006600011E0CADD682F809154038A3030F4E62F00
:10067000F0E0E15DFE4FC0826F5F2091540330E0F7
:1006800040E050E08FE291E0F1DC3FC08130E9F5DD
:1006900080E591E060E247E051E08EDD8091530318
:1006A000882321F080915603882321F10091500383
:1006B0002091510330E040E050E080E591E060E0BF
:1006C000D5DCE82FF0E0E05BFE4F2EE22083682FC0
:1006D0006F5F0A3030F4E62FF0E0E05BFE4FC0823F
:1006E0006F5F202F30E040E050E080E591E008E0CF
:1006F00011E082DD2091520330E040E050E080E5DF
:1007000091E067E00AE011E077DD0894A11CB11CDC
:1007100081E290E0E80EF91E96E0A916B10409F412
:10072000D0CDF50125E0EE0FFF1F2A95E1F7EA0D88
:10073000FB1DE15DFE4F70CF1F920F920FB60F921F
:1007400011242F933F934F935F936F937F938F93D6
:100750009F93AF93BF93EF93FF9388E28A95F1F74E
:1007600080912601909127014A99B5C0009709F41C
:100770004EC080912901813009F049C090912A0131
:10078000E8E1EA95F1F7292F30E0F901B5E0EE0F45
:10079000FF1FBA95E1F7E20FF31FE15DFE4FA09155
:1007A0002E0181E2A89FD0011124AB50BE4F989F2B
:1007B000C0011124805B9E4F2191203221F0222321
:1007C00011F0219A02C0219800002D912EBD000049
:1007D0000000000000000000000000000000000019
:1007E0000000000000000000000000000000000009
:1007F000E817F90709F700000000000000000000FA
:10080000000000000000000000001EBC21981092B3
:10081000290180912601909127010196909327014B
:10082000809326018E36910511F421E004C08F36A5
:10083000910519F422E020932B0120912C01309195
:100840002D018217930798F040910C0150910D01F2
:100850008417950760F441E040932901821B80933F
:100860002E0190910E019230E9F5869531C02091CC
:100870000C0130910D0182179307A1F582E080935E
:100880002B0180912A0190E0019666E070E090D003
:1008900080932A01FC01EE0FFF1FE15FFE4F2081D4
:1008A000318130932D0120932C01855E9E4FFC01F8
:1008B000808180930E0190E073E0880F991F7A95F4
:1008C000E1F7820F931F90930D0180930C0181E05B
:1008D00080932E0107C0893C910520F010922701DA
:1008E00010922601FF91EF91BF91AF919F918F914F
:1008F0007F916F915F914F913F912F910F900FBE1C
:100900000F901F9018951F920F920FB60F921124FF
:100910002F933F938F939F9380912601909127016E
:100920002091280130E02817390721F42BB130E459
:1009300023272BB9809328019F918F913F912F916D
:100940000F900FBE0F901F901895629FD001739F5C
:10095000F001829FE00DF11D649FE00DF11D929F5B
:10096000F00D839FF00D749FF00D659FF00D99279A
:10097000729FB00DE11DF91F639FB00DE11DF91FBE
:10098000BD01CF0111240895AA1BBB1B51E107C073
:10099000AA1FBB1FA617B70710F0A61BB70B881F0F
:1009A000991F5A95A9F780959095BC01CD0108959E
:1009B00097FB092E07260AD077FD04D0E5DF06D085
:1009C00000201AF4709561957F4F0895F6F7909581
:1009D00081959F4F0895A1E21A2EAA1BBB1BFD0112
:1009E0000DC0AA1FBB1FEE1FFF1FA217B307E4070E
:1009F000F50720F0A21BB30BE40BF50B661F771F66
:100A0000881F991F1A9469F7609570958095909545
:100A10009B01AC01BD01CF01089597FB092E05266E
:100A20000ED057FD04D0D7DF0AD0001C38F4509503
:100A30004095309521953F4F4F4F5F4F0895F6F702
:100A400090958095709561957F4F8F4F9F4F08953A
:100A5000FB01DC014150504048F001900D92002014
:100A6000C9F701C01D9241505040E0F70895DC01E4
:100A7000CB01FC01F999FECF06C0F2BDE1BDF89AA9
:100A8000319600B40D9241505040B8F70895F89453
:020A9000FFCF96
:100A92006A310069003A0000560025000200023265
:100AA200004200AA00CD00FF00180101020101026C
:060AB20001FF010101013A
:00000001FF
