:1000000019C07DC332C031C030C02FC02EC02DC03A
:100010002CC02BC02AC029C028C058C426C025C067
:1000200024C023C022C021C020C01FC01EC01DC0CC
:100030001CC01BC011241FBECFEFD4E0DEBFCDBF5C
:1000400011E0A0E0B1E0E8E4FAE002C005900D9212
:10005000A632B107D9F713E0A6E2B1E001C01D92C4
:10006000A431B107E1F7E8D0EDC4CACF4F925F9257
:100070006F927F928F929F92AF92BF92CF92DF92B8
:10008000EF92FF920F931F93DF93CF930F92CDB711
:10009000DEB72C01C62E79018A0117FF07C022277F
:1000A0003327A9012E193F09400B510BDD24D394AE
:1000B0009AE0892E912CA12CB12C06C0CA01B9015D
:1000C000A50194018DD4D3942A3031054105510501
:1000D000ACF717FDD3948C2D90E09C012D0D311DB4
:1000E000213231050CF055C0480E591E17FF0BC0C8
:1000F00010950095F094E094E11CF11C011D111D78
:100100006FEF698301C0198252018AE0682E712C59
:10011000812C912CC801B701A401930161D4605DC9
:10012000F50161935F018E2F841979018A011216FE
:1001300013061406150674F3F981FF3F49F4E82FFE
:10014000FF27E7FDF095E40DF51D9DE290838F5F9D
:10015000E82FFF27E7FDF095E40DF51D1082815093
:10016000582F569540E0282F30E0842F90E0D201A0
:10017000A80FB91F6C91F901E81BF90BE40DF51DEF
:1001800080818C9360834F5F541778F78D2D8C0D91
:1001900001C081E20F90CF91DF911F910F91FF90ED
:1001A000EF90DF90CF90BF90AF909F908F907F9017
:1001B0006F905F904F9008950F931F939C01062FAF
:1001C000FA01DA010D900020E9F711971A2F141B9C
:1001D000862F90E0810F911D813291050CF011E284
:1001E000412F50E0C901800F911DBF0114D4812F10
:1001F000800F1F910F9108950F931F93CF93DF935B
:10020000EC0134DF682FCE01A801D6DFDF91CF915A
:100210001F910F91089510920D0310920C031092EC
:100220000F0310920E0310921103109210031092FC
:100230001303109212030895DF93CF9300D000D0E0
:1002400000D0CDB7DEB780E28BB980E48AB92998B7
:100250008CE084B980916F00816080936F00809101
:10026000810082608093810083E08093690081E057
:100270008DBB80E880BF10927B001EBC8DB58E7F49
:100280008DBD84E58CBDE0912A01F0E0EE0FFF1FEB
:10029000E15FFE4F8081918190932D0180932C012D
:1002A00010927E0080917C00806480937C0080911D
:1002B0007A00866080937A0010927B007894E4E65E
:1002C0002E2E312C7EE2472E60E3562E4D9909C02A
:1002D00081E08093FD028091FE02833350F05E9AAC
:1002E00008C08091FD0281115E981092FD0210926B
:1002F000FE0280912B01823009F060C010922B0128
:1003000080912A0120E030E0EE24FF2490E08C016F
:1003100055E0000F111F5A95E1F7080F191F015DF5
:100320001E4F3901580145EFC42E41E0D42EC60CB2
:10033000D71C36E1832E32E0932E860C971CD50114
:100340002D915D01203229F1222319F1822F90E0B5
:10035000243678F08456904023E0880F991F2A9520
:10036000E1F78E0D9F1D8035910598F480509040E7
:100370000EC08597B3E0880F991FBA95E1F78E0DEF
:100380009F1DB1E0803B9B0720F4805B9F4F52D3C1
:1003900001C080E0F60181936F01E815F90579F657
:1003A0000894E11CF11C21E230E0620E731E38E07B
:1003B000631631E0730609F0B5CF88CF80912B0129
:1003C000813009F083CF10922B018091FD028823A8
:1003D00029F08091FE028F5F8093FE028091FF02E0
:1003E000882309F0A8C05E9AA0E0AA2EA3E0BA2E46
:1003F000F1E28F2EF1E09F2EE3E26E2EE1E07E2E01
:1004000084E093E0CC249E838D8380917C00807F68
:1004100080937C0080917C008C2980937C0080916B
:100420007A00806A80937A0080917A008064809359
:100430007A002D813E8180917A0084FFFCCF3E833B
:100440002D8380917A00806180937A0080917A0078
:100450008F7580937A006091780070917900D50152
:100460006D937D935D0180E090E026E331E040E014
:1004700050E04ED22AE030E040E050E08FD27901E7
:100480008A01F40121914F0130E040E050E0C801C1
:10049000B7013ED2D3012D913D0130E040E050E064
:1004A0007DD279018A017AE016950795F794E79451
:1004B0007A95D1F7E982FA820B831C838E2D90E026
:1004C000982F8827990F990FA0E0B0E079018A0151
:1004D000E81AF90A0A0B1B0BC801B70124E630E041
:1004E00040E050E015D24AE096958795779567955C
:1004F0004A95D1F7AD81BE816C93E9811196EC9359
:100500001197C3941296BE83AD83FC2DF23009F08F
:100510007CCF8091070304E6809FC00111242091C5
:100520000603820F911D21E011E0843F910708F03E
:1005300020E0209308038091FF028F5F8093FF02E9
:100540008091FF02823378F01092FF0280910903BC
:100550008F5F8093090380910B0390E00196817077
:10056000907080930B03809109038C3338F01092C4
:10057000090380910A038F5F80930A0380910A0325
:100580008C3310F010920A0330E5E32E31E0F32EA5
:1005900080E090E06C01A8C01192EE15FF05E1F734
:1005A0008C2DCC2099F58FE291E060E040E051E0A5
:1005B00003DE8FE291E067E043E051E0FDDD8091F2
:1005C0000A038A3020F450924A016CE101C06BE1C9
:1005D00020910A0330E040E050E08FE291E005E036
:1005E00011E00ADE682F809109038A3030F4E62F8B
:1005F000F0E0E15DFE4F50826F5F2091090330E033
:1006000040E050E08FE291E031DD62C0813009F0DE
:100610005FC080E591E060E247E051E0CDDD809190
:100620000803882321F080910B03882319F100919E
:1006300006032091070330E040E050E080E591E0C0
:1006400060E014DDE82FF0E0E05BFE4F4082682FB1
:100650006F5F0A3030F4E62FF0E0E05BFE4F50822F
:100660006F5F202F30E040E050E080E591E008E04F
:1006700011E0C2DD8091050324E6829FC0011124B0
:1006800020910403820F911D31E0853F930788F488
:100690008937910588F09C0128573040229DC00180
:1006A000239D900D329D900D11246CE771E04FD188
:1006B00005C064E670E002C060E070E0262F30E024
:1006C00040E050E080E591E067E00AE011E094DD71
:1006D0000894C11CD11C81E290E0E80EF91E96E05E
:1006E000C916D10409F4F2CDF60125E0EE0FFF1F83
:1006F0002A95E1F7EC0DFD1DE15DFE4F4DCF1F92F8
:100700000F920FB60F9211242F933F934F935F9345
:100710006F937F938F939F93AF93BF93EF93FF93C9
:1007200088E28A95F1F780912601909127014A99F4
:10073000B5C0009709F44EC080912901813009F0BD
:1007400049C090912A01E8E1EA95F1F7292F30E0BC
:10075000F90145E0EE0FFF1F4A95E1F7E20FF31FA5
:10076000E15DFE4FA0912E0181E2A89FD0011124EE
:10077000AB50BE4F989FC0011124805B9E4F2191CA
:10078000203221F0222311F0219A02C0219800008A
:100790002D912EBD000000000000000000000000B0
:1007A0000000000000000000000000000000000049
:1007B000000000000000E817F90709F7000000003A
:1007C0000000000000000000000000000000000029
:1007D0001EBC219810922901809126019091270139
:1007E000019690932701809326018E36910511F48E
:1007F00021E004C08F36910519F422E020932B01EB
:1008000020912C0130912D018217930798F040918F
:100810000C0150910D018417950760F441E040935D
:100820002901821B80932E0190910E019230E9F5EF
:10083000869531C020910C0130910D0182179307EC
:10084000A1F582E080932B0180912A0190E001962E
:1008500066E070E090D080932A01FC01EE0FFF1F4C
:10086000E15FFE4F2081318130932D0120932C01D7
:10087000855E9E4FFC01808180930E0190E0B3E085
:10088000880F991FBA95E1F7820F931F90930D017E
:1008900080930C0181E080932E0107C0893C910573
:1008A00020F01092270110922601FF91EF91BF9145
:1008B000AF919F918F917F916F915F914F913F91F8
:1008C0002F910F900FBE0F901F9018951F920F92AF
:1008D0000FB60F9211242F933F938F939F93809184
:1008E0002601909127012091280130E0281739072F
:1008F00021F42BB130E423272BB9809328019F9159
:100900008F913F912F910F900FBE0F901F901895D0
:10091000629FD001739FF001829FE00DF11D649FE3
:10092000E00DF11D929FF00D839FF00D749FF00D6F
:10093000659FF00D9927729FB00DE11DF91F639F10
:10094000B00DE11DF91FBD01CF0111240895AA1BAF
:10095000BB1B51E107C0AA1FBB1FA617B70710F0AA
:10096000A61BB70B881F991F5A95A9F780959095DC
:10097000BC01CD01089597FB092E07260AD077FD0B
:1009800004D0E5DF06D000201AF4709561957F4F02
:100990000895F6F7909581959F4F0895A1E21A2E3C
:1009A000AA1BBB1BFD010DC0AA1FBB1FEE1FFF1F13
:1009B000A217B307E407F50720F0A21BB30BE40B63
:1009C000F50B661F771F881F991F1A9469F76095AA
:1009D0007095809590959B01AC01BD01CF01089564
:1009E00097FB092E05260ED057FD04D0D7DF0AD07D
:1009F000001C38F450954095309521953F4F4F4F4E
:100A00005F4F0895F6F790958095709561957F4FAB
:100A10008F4F9F4F0895FB01DC014150504048F03B
:100A200001900D920020C9F701C01D924150504025
:100A3000E0F70895F999FECF92BD81BDF89A992704
:080A400080B50895F894FFCF82
:100A48006A310069003A00005600250002000232AF
:100A5800004200AA00C800FF0018010102010102BB
:060A680001010101010083
:00000001FF
