:1000000047C0DCCC60C05FC05EC05DC05CC05BC090
:100010005AC059C058C057C056C0F4CD54C053C080
:1000200052C051C050C04FC04EC04DC04CC04BC05C
:100030004AC049C00002030507090A0C0E1011133B
:100040001516181A1C1D1F2122242527292A2C2D9C
:100050002F303234353638393B3C3E3F4042434402
:10006000454748494A4B4D4E4F50515253545556AF
:10007000575758595A5B5B5C5D5D5E5F5F606061BE
:1000800061616262626363636364646464646400A4
:1000900011241FBECFEFD4E0DEBFCDBF11E0A0E042
:1000A000B1E0EEECFDE102C005900D92AC37B10776
:1000B000D9F714E0ACE7B1E001C01D92AC30B10754
:1000C000E1F7E6D682CE9CCF68E671E0E9DD843BBD
:1000D000910520F0845B90404FEF01C041E08A35EC
:1000E000910530F024EB30E0B901681B790BCB01AE
:1000F000FC01EC5CFF4F8491849F802D11240895B6
:100100002F923F924F925F926F927F928F929F9227
:10011000AF92BF92CF92DF92EF92FF920F931F9315
:10012000DF93CF9300D000D00F92CDB7DEB77B0125
:100130008C0197FF0BC010950095F094E094E11CA2
:10014000F11C011D111D8FEF898302C0E1E0E983DD
:10015000C801B70120E432E44FE050E0EADDA22E0E
:10016000BB24CC24DD2480E1682E87E2782E812C0C
:10017000912CC801B701A4019301DBDD6A837B8365
:100180008C839D83C601B5012CE330E040E050E054
:100190005BDD1B012C01C601B50120EC3DEB40EFFE
:1001A0005FEF52DD6E0D7F1D801F911FA401930133
:1001B000C0DD220E311C411C511C6A817B818C8167
:1001C0009D812CE330E040E050E03EDD5B016C01BE
:1001D000C201B10120E737E140E050E035DD7B01AD
:1001E0008C01C601B50124E630E040E050E07FDD3F
:1001F000E20EF31E041F151FF981FF3F41F4109515
:100200000095F094E094E11CF11C011D111DC80142
:10021000B7010F900F900F900F900F90CF91DF913B
:100220001F910F91FF90EF90DF90CF90BF90AF9014
:100230009F908F907F906F905F904F903F902F9006
:1002400008952F923F924F925F926F927F928F927A
:100250009F92AF92BF92CF92DF92EF92FF920F9355
:100260001F93DF93CF93CDB7DEB768970FB6F8949F
:10027000DEBF0FBECDBF1B012C0129833A834B8308
:100280005C83AD82BE82CF82D886988A8F866E15B7
:100290007F058007910781F42A153B054C055D0514
:1002A00059F4D4011D921D921D921C921397EDA535
:1002B000FEA511821082A3C1C801B701620D731D92
:1002C000841D951D97FF07C0909580957095619549
:1002D0007F4F8F4F9F4F20E834E84EE150E007DD1D
:1002E000C901865A9F4FF0DE8987C201B10108DF3C
:1002F0005B016C01C801B70103DF3B014C0169815F
:100300007A818B819C81FCDE7B018C016D817E81F9
:100310008F819885F5DE9B01AC012E193F09400BBA
:10032000510B6A187B088C089D08F9856F2F772779
:1003300067FD7095872F972F87DC24E630E040E03B
:1003400050E0F7DC19012A01A2E0EA2EF12C012D80
:10035000112DAA24A3940FC0C201B101A8019701D5
:10036000E8DC19012A01C401B301A8019701E1DC0D
:1003700039014A01AA0CA201910157FE07C02227A8
:100380003327A90122193309440955092F3F6FEF7B
:10039000360760E0460760E05607F0F6D401C30177
:1003A00097FE07C088279927DC0186199709A809B5
:1003B000B9098F3FEFEF9E07E0E0AE07E0E0BE0730
:1003C00058F6A982298B3A8B4B8B5C8B8D8B9E8B3D
:1003D000AF8BB88FC201B101A201910135DC5B0185
:1003E0006C01C401B301A40193012EDCE1E00FC054
:1003F000F2E0D694C794B794A794FA95D1F752E057
:1004000096958795779567955A95D1F7EE0FE92ED2
:10041000FF24002711272D2D332744275527E20ECF
:10042000F31E041F151F2FEFE216F104010511053D
:1004300009F0F0F6ED839B01AC012A0D3B1D4C1D2C
:100440005D1D29873A874B875C8759016A01D694DD
:10045000C794B794A794A114B104C104D10451F175
:100460001E861D8602C05701680169857A858B85C5
:100470009C85A60195013BDC79018A01EA0CFB1CF5
:100480000C1D1D1D16950795F794E794AE18BF082F
:10049000C00AD10A32E0A316B104C104D10470F03D
:1004A0004D855E854F5F5F4F5E874D874A315105B1
:1004B000D1F604C0E984FA840B851C856D81262F52
:1004C00030E040E050E0C801B701BEDB5B016C01E9
:1004D0008DA59EA5009709F476C0A114B104C104AE
:1004E000D10409F467C029893A894B895C898D89CF
:1004F0009E89AF89B88D281739074A075B07C0F076
:10050000BC01CD0124E630E040E050E09DDBA601D7
:100510009501EDDBE22E00E010E002C00F5F1F4FFF
:10052000C801D2DDE8161CF10A351105B9F71FC064
:1005300069897A898B899C8924E630E040E050E023
:1005400083DBA6019501D3DB022FEE24FF2403C039
:100550000894E11CF11CC701B7DD081724F09AE5E7
:10056000E916F104A9F70AE510E00E191F09611454
:1005700071048104910429F457FC1FC08AE590E0BE
:100580001EC016141704180419044CF457FC03C0B9
:100590008AE590E00CC0C801825F9E4F10C057FCF6
:1005A00004C0C801865A9F4F0AC08EE091E0801BAC
:1005B000910B05C080E090E002C08EE091E0ADA517
:1005C000BEA58D939C93C601B50125E331E040E0C3
:1005D00050E03ADB28EE33E040E050E088DB790180
:1005E0008A01B9812B2F30E040E050E0C801B7010B
:1005F0002BDBEF85F8896083718382839383689610
:100600000FB6F894DEBF0FBECDBFCF91DF911F9123
:100610000F91FF90EF90DF90CF90BF90AF909F90A1
:100620008F907F906F905F904F903F902F900895A4
:10063000E9EBF3E0119283E0E43CF807D9F7089581
:100640004F925F926F927F928F929F92AF92BF92E2
:10065000CF92DF92EF92FF920F931F93DF93CF938E
:100660000F92CDB7DEB72C01C62E79018A0117FF94
:1006700007C022273327A9012E193F09400B510B30
:10068000DD24D3948AE0882E912CA12CB12C06C0B5
:10069000CA01B901A50194014CDBD3942A3031057C
:1006A00041055105ACF717FDD3948C2D90E09C01CA
:1006B0002D0D311D213231050CF055C0480E591E4B
:1006C00017FF0BC010950095F094E094E11CF11C0D
:1006D000011D111D6FEF698301C019825201BAE03B
:1006E0006B2E712C812C912CC801B701A4019301B0
:1006F00020DB605DF50161935F018E2F8419790124
:100700008A01121613061406150674F3F981FF3FC9
:1007100049F4E82FFF27E7FDF095E40DF51D9DE274
:1007200090838F5FE82FFF27E7FDF095E40DF51D1F
:1007300010828150582F569540E0282F30E0842FAA
:1007400090E0D201A80FB91F6C91F901E81BF90BD9
:10075000E40DF51D80818C9360834F5F541778F70B
:100760008D2D8C0D01C081E20F90CF91DF911F91F3
:100770000F91FF90EF90DF90CF90BF90AF909F9040
:100780008F907F906F905F904F9008950F931F937D
:100790009C01062FFA01DA010D900020E9F711976C
:1007A0001A2F141B862F90E0810F911D8132910525
:1007B0000CF011E2412F50E0C901800F911DBF01E3
:1007C000EDDA812F800F1F910F9108950F931F93E2
:1007D000CF93DF93EC0134DF682FCE01A801D6DF81
:1007E000DF91CF911F910F9108953F924F925F92A9
:1007F0006F927F928F929F92AF92BF92CF92DF9231
:10080000EF92FF920F931F93CF93DF93EC01162F7C
:1008100069017A01211531054105510521F448E0AE
:1008200051E0B4DF55C0CA01B90120E432E44FE021
:1008300050E07FDA422E552466247724C301B201AA
:1008400020EC3DEB40EF5FEFFFD96C0D7D1D8E1D61
:100850009F1D20E1822E27E2922EA12CB12CA50112
:10086000940167DA322EC701B601A501940161DA5D
:100870004B015C01002359F01C141D041E041F04CD
:100880001CF480E091E00DC082E091E00AC01C14ED
:100890001D041E041F041CF484E091E002C086E0E5
:1008A00091E06C01CE01612FA301920104E111E0FE
:1008B0008DDF682F232D30E040E050E0CE0106E1CF
:1008C00011E084DF682FCE01A501940186017EDF4F
:1008D000DF91CF911F910F91FF90EF90DF90CF901C
:1008E000BF90AF909F908F907F906F905F904F9050
:1008F0003F900895FF920F931F9301E08091B903F9
:100900008D3209F000E0102F20E030E0A901E12F46
:10091000F0E0E754FC4FF0808F2D80538A3028F5AB
:10092000CA01B9012AE030E040E050E08DD92F2D16
:1009300030E020533040442737FD4095542F260F98
:10094000371F481F591F1F5F1B3008F3002321F07A
:100950006FEF7FEFCB0104C061E070E080E090E0DA
:1009600073D91F910F91FF9008958F2D8E3259F3F7
:10097000EDCFFF920F931F9301E08091B9038D3269
:1009800009F000E0102F20E030E0A90114C0CA01F6
:10099000B9012AE030E040E050E056D92F2D30E098
:1009A00020533040442737FD4095542F260F371FE2
:1009B000481F591F1F5FE12FF0E0E754FC4FF08004
:1009C0008F2D80538A3010F41B3008F3002321F060
:1009D0006FEF7FEFCB0104C061E070E080E090E05A
:1009E00033D91F910F91FF9008958091B703882309
:1009F00001F589EB93E068E171E045E050E0C0D992
:100A0000009731F481E08093B70310927601089546
:100A100089EB93E06EE171E045E050E0B1D90097D9
:100A200009F00AC182E08093B70384E680937601DF
:100A300008958091B603882309F4FEC08091760161
:100A40008536E9F18636D8F4843009F469C08530FA
:100A500048F48230F1F1833008F045C0813009F06C
:100A6000EBC02DC0863009F482C0863008F462C025
:100A7000873009F480C0893009F0DEC080C08A3632
:100A800009F458C08B3648F4883669F1893608F085
:100A900047C0873609F0D0C01CC08C3609F488C026
:100AA0008C3608F472C08D3609F488C0883C09F091
:100AB000C3C0E9EBF3E080E090E0DC01AFC059DFB8
:100AC0006093A7037093A8038093A9039093AA034C
:100AD000089510DF60939D0370939E0380939F039E
:100AE0009093A00308958091B903833509F0A4C0C1
:100AF00080919D0390919E03A0919F03B091A003CC
:100B0000B095A095909581959F4FAF4FBF4F809323
:100B10009D0390939E03A0939F03B093A003089519
:100B2000E9DE6093A1037093A2038093A3039093E3
:100B3000A40308958091B903873509F07DC08091A1
:100B4000A1039091A203A091A303B091A403B09537
:100B5000A095909581959F4FAF4FBF4F8093A10374
:100B60009093A203A093A303B093A403089501DF7D
:100B70006093AB030895FDDE6093AC030895F9DE46
:100B80007093A6036093A5030895F3DE4FEC51E044
:100B9000649F9001659F300D749F300D1124C90131
:100BA0006AEF70E07DD87093AE036093AD03089553
:100BB000E0DE7093B0036093AF030895DADE6093D4
:100BC000B1037093B2038093B3039093B403089579
:100BD00034E0880F991FAA1FBB1F3A95D1F7322F17
:100BE0003154363020F430E0275330400FC0322FDC
:100BF0003156363020F430E02755304007C0322FD0
:100C000030533A3058F430E020533040442737FD19
:100C10004095542F820F931FA41FB51F21912223AB
:100C200021F033E0E53CF30799F621E03091B80379
:100C3000381320E02093B5030895883108F5683112
:100C4000F8F4482F46954695469550E08095877074
:100C500021E030E002C0220F331F8A95E2F7FA014B
:100C6000EE0FFF1FE40FF51F43E0EE0FFF1F4A9545
:100C7000E1F7E60FF11DED5AFC4F8081822B808356
:100C80000895FF920F931F93DF93CF9300D000D06E
:100C90000F92CDB7DEB7182F81E0982F911B998363
:100CA0008A83812F8195880F8B831C821D83EBE0C3
:100CB000FE2EF10E8BE06F2DC0DF0BE0011B8BE0F1
:100CC000602FBBDF8F2D6BE0B8DF802F6BE0B5DFCF
:100CD0001BE04BC0898187FD0AC08D8181508D83C7
:100CE0008B818E5F8B8399818B81890F89838C8126
:100CF0008F5F8C838A818E5F8A8399818A81890F35
:100D000089838C816D81655F855F97DF8C816D81C3
:100D1000655F912F981B892F90DF8C819D81612FBA
:100D2000691B855F8ADF8C819D81612F691B912FF3
:100D3000981B892F82DF8D816C81655F855F7DDFE8
:100D40008D816C81655F912F981B892F76DF8D8156
:100D50009C81612F691B855F70DF8D819C81612F74
:100D6000691B912F981B892F68DF9C818D819817B3
:100D70000CF4B0CF0F900F900F900F900F90CF9179
:100D8000DF911F910F91FF900895AF92BF92CF9284
:100D9000DF92EF92FF920F931F93382F562F142F4D
:100DA000A22FB0E0A61BB109B7FF03C0B095A19573
:100DB000BF4FE12FF0E0E31BF109F7FF03C0F0950F
:100DC000E195FF4F01E0EA17FB0714F000E006C0D1
:100DD000812F122F282F832F352F582F131730F4E0
:100DE000852F522F282F832F312F182FF12EF31AF2
:100DF000E22FF0E0E51BF109F7FF03C0F095E19564
:100E0000FF4FEE2E8F2D62E03ED7D82EB52E521713
:100E100018F4AA24A39402C0AA24AA94C32E0EC034
:100E2000002319F08B2D6C2D02C08C2D6B2D05DF4E
:100E3000DE18D7FE02C0BA0CDF0CC3941C1580F775
:100E40001F910F91FF90EF90DF90CF90BF90AF90E8
:100E500008951092F2031092F1031092E40310929D
:100E6000E3031092F0031092EF031092FB03109231
:100E7000FA030895EEDFA5EEB3E0E4ECF3E08AE0D8
:100E800001900D928150E1F781E08093E203089593
:100E9000DF93CF93CDB7DEB728970FB6F894DEBFB8
:100EA0000FBECDBF80E28BB980E48AB929988CE06F
:100EB00084B980916F00816080936F008091810080
:100EC00082608093810083E08093690021E02DBBE4
:100ED00080E880BF10927B001EBC8DB58E7F8DBDDB
:100EE00084E58CBDE0918001F0E0EE0FFF1FEC592E
:100EF000FE4F8081918190938301809382011092B3
:100F00007E0080917C00806480937C0080917A00D8
:100F1000866080937A0010927B0080E18093C1000C
:100F20008091C10084608093C1002093C50087E355
:100F30008093C400789435E8232E31E0332E8091DD
:100F4000C00087FFE6C00091C600909176019F3FE8
:100F500021F4043209F0DDC010C0043271F0053212
:100F600030F40A3049F10D3009F0C0C025C00A3212
:100F700099F00C3209F0BAC00AC01092B603109270
:100F8000B7031092B8031092760152DBC2C0809171
:100F9000B80380278093B80328DD4ADB1092B6039C
:100FA000809176018F5F809376010A3209F0B1C09B
:100FB00088EC80937601ADC018DD8FEF80937601C9
:100FC0008091B503882309F4A4C06091C403709193
:100FD000C5038091C6039091C7032091C803309147
:100FE000C9034091CA035091CB03E0909D03F09058
:100FF0009E0300919F031091A003A090A103B090C5
:10100000A203C090A303D090A4036E157F058007B0
:10101000910729F42A153B054C055D05D1F000D058
:10102000ADB7BEB712961C921E9211974E0108944E
:10103000811C911C06D98091F1039091F2032981C2
:101040003A81820F931F9093F2038093F1030F90E4
:101050000F90A4ECB3E0EDE9F3E089E101900D928B
:101060008150E1F781E08093DD038091DE03909170
:10107000DF039093E1038093E0038091D403909188
:10108000D50321E08330910508F020E0209377011B
:101090002091E203222349F42091D2032223C9F1B3
:1010A0008A309105B0F1E6DE34C02091E30330913F
:1010B000E4032817390720F49093E4038093E303B3
:1010C0008091CC039091CD032091ED033091EE03FC
:1010D000821B930B2091EF033091F00328173907FF
:1010E000C4F49093F0038093EF0313C08091B60390
:1010F000E82FF0E0E754FC4F0083983C29F09091F2
:10110000B80390279093B8038A3018F48F5F8093C8
:10111000B6034D9912C081E080939B0380919C039C
:10112000833398F05E9A8091B503882371F08091A3
:10113000AB03882351F09EDE08C080919B03811190
:101140005E9810929B0310929C03809181018230E3
:1011500009F05EC0109281018091800100E010E0F2
:10116000CC24DD2490E07C0125E0EE0CFF1C2A95C8
:10117000E1F7E80EF91EE5E8F1E0EE0EFF1E47018B
:101180008BE4A82E82E0B82EA00EB11EBCE66B2E1A
:10119000B2E07B2E600E711ED4012D914D012032E4
:1011A00029F1222319F1822F90E0243678F0845619
:1011B0009040A3E0880F991FAA95E1F78C0D9D1D23
:1011C0008035910598F4805090400EC08597F3E0EB
:1011D000880F991FFA95E1F78C0D9D1DB1E0803BBA
:1011E0009B0720F4805B9F4FE8D501C080E0F501AC
:1011F00081935F01E615F70579F60894C11CD11CAF
:101200000F5D1F4FF1E008301F0709F0B8CF97CEF0
:1012100080918101813009F092CE109281018091FC
:101220009B03882329F080919C038F5F80939C030C
:101230008091F303882309F035C18091AB038823A3
:1012400011F05E9A04C08BB190E489278BB980912C
:10125000E203882309F447C000D06091C403709171
:10126000C5038091C6039091C7032091C8033091B4
:10127000C9034091CA035091CB03E090E503F0907D
:10128000E6030091E7031091E803A090E903B09012
:10129000EA03C090EB03D090EC03E8EFF3E0ADB7C6
:1012A000BEB71296FC93EE931197E4EF8E2EE3E017
:1012B0009E2EC7D78091F4039091F503A091F60379
:1012C000B091F7032091FA033091FB0340E050E026
:1012D0000F900F90281739074A075B0720F4909367
:1012E000FB038093FA03BCEF8B2EB3E09B2EA8E7A1
:1012F0006A2EA1E07A2EFAE74F2EF1E05F2EE0E0B1
:10130000CE2EE4E0DE2EAA24860180917C00807F30
:1013100080937C0080917C008A2980937C0080915E
:101320007A00806A80937A0080917A00806480934A
:101330007A0080917A0084FFFCCF80917A008061EE
:1013400080937A0080917A008F7580937A00609103
:10135000780070917900F401619371934F0180E0FE
:1013600090E026E331E040E050E06ED42AE030E047
:1013700040E050E0BCD469017A01D3012D913D01D8
:1013800030E040E050E0C701B6015ED4F2012191A7
:101390002F0130E040E050E0AAD469017A017AE000
:1013A000F694E794D794C7947A95D1F7CD82DE82EC
:1013B000EF82F8868C2D90E0982F8827990F990F4F
:1013C000A0E0B0E069017A01C81AD90AEA0AFB0A6A
:1013D000C701B60124E630E040E050E035D45AE0E1
:1013E00096958795779567955A95D1F7D8016C931F
:1013F000ED811196EC931197A3940E5F1F4FFA2D78
:10140000F23009F082CF81E090E02091D403309156
:10141000D503293C310510F480E090E09093050459
:10142000809304048091CC039091CD032091ED032F
:101430003091EE03821B930B21E030E043E18938C9
:10144000940710F420E030E0309307042093060462
:1014500021E030E08091F4039091F503A091F60330
:10146000B091F703813167E2960760E0A60760E07C
:10147000B60710F420E030E030930904209308040C
:101480009091030484E6989FC001112420910204E6
:10149000820F911D21E0A1E0843F9A0708F020E02F
:1014A00020930A048091F3038F5F8093F30380916C
:1014B000F303823378F01092F3038091DE038F5FA1
:1014C0008093DE0380910B0490E001968170907010
:1014D00080930B048091DE038C3338F01092DE038E
:1014E0008091DF038F5F8093DF038091DF038C3374
:1014F00010F01092DF0346EAC42E41E0D42EEE2411
:10150000FF2434E6632E24E6A22EB12C9CE7892E1C
:1015100091E0992EADC11192EC15FD05E1F78E2DEC
:10152000EE20A1F585E891E060E044E251E02ED99B
:1015300085E891E067E047E251E028D98091DF0338
:101540008A3028F480E3F101838F6CE101C06BE104
:101550002091DF0330E040E050E085E891E004E1D5
:1015600011E034D9682F8091DE038A3038F4E62FF9
:10157000F0E0EB57FE4F80E380836F5F2091DE0346
:1015800030E040E050E085E891E0B4C0813009F0FF
:1015900060C086EA91E060E249E251E0F7D88091CC
:1015A0000A04882321F080910B04882329F10091FB
:1015B00002042091030430E040E050E086EA91E02C
:1015C00060E03ED8E82FF0E0EA55FE4F9EE29083BF
:1015D000682F6F5F0A3038F4E62FF0E0EA55FE4FCF
:1015E00080E380836F5F202F30E040E050E086EAA8
:1015F00091E00AE211E0EAD820910104F62D2F9F34
:101600009001112480910004280F311D41E0253FF5
:10161000340778F42937310578F0285730402A9D6F
:10162000C0012B9D900D3A9D900D1124B40138D32B
:1016300005C064E670E002C060E070E0262F30E094
:1016400040E050E086EA91E067E00CE211E0BED8AD
:10165000FFC08230D1F480917701882309F4F8C06B
:101660008091E203882331F087EC91E067E04EE25D
:1016700051E0EDC080910B04882309F4E9C087ECA8
:1016800091E06AE041E451E0E2C0833009F050C0EB
:1016900080917701882309F4DBC08091E2038823DD
:1016A00059F12091FA033091FB0340E050E088EEBD
:1016B00091E067E0C5D72091E3033091E40340E077
:1016C00050E088EE91E06CE0BBD72091F1033091BF
:1016D000F20340E050E088EE91E060E1B1D7209164
:1016E000EF033091F003442737FD4095542F88EEE7
:1016F00091E066E1A5D7ACC02091C4033091C50349
:101700004091C6035091C70388EE91E064E001E088
:101710006CD8682F6E5F2091C8033091C903409147
:10172000CA035091CB0388EE91E000E05ED890C0F0
:10173000843009F065C080910404909105040097FD
:1017400021F080910B04882351F02091D403309133
:10175000D50340E050E089E092E060E071D78091ED
:10176000E203882339F489E092E065E04DE451E03A
:101770000DD816C08091080490910904009721F0BB
:1017800080910B04882361F02091F4033091F503DC
:101790004091F6035091F70389E092E065E050D75D
:1017A0008091D203882351F02091D30330E040E0B0
:1017B00050E089E092E067E143D706C089E092E01B
:1017C00067E14DE451E0E2D780910604909107046F
:1017D000009721F080910B048823D1F12091CC0354
:1017E0003091CD038091ED039091EE03281B390BCE
:1017F000442737FD4095542F89E092E06CE17ACF81
:101800008AE292E060E04FE451E0C0D78AE292E0E1
:1018100065E043E551E0BAD79091E203682F6D5F30
:10182000992329F08AE292E047E551E004C08AE278
:1018300092E049E551E0AAD78AE292E067E14BE500
:1018400051E0A4D78AE292E06CE14DE551E09ED7E9
:101850000894E11CF11C81E290E0C80ED91E96E0CC
:10186000E916F10429F42BE633E080E090E016C09D
:10187000F70185E0EE0FFF1F8A95E1F7EE0DFF1DE2
:10188000EB57FE4F48CE1192E217F307E1F70196AE
:101890009F01285E3F4F8330910569F0FC01EE0FF8
:1018A000FF1FE80FF91F13E0EE0FFF1F1A95E1F776
:1018B000ED5AFC4FE8CF0091F8031091F9038091A5
:1018C000D6039091D703081B190B8BE0DAD98091CE
:1018D000F4039091F503A091F603B091F7038A30D9
:1018E0009105A105B10518F482E0CBD928CB8091F0
:1018F000D4039091D5038A30910520F08091AB03F9
:10190000882351F485E065E041E121E13EDA85E09C
:1019100061E141E125E050C0C801865A9F4FD4D310
:10192000E82EC801D1D3E82F4E2D552747FD5095FD
:10193000B3E0440F551FBA95E1F724E630E0CA0141
:10194000B901C2D14B018E2F992787FD9095A3E055
:10195000880F991FAA95E1F7B901B6D15B01682DEF
:10196000FBE0CF2ECA0C8BE0E82EE818655F8A19E1
:101970004C2D2E2D0ADA02E010E0C401B801A4D1EA
:10198000709561957F4F462F455FC501B8019CD189
:10199000709561957F4F262F255F8C2D6E2DF5D983
:1019A000C401B80191D1462F455FC501B8018CD162
:1019B000262F255F8C2D6E2DE8D9C1CA1F920F925C
:1019C0000FB60F9211242F933F934F935F936F9312
:1019D0007F938F939F93AF93BF93EF93FF9388E28F
:1019E0008A95F1F780917C0190917D014A99F2C02E
:1019F000009709F47FC080917F01813021F082300F
:101A000009F078C04AC090918001E8E1EA95F1F7C9
:101A1000292F30E0F90175E0EE0FFF1F7A95E1F70D
:101A2000E20FF31FEB57FE4FA091840181E2A89FC4
:101A3000D0011124A55BBD4F989FC00111248A5588
:101A40009E4F2191203221F0222311F0219A02C0D1
:101A5000219800002D912EBD000000000000000024
:101A60000000000000000000000000000000000076
:101A700000000000000000000000E817F90709F767
:101A80000000000000000000000000000000000056
:101A9000000000001EBC21982DC083E191E0019759
:101AA000F1F700C00000E0918401F0E0ED5AFC4F36
:101AB00080E090819EBD219A00000000000000009F
:101AC0000000000000000000000000000000000016
:101AD0000000000000000000000000000000000006
:101AE0000000000000008F5F7896833011F7219886
:101AF00000001EBC10927F0180917C0190917D01BD
:101B0000019690937D0180937C018E36910511F4AE
:101B100021E004C08F36910519F422E02093810161
:101B2000209182013091830182179307A0F04091A8
:101B30006101509162018417950768F441E0409378
:101B40007F01821B8093840190916301923009F0A0
:101B500048C0869531C020916101309162018217A1
:101B6000930769F582E0809381018091800190E084
:101B7000019666E070E0A8D080938001FC01EE0F32
:101B8000FF1FEC59FE4F2081318130938301209358
:101B9000820180599E4FFC0180818093630190E017
:101BA00053E0880F991F5A95E1F7820F931F909386
:101BB00062018093610181E08093840112C09C01E5
:101BC000295630402831310560F422E020937F010E
:101BD0008956F2CF893C910520F010927D01109238
:101BE0007C01FF91EF91BF91AF919F918F917F9178
:101BF0006F915F914F913F912F910F900FBE0F907A
:101C00001F9018951F920F920FB60F9211242F93C9
:101C10003F938F939F9380917C0190917D012091C0
:101C20007E0130E02817390721F42BB130E4232757
:101C30002BB980937E019F918F913F912F910F90AF
:101C40000FBE0F901F901895629FD001739FF001F7
:101C5000829FE00DF11D649FE00DF11D929FF00D3C
:101C6000839FF00D749FF00D659FF00D9927729F73
:101C7000B00DE11DF91F639FB00DE11DF91FBD01FE
:101C8000CF011124089587FB082E062687FD819534
:101C900067FD619569D00EF4919507FC81950895D3
:101CA000AA1BBB1B51E107C0AA1FBB1FA617B70782
:101CB00010F0A61BB70B881F991F5A95A9F780959E
:101CC0009095BC01CD01089597FB092E07260AD0F7
:101CD00077FD04D0E5DF06D000201AF470956195F9
:101CE0007F4F0895F6F7909581959F4F0895A1E253
:101CF0001A2EAA1BBB1BFD010DC0AA1FBB1FEE1F86
:101D0000FF1FA217B307E407F50720F0A21BB30BD0
:101D1000E40BF50B661F771F881F991F1A9469F74C
:101D200060957095809590959B01AC01BD01CF01A8
:101D3000089597FB092E05260ED057FD04D0D7DF56
:101D40000AD0001C38F450954095309521953F4FAE
:101D50004F4F5F4F0895F6F7909580957095619578
:101D60007F4F8F4F9F4F0895991B79E004C0991FB3
:101D7000961708F0961B881F7A95C9F780950895E5
:101D8000FB01DC014150504030F08D9101908019F1
:101D900019F40020B9F7881B990B0895FB01DC01A9
:101DA0004150504048F001900D920020C9F701C009
:101DB0001D9241505040E0F70895F999FECF92BD31
:0E1DC00081BDF89A992780B50895F894FFCF59
:101DCE004E005300450057002D2D3A2D2D2E2D2D52
:101DDE002D2D3F003A002E004750474741004750F7
:101DEE00524D43006A3100690000560025004C4FE9
:101DFE0053202053504420545249502020414C54DB
:101E0E00004E4F20484F4D4520504F53002D00534C
:101E1E005044004C4F5300660067006800414C541C
:101E2E000002000232004200AA00C800FF001801A2
:0C1E3E00010201010201FF01010101018C
:00000001FF
