:1000000047C0EFCA60C05FC05EC05DC05CC05BC07F
:100010005AC059C058C057C056C055C054C053C02C
:1000200052C051C050C04FC04EC04DC04CC04BC05C
:100030004AC049C00002030507090A0C0E1011133B
:100040001516181A1C1D1F2122242527292A2C2D9C
:100050002F303234353638393B3C3E3F4042434402
:10006000454748494A4B4D4E4F50515253545556AF
:10007000575758595A5B5B5C5D5D5E5F5F606061BE
:1000800061616262626363636364646464646400A4
:1000900011241FBECFEFD4E0DEBFCDBF11E0A0E042
:1000A000B1E0E4EAF9E102C005900D92A035B10794
:1000B000D9F713E0A0E5B1E001C01D92AE38B10759
:1000C000E1F716D56DCC9CCF68E671E0D4DB843BBC
:1000D000910520F0845B90404FEF01C041E08A35EC
:1000E000910530F024EB30E0B901681B790BCB01AE
:1000F000FC01EC5CFF4F8491849F802D11240895B6
:100100002F923F924F925F926F927F928F929F9227
:10011000AF92BF92CF92DF92EF92FF920F931F9315
:10012000DF93CF9300D000D00F92CDB7DEB77B0125
:100130008C0197FF0BC010950095F094E094E11CA2
:10014000F11C011D111D8FEF898302C0E1E0E983DD
:10015000C801B70120E432E44FE050E0D5DBA22E25
:10016000BB24CC24DD2480E1682E87E2782E812C0C
:10017000912CC801B701A4019301C6DB6A837B837C
:100180008C839D83C601B5012CE330E040E050E054
:1001900046DB1B012C01C601B50120EC3DEB40EF15
:1001A0005FEF3DDB6E0D7F1D801F911FA40193014A
:1001B000ABDB220E311C411C511C6A817B818C817E
:1001C0009D812CE330E040E050E029DB5B016C01D5
:1001D000C201B10120E737E140E050E020DB7B01C4
:1001E0008C01C601B50124E630E040E050E06ADB56
:1001F000E20EF31E041F151FF981FF3F41F4109515
:100200000095F094E094E11CF11C011D111DC80142
:10021000B7010F900F900F900F900F90CF91DF913B
:100220001F910F91FF90EF90DF90CF90BF90AF9014
:100230009F908F907F906F905F904F903F902F9006
:100240000895E9E4F3E0119283E0E435F807D9F783
:100250000895A5E7B3E0E4E5F3E08AE001900D92AC
:100260008150E1F781E080937403089528E731E03D
:1002700080E090E00BC01192E217F307E1F70196DE
:100280009F012F5D3F4F8430910559F0FC0145E0FF
:10029000EE0FFF1F4A95E1F7E80FF91FE95AFE4FED
:1002A000EACF08954F925F926F927F928F929F92C2
:1002B000AF92BF92CF92DF92EF92FF920F931F9374
:1002C000DF93CF930F92CDB7DEB72C01C62E790105
:1002D0008A0117FF07C022273327A9012E193F09DA
:1002E000400B510BDD24D3946AE0862E912CA12C77
:1002F000B12C06C0CA01B901A501940105DBD39454
:100300002A30310541055105ACF717FDD3948C2DEA
:1003100090E09C012D0D311D213231050CF055C0AE
:10032000480E591E17FF0BC010950095F094E094ED
:10033000E11CF11C011D111D6FEF698301C01982C1
:1003400052015AE0652E712C812C912CC801B70105
:10035000A4019301D9DA605DF50161935F018E2FED
:10036000841979018A01121613061406150674F30E
:10037000F981FF3F49F4E82FFF27E7FDF095E40DF1
:10038000F51D9DE290838F5FE82FFF27E7FDF09535
:10039000E40DF51D10828150582F569540E0282F0E
:1003A00030E0842F90E0D201A80FB91F6C91F901C1
:1003B000E81BF90BE40DF51D80818C9360834F5F82
:1003C000541778F78D2D8C0D01C081E20F90CF91DD
:1003D000DF911F910F91FF90EF90DF90CF90BF9032
:1003E000AF909F908F907F906F905F904F90089507
:1003F0002BEF32E080E090E00BC01192E217F307A0
:10040000E1F701969F01285E3F4F8330910569F027
:10041000FC01EE0FFF1FE80FF91F73E0EE0FFF1F47
:100420007A95E1F7ED51FD4FE8CF08950F931F93B3
:100430009C01062FFA01DA010D900020E9F71197CF
:100440001A2F141B862F90E0810F911D8132910588
:100450000CF011E2412F50E0C901800F911DBF0146
:1004600088DA812F800F1F910F9108950F931F93AA
:10047000CF93DF93EC0116DF682FCE01A801D6DF02
:10048000DF91CF911F910F910895FF920F931F93CA
:1004900001E0809149038D3209F000E0102F20E047
:1004A00030E0A90114C0CA01B9012AE030E040E0FF
:1004B00050E0B5D92F2D30E020533040442737FD90
:1004C0004095542F260F371F481F591F1F5FE12FDC
:1004D000F0E0E75BFC4FF0808F2D80538A3010F402
:1004E0001B3008F3002321F06FEF7FEFCB0104C036
:1004F00061E070E080E090E092D91F910F91FF9051
:100500000895883108F56831F8F4482F46954695E6
:10051000469550E08095877021E030E002C0220FC0
:10052000331F8A95E2F7FA01EE0FFF1FE40FF51F64
:10053000B3E0EE0FFF1FBA95E1F7E60FF11DED51A5
:10054000FD4F8081822B80830895FF920F931F932C
:10055000DF93CF9300D000D00F92CDB7DEB7182F26
:1005600081E0982F911B99838A83812F8195880F31
:100570008B831C821D839BE0F92EF10E8BE06F2D87
:10058000C0DF0BE0011B8BE0602FBBDF8F2D6BE02A
:10059000B8DF802F6BE0B5DF1BE04BC0898187FDA2
:1005A0000AC08D8181508D838B818E5F8B83998171
:1005B0008B81890F89838C818F5F8C838A818E5F89
:1005C0008A8399818A81890F89838C816D81655F96
:1005D000855F97DF8C816D81655F912F981B892FD7
:1005E00090DF8C819D81612F691B855F8ADF8C8103
:1005F0009D81612F691B912F981B892F82DF8D812F
:100600006C81655F855F7DDF8D816C81655F912F7A
:10061000981B892F76DF8D819C81612F691B855FF7
:1006200070DF8D819C81612F691B912F981B892F11
:1006300068DF9C818D8198170CF4B0CF0F900F90DC
:100640000F900F900F90CF91DF911F910F91FF901E
:100650000895AF92BF92CF92DF92EF92FF920F93E5
:100660001F93382F562F142FA22FB0E0A61BB109CD
:10067000B7FF03C0B095A195BF4FE12FF0E0E31B9A
:10068000F109F7FF03C0F095E195FF4F01E0EA178C
:10069000FB0714F000E006C0812F122F282F832FB4
:1006A000352F582F131730F4852F522F282F832FD3
:1006B000312F182FF12EF31AE22FF0E0E51BF1098C
:1006C000F7FF03C0F095E195FF4FEE2E8F2D62E00E
:1006D000C5D8D82EB52E521718F4AA24A39402C058
:1006E000AA24AA94C32E0EC0002319F08B2D6C2DC2
:1006F00002C08C2D6B2D05DFDE18D7FE02C0BA0CB0
:10070000DF0CC3941C1580F71F910F91FF90EF90A1
:10071000DF90CF90BF90AF900895FF920F931F93FB
:1007200001E0809149038D3209F000E0102F20E0B4
:1007300030E0A901E12FF0E0E75BFC4FF0808F2D66
:1007400080538A3028F5CA01B9012AE030E040E040
:1007500050E065D82F2D30E020533040442737FD3E
:100760004095542F260F371F481F591F1F5F1B30FE
:1007700008F3002321F06FEF7FEFCB0104C061E0AD
:1007800070E080E090E04BD81F910F91FF900895AA
:100790008F2D8E3259F3EDCF80914703882301F5D9
:1007A00089E493E060E071E045E050E0D4D8009740
:1007B00031F481E08093470310924A01089589E45F
:1007C00093E066E071E045E050E0C5D8009709F09D
:1007D0000AC182E08093470384E680934A0108952A
:1007E00080914603882309F4FEC080914A01853632
:1007F000E9F18636D8F4843009F469C0853048F4CC
:100800008230F1F1833008F045C0813009F0EBC04F
:100810002DC0863009F482C0863008F462C087306B
:1008200009F480C0893009F0DEC080C08A3609F43E
:1008300058C08B3648F4883669F1893608F047C0CD
:10084000873609F0D0C01CC08C3609F488C08C36BD
:1008500008F472C08D3609F488C0883C09F0C3C022
:10086000E9E4F3E080E090E0DC01AFC00EDE6093ED
:100870003703709338038093390390933A030895B4
:100880004CDF60932D0370932E0380932F0390937E
:100890003003089580914903833509F0A4C0809105
:1008A0002D0390912E03A0912F03B0913003B095AA
:1008B000A095909581959F4FAF4FBF4F80932D038B
:1008C00090932E03A0932F03B0933003089525DF58
:1008D0006093310370933203809333039093340316
:1008E000089580914903873509F07DC080913103D7
:1008F00090913203A0913303B0913403B095A09549
:10090000909581959F4FAF4FBF4F80933103909348
:100910003203A0933303B09334030895B6DD60939C
:100920003B030895B2DD60933C030895AEDD709300
:100930003603609335030895A8DD4FEC51E0649FC2
:100940009001659F300D749F300D1124C9016AEF2D
:1009500070E091D770933E0360933D03089595DD59
:100960007093400360933F0308958FDD60934103CC
:10097000709342038093430390934403089534E0BB
:10098000880F991FAA1FBB1F3A95D1F7322F3154F8
:10099000363020F430E0275330400FC0322F31562C
:1009A000363020F430E02755304007C0322F305326
:1009B0003A3058F430E020533040442737FD40951A
:1009C000542F820F931FA41FB51F2191222321F0C2
:1009D00033E0E535F30799F621E030914803381309
:1009E00020E02093450308954F925F926F927F928B
:1009F0008F929F92AF92BF92CF92DF92EF92FF922F
:100A00000F931F93CF93DF93EC017A018B01922E0A
:100A1000411551056105710529F460E044E151E09B
:100A200005DD55C0CB01BA0120E432E44FE050E0CF
:100A30006BD7422E552466247724C301B20120ECE3
:100A40003DEB40EF5FEFEBD66E0D7F1D801F911FDA
:100A500040E1A42E47E2B42EC12CD12CA601950171
:100A600053D7822EC801B701A60195014DD75B016E
:100A70006C01992059F01E141F04100611061CF475
:100A80008CE091E00DC08EE091E00AC01E141F04BE
:100A9000100611061CF480E191E002C082E191E0B1
:100AA0007C01CE0160E0A301920100E211E0DEDCF6
:100AB000682F282D30E040E050E0CE0102E211E046
:100AC000D5DC682FCE01A60195018701CFDCDF912F
:100AD000CF911F910F91FF90EF90DF90CF90BF903B
:100AE000AF909F908F907F906F905F904F90089500
:100AF000DF93CF93CDB7DEB76D970FB6F894DEBF17
:100B00000FBECDBF80E28BB980E48AB929988CE012
:100B100084B983E08093690021E02DBB80E880BF29
:100B200010927B001EBC8DB58E7F8DBD84E58CBD83
:100B3000E0915301F0E0EE0FFF1FEE5BFE4F80816E
:100B40009181909356018093550110927E0080917F
:100B50007C00806480937C0080917A008660809322
:100B60007A0010927B0080E18093C1008091C100E7
:100B700084608093C1002093C50087E38093C40004
:100B8000789474DB35DC8091C00087FF76C00091DB
:100B9000C60090914A019F3F21F4043209F06DC0D4
:100BA00010C0043271F0053230F40A3049F10D30D2
:100BB00009F050C025C00A3299F00C3209F04AC041
:100BC0000AC01092460310924703109248031092F5
:100BD0004A0137DB52C08091480380278093480345
:100BE000DBDD2FDB1092460380914A018F5F8093FB
:100BF0004A010A3209F041C088EC80934A013DC0A5
:100C0000CBDD8FEF80934A01809145038823A9F1C2
:100C1000A4E5B3E0EDE2F3E089E101900D928150AB
:100C2000E1F781E080936D03A1E7B3E0EEE6F3E046
:100C300083E001900D928150E1F780917403882345
:100C4000E1F480916403909165038A309105A8F0E6
:100C500000DB13C080914603E82FF0E0E75BFC4F18
:100C60000083983C29F09091480390279093480383
:100C70008A3018F48F5F809346034D990EC081E04F
:100C800080932B0380912C038B3078F05E9A8091B7
:100C90004503882351F0DDDA08C080912B038111D0
:100CA0005E9810922B0310922C0380915401823095
:100CB00009F053C0109254014091530120E030E0FC
:100CC000CC24DD24842F90E08C01A5E0000F111FBF
:100CD000AA95E1F7080F191F095A1E4F81E2489F94
:100CE00050011124F8E7EF2EF1E0FF2EAE0CBF1CEF
:100CF000780189012AC0D4018D914D018032A1F083
:100D0000882391F090E0E3E0880F991FEA95E1F7DE
:100D10008C0D9D1D80509140B1E0883D9B0720F4D3
:100D20008050904035D601C080E0F30181933F01AF
:100D30008A149B0401F70894C11CD11C0F5D1F4F3E
:100D4000F1E008301F0709F41ECF47017BED672E45
:100D500071E0772E600E711ECECF809154018130EC
:100D600009F011CF1092540180912B03882329F0B0
:100D700080912C038F5F80932C0380917F038823C5
:100D800009F057C280913B03882311F05E9A04C09A
:100D90008BB190E489278BB980917403882309F47F
:100DA000B8C1E0905403F0905503009156031091A0
:100DB0005703A0907503B0907603C0907703D0904E
:100DC0007803C601B5016E0D7F1D801F911F97FF2F
:100DD00007C090958095709561957F4F8F4F9F4F7D
:100DE00020E834E84EE150E06DD5C901865A9F4FA6
:100DF0006BD98E87C801B70183D91B012C01C601AD
:100E0000B5017ED93B014C016091580370915903A3
:100E100080915A0390915B0373D97B018C0160919F
:100E2000790370917A0380917B0390917C0368D958
:100E30009B01AC012E193F09400B510B621873083E
:100E400084089508CE846C2D772767FD7095872FD1
:100E5000972FE5D424E630E040E050E055D5190165
:100E60002A0162E0E62EF12C012D112DCC24C39431
:100E70000FC0C201B101A801970146D519012A018D
:100E8000C401B301A80197013FD539014A01CC0C37
:100E9000A201910157FE07C022273327A901221979
:100EA0003309440955092F3F6FEF360760E04607C5
:100EB00060E05607F0F6D401C30197FE07C088270B
:100EC0009927DC0186199709A809B9098F3FEFEF27
:100ED0009E07E0E0AE07E0E0BE0758F6CE862E8B18
:100EE0003F8B488F598F8A8F9B8FAC8FBD8FC201EC
:100EF000B101A201910193D45B016C01C401B30162
:100F0000A40193018CD4E1E00FC052E0D694C794C1
:100F1000B794A7945A95D1F742E09695879577951F
:100F200067954A95D1F7EE0FE92EFF240027112788
:100F30002D2D332744275527E20EF31E041F151FBE
:100F40002FEFE216F1040105110509F0F0F6EF8725
:100F5000A6019501260F371F481F591F288B398B73
:100F60004A8B5B8B59016A01D694C794B794A794B6
:100F7000A114B104C104D10451F11D8A1C8A02C01C
:100F800057016801688979898A899B89A601950139
:100F900099D479018A01EA0CFB1C0C1D1D1D1695C4
:100FA0000795F794E794AE18BF08C00AD10A32E05B
:100FB000A316B104C104D10470F04C895D894F5F60
:100FC0005F4F5D8B4C8B4A315105D1F604C0E888E8
:100FD000F9880A891B896F85262F30E040E050E0B0
:100FE000C801B7011CD45B016C0161157105810555
:100FF000910509F467C08E899F89A88DB98D2A8DC6
:101000003B8D4C8D5D8D82179307A407B507C0F00B
:10101000CA01B90124E630E040E050E000D4A60166
:10102000950150D4E22E00E010E002C00F5F1F4F88
:10103000C8014AD8E8161CF10A351105B9F71FC0D6
:101040006E897F89888D998D24E630E040E050E0FC
:10105000E6D3A601950136D4022FEE24FF2403C067
:101060000894E11CF11CC7012FD8081724F03AE5B9
:10107000E316F104A9F70AE510E00E191F0961143F
:1010800071048104910429F457FC1FC08AE590E0A3
:101090001EC016141704180419044CF457FC03C09E
:1010A0008AE590E00CC0C801825F9E4F10C057FCDB
:1010B00004C0C801865A9F4F0AC08EE091E0801B91
:1010C000910B05C080E090E002C08EE091E090932B
:1010D000850380938403C601B50125E331E040E038
:1010E00050E09DD328EE33E040E050E0EBD37901AF
:1010F0008A016E85262F30E040E050E0C801B7013C
:101100008ED36093800370938103809382039093C6
:101110008303B6E88B2EB3E09B2EABE46A2EA1E0EE
:101120007A2EFDE42F2EF1E03F2EEAE8CE2EE3E00A
:10113000DE2EAA24860180917C00807F80937C0033
:1011400080917C008A2980937C0080917A00806A5B
:1011500080937A0080917A00806480937A008091F5
:101160007A0084FFFCCF80917A00806180937A00BE
:1011700080917A008F7580937A00609178007091E9
:101180007900D4016D937D934D0180E090E026E3DA
:1011900031E040E050E043D32AE030E040E050E06E
:1011A00091D369017A01F30121913F0130E040E0E0
:1011B00050E0C701B60133D3D1012D911D0130E0BC
:1011C00040E050E07FD369017A017AE0F694E79439
:1011D000D794C7947A95D1F7C88AD98AEA8AFB8AC4
:1011E0008C2D90E0982F8827990F990FA0E0B0E000
:1011F00069017A01C81AD90AEA0AFB0AC701B601CD
:1012000024E630E040E050E00AD32AE09695879546
:10121000779567952A95D1F7D8016C93E88911964F
:10122000EC931197A3940E5F1F4FFA2DF23009F043
:1012300082CF80917F038F5F80937F0380917F03B4
:10124000823338F010927F0380916E038F5F80931A
:101250006E0380916E038C3338F010926E03809190
:101260006F038F5F80936F0380916F038C3338F02F
:1012700010926F03809170038F5F80937003809151
:101280007003833610F010927003F0D7EE2411E251
:10129000A12EBEE22B2EA4E68A2E912CFDE56F2E08
:1012A000F1E07F2EE0E3CE2EEE2009F08FC080919A
:1012B00070038A3020F4C092570161E001C060E001
:1012C0002091700330E040E050E087E591E000E2DB
:1012D00011E0CCD8682F80916F038A3030F4E62F6C
:1012E000F0E0E95AFE4FC0826F5F20916F0330E05B
:1012F00040E050E087E591E000E211E0B7D8682FC8
:1013000080916E038A3030F4E62FF0E0E95AFE4F08
:10131000C0826F5F20916E0330E040E050E087E5CF
:1013200091E0C0D700918C03682F6F5F20918D03EF
:1013300030E040E050E087E591E0B4D7E82FF0E0FE
:10134000E95AFE4F2082682F6F5F0A3030F4E62F93
:10135000F0E0E95AFE4FC0826F5F202F30E040E09E
:1013600050E087E591E003E311E080D8E82FEF5FDC
:1013700080918B0324E6829FC001112420918A036F
:10138000820F911D31E0863D930780F489379105E6
:1013900080F09C0128573040289DC001299D900D68
:1013A000389D900D1124B30166D205C064E670E04B
:1013B00002C060E070E0262F30E040E050E087E5BA
:1013C00091E06E2F05E311E051D897C04E2D4130CA
:1013D00049F520918003309181034091820350911F
:1013E000830388E791E060E007E311E03FD8682FCE
:1013F0006F5F209184033091850340E050E088E7DF
:1014000091E009E311E032D8682F6F5F8091740397
:10141000882319F044E251E002C04AE251E088E733
:1014200091E06AC05E2D523001F540915403509115
:101430005503609156037091570389E991E021E0CB
:10144000D3DA409158035091590360915A03709137
:101450005B03CE01019620E0C7DA6A2D681B89E99B
:1014600091E0AE014F5F5F4F47C020915C03309128
:101470005D0380917D0390917E03281B390B4427E7
:1014800037FD4095542F8AEB91E060E007E311E0CF
:10149000EDD7682F6F5F209164033091650340E0C2
:1014A00050E08AEB91E00DE311E0E0D7682F6F5F29
:1014B000209166033091670340E050E08AEB91E0B1
:1014C00009E311E0D3D7682F6F5F2091630330E009
:1014D00040E050E08AEB91E00EE011E0C7D7682FC2
:1014E0006F5F80916203882319F04BE251E002C0E4
:1014F0004FE251E08AEB91E099D7E3946E2D64308E
:1015000009F0D2CE75D700918403109185038091A4
:10151000660390916703081B190B8BE016D8809126
:10152000800390918103A0918203B09183038A305C
:101530009105A105B10518F482E007D824CBC801B4
:10154000865A9F4FC1D5E82EC801BED5E82F4E2D33
:10155000552747FD509573E0440F551F7A95E1F7E5
:1015600024E630E0CA01B9019AD17B018E2F992778
:1015700087FD909563E0880F991F6A95E1F7B9019F
:101580008ED14B016E2D5BE0A52EA80C8BE0C82EF2
:10159000CE18655F88194A2D2C2D5BD802E010E02B
:1015A000C701B8017CD1709561957F4F462F455F8B
:1015B000C401B80174D1709561957F4F262F255FC6
:1015C0008A2D6C2D46D8C701B80169D1462F455FD9
:1015D000C401B80164D1262F255F8A2D6C2D39D81E
:1015E000D2CA1F920F920FB60F9211242F933F93DE
:1015F0008F939F93AF93BF93EF93FF9388E28A9566
:10160000F1F74A99F4C080915001909151010097EF
:1016100009F487C080915201813021F0823009F0B5
:1016200080C051C0A091530198E19A95F1F7809143
:10163000500190915101B0E0FD0125E0EE0FFF1F38
:101640002A95E1F7EA0FFB1FE95AFE4FAA0FBB1FCD
:10165000AE5BBE4F2D913C91821B930B9695879567
:10166000A1E28A9FD0011124A552BE4F81E291913F
:10167000903221F0992311F0219A01C021989D9177
:101680009EBD0000000000000000000000000000FF
:10169000000000000000000000000000000000004A
:1016A0000000000000000000815009F70000000069
:1016B000000000000000000000000000000000002A
:1016C0001EBC21982EC08FE191E00197F1F700C078
:1016D0000000E0915001F0915101E658FD4F83E088
:1016E00090819EBD219A00000000000000000000D3
:1016F00000000000000000000000000000000000EA
:1017000000000000000000000000000000000000D9
:101710000000000081507896882311F7219800007E
:101720001EBC10925201809150019091510101967E
:1017300090935101809350018091500190915101FB
:101740008436910521F481E0809354015BC020919F
:101750005001309151018091550190915601281707
:10176000390770F02091500130915101809155015D
:101770009091560140962817390710F481E034C043
:101780002091500130915101809155019091560165
:10179000409628173907C9F482E08093540180915C
:1017A000530190E001968370907080935301E09113
:1017B0005301F0E0EE0FFF1FEE5BFE4F8081918141
:1017C00090935601809355011DC0809150019091D6
:1017D000510189369105B0F08091500190915101ED
:1017E0008138910578F482E0809352010BC080919A
:1017F000500190915101893C910520F010925101C6
:1018000010925001FF91EF91BF91AF919F918F91F5
:101810003F912F910F900FBE0F901F901895629FD0
:10182000D001739FF001829FE00DF11D649FE00DD8
:10183000F11D929FF00D839FF00D749FF00D659F39
:10184000F00D9927729FB00DE11DF91F639FB00D38
:10185000E11DF91FBD01CF011124089587FB082E5A
:10186000062687FD819567FD619569D00EF49195F7
:1018700007FC81950895AA1BBB1B51E107C0AA1F55
:10188000BB1FA617B70710F0A61BB70B881F991F21
:101890005A95A9F780959095BC01CD01089597FBC5
:1018A000092E07260AD077FD04D0E5DF06D00020F8
:1018B0001AF4709561957F4F0895F6F7909581958C
:1018C0009F4F0895A1E21A2EAA1BBB1BFD010DC05C
:1018D000AA1FBB1FEE1FFF1FA217B307E407F507E0
:1018E00020F0A21BB30BE40BF50B661F771F881FBC
:1018F000991F1A9469F760957095809590959B0152
:10190000AC01BD01CF01089597FB092E05260ED02D
:1019100057FD04D0D7DF0AD0001C38F4509540950D
:10192000309521953F4F4F4F5F4F0895F6F79095B3
:101930008095709561957F4F8F4F9F4F0895991BAC
:1019400079E004C0991F961708F0961B881F7A95B6
:10195000C9F780950895FB01DC014150504030F0FB
:101960008D910190801919F40020B9F7881B990B0B
:101970000895FB01DC014150504048F001900D9268
:101980000020C9F701C01D9241505040E0F7089572
:10199000F999FECF92BD81BDF89A992780B5089537
:0419A000F894FFCFE9
:1019A4004750474741004750524D43004E005300B3
:1019B400450057002D2D3A2D2D2E2D2D2D2D3F0078
:1019C4003A002E00482D5345540000464958004221
:1019D400414400560025004D00444547004B4D2F1F
:1019E400480033004C00F0000901FF01010101002F
:00000001FF
