:1000000019C23FC432C231C230C22FC22EC22DC269
:100010002CC22BC22AC229C228C227C226C225C28C
:1000200024C223C222C221C220C21FC21EC21DC2BC
:100030001CC21BC2000000000000000038446C44D9
:1000400054443800387C547C447C380000287C7C44
:100050007C3810000010387C7C38100010383810C4
:100060007C7C10000010387C7C10380000000030D0
:1000700030000000FCFCFCCCCCFCFCFC0000784810
:1000800048780000FCFC84B4B484FCFC001C0C34F4
:100090004848300038444438103810001018141004
:1000A000307060000C342C342C6C60000054386CC0
:1000B000385400002030383C383020000818387898
:1000C0003818080010387C107C38100028282828A0
:1000D000280028003C5454341414140038443028A8
:1000E00018443800000000000078780010387C10B8
:1000F0007C38103810387C101010100010101010C0
:100100007C3810000010187C181000000010307CA3
:10011000301000000000004040407C000028287C97
:1001200028280000101038387C7C00007C7C38388F
:10013000101000000000000000000000103838100F
:10014000100010006C6C48000000000000287C28A3
:10015000287C2800203840300870100064640810A3
:10016000204C4C00205050205448340030302000A7
:10017000000000001020202020201000201010106F
:10018000101020000028387C382800000010107C57
:100190001010000000000000003030200000007C43
:1001A00000000000000000000030300000040810D3
:1001B0002040000038444C54644438001030101083
:1001C000101038003844041820407C0038440438AB
:1001D00004443800081828487C0808007C4040780F
:1001E0000444380018204078444438007C04081047
:1001F0002020200038444438444438003844443CEB
:100200000408300000003030003030000000303092
:1002100000303020081020402010080000007C0032
:10022000007C000020100804081020003844041846
:100230001000100038445C545C403800384444449A
:100240007C44440078444478444478003844404036
:100250004044380078444444444478007C4040782A
:1002600040407C007C404078404040003844405C46
:1002700044443C004444447C44444400381010103E
:10028000101038000404040444443800444850600A
:10029000504844004040404040407C00446C54443E
:1002A000444444004464544C44444400384444446A
:1002B0004444380078444478404040003844444442
:1002C0005448340078444478484444003844403822
:1002D000044438007C1010101010100044444444B2
:1002E0004444380044444444442810004444545492
:1002F00054542800444428102844440044444428CA
:10030000101010007808102040407800382020207D
:100310002020380000402010080400003808080899
:100320000808380010284400000000000000000009
:10033000000000FC30301000000000000000380415
:100340003C443C0040407844444478000000384439
:100350004044380004043C4444443C000000384419
:1003600078403800182020782020200000003C44ED
:10037000443C043840407048484848001000101081
:10038000101018000800180808084830404048506D
:100390006050480010101010101018000000685431
:1003A0005444440000007048484848000000384465
:1003B00044443800000078444444784000003C4401
:1003C00044443C04000058242020700000003840C1
:1003D0003804380000207820202810000000484809
:1003E00048582800000044444428100000004444B9
:1003F000547C280000004848304848000000484825
:1004000048381060000078083040780018202060DC
:100410002020180010101000101010003008080CD8
:1004200008083000285000000000000010386C441C
:10043000447C000011241FBECFEFD4E0DEBFCDBF4F
:1004400011E0A0E0B1E0E2ECF0E102C005900D9215
:10045000A433B107D9F713E0A4E3B1E001C01D92C2
:10046000A139B107E1F775D02AC6CACD8F929F9204
:10047000AF92BF92CF92DF92EF92FF920F931F93B2
:10048000CF93DF9380E090E008EFC02E42C0ED9163
:10049000A42EAD0CF0E013E0EE0FFF1F1A95E1F76C
:1004A000E20FF31FEC5CFF4F9490842E86948694A9
:1004B0008694FE01E80DF11DE358FC4F008110E029
:1004C0008C9CF02D1124F40F02C015950795FA9518
:1004D000E2F700FF03C0092D009501C0092DF701C7
:1004E000EA0DF11DE55CFE4F00834F5F5F4F403228
:1004F000510569F62F5F3F4F40E2D40E2830310599
:1005000021F0DB0140E050E0C2CF0196823091053E
:1005100099F0DD2420E030E0BC01E5E0660F771FB4
:10052000EA95E1F7635C7C4FEC01CC0FDD1FCC0F4B
:10053000DD1FF82EEE24E5CFDF91CF911F910F91B3
:10054000FF90EF90DF90CF90BF90AF909F908F90F3
:100550000895DF93CF9300D000D000D0CDB7DEB7A1
:1005600080E28BB980E48AB929988CE084B983E071
:100570008093690081E08DBB80E880BF10927B0092
:100580001EBC8DB58E7F8DBD84E58CBD10927E0026
:1005900080917C00816480937C0080917A00866ADF
:1005A00080937A0010927B00789460DF00E4BAE0D8
:1005B0004B2E512C612C712CA4E6CA2ED12CF8E7BD
:1005C0002F2E312C80913B0390913C034D9904C018
:1005D0009B3038F05E9A05C081115E9890E080E013
:1005E00001C081E020913A01213081F780933B03E3
:1005F00090933C0310923A01882319F09F5F9093E7
:100600003C0380918503882309F071C08BB180275A
:100610008BB9E6E8EE2EE3E0FE2E8AE893E010E0E8
:100620009E838D8380917C00807F80937C0080916D
:100630007C00812B80937C0080917A008064809381
:100640007A002D813E8180917A0084FFFCCF3E8329
:100650002D8380917A00806180937A006091780088
:1006600070917900D7016D937D937D0180E090E0DA
:1006700026E331E040E050E0F0D1A301920120D226
:1006800049015A017AE0B694A794979487947A9591
:10069000D1F789829A82AB82BC82882D90E0982F14
:1006A0008827990F990FA0E0B0E049015A01881AF4
:1006B000990AAA0ABB0AC501B40124E630E040E069
:1006C00050E0CBD15AE096958795779567955A95E6
:1006D000D1F7AD81BE816C93E9811196EC931197AE
:1006E0001F5F1296BE83AD83123009F09BCF8091BD
:1006F00085038F5F8093850380918503823338F073
:100700001092850380918E038F5F80938E0380917A
:100710008E038C3338F010928E0380918F038F5F9D
:1007200080938F0380918F038C3338F010928F0366
:10073000809190038F5F8093900380919003833624
:1007400010F0109290032DE533E080E090E00BC0B4
:100750001192E217F307E1F701969F01205E3F4FE8
:100760008230910549F0FC0145E0EE0FFF1F4A95EC
:10077000E1F7E35CFC4FECCF10927D0310927E0317
:1007800010927F03109280031092810310928203D3
:10079000109283031092840380918B03882E9924F6
:1007A000E0908A03FF248C9C90018D9C300D9C9CD2
:1007B000300D11242E0D3F1DF4E02D3E3F0780F437
:1007C00064E02537360778F0245734402C9DC0016B
:1007D0002D9D900D3C9D900D1124B1015DD105C062
:1007E00064E670E002C060E070E040919003209108
:1007F0008F0380918E03ADB7BEB75A970FB6F894AA
:10080000BEBF0FBEADBFEDB7FEB731963DE3A32E21
:1008100033E0B32E1296BC92AE921197A0E2B0E0F4
:10082000B383A28390E0A92E91E0B92EB582A48271
:1008300050E05783468330E03187208790E09387EC
:10084000828795868486F786E68680918D0390E080
:10085000918B808B80918C0390E0938B828B158A97
:10086000148A178A168A70E0718F608F4BD18DB70A
:100870009EB74A960FB6F8949EBF0FBE8DBFF6DDA9
:10088000A1CE1F920F920FB60F9211242F933F9378
:100890008F939F93AF93BF93EF93FF9328E22A9593
:1008A000F1F74A99C2C080913401909135010097C7
:1008B00009F454C08091360190913701813091053F
:1008C00009F04CC0809138019091390120E22A95BD
:1008D000F1F7E0913401F091350190E0DC01AA0FCD
:1008E000BB1FA15DBE4F2D913C911197E21BF30BF5
:1008F000F695E795219AF0E035E0EE0FFF1F3A9567
:10090000E1F7982F8827E80FF91FE55CFE4F80E29A
:1009100091919EBD0000000000000000000000005A
:1009200000000000000000000000000000000000C7
:1009300000000000000000000000000000000000B7
:1009400000000000000000000000815009F0E0CF2E
:1009500000000000000000001EBC219880913401BE
:1009600090913501019690933501809334018091E7
:100970003401909135018233910590F080913401DA
:10098000909135018234910558F481E090E0909384
:10099000370180933601109239011092380150C00E
:1009A000809134019091350121E08930920798F0CF
:1009B000809134019091350121E08931920758F4FA
:1009C00081E090E090933701809336019093390154
:1009D0008093380135C0809134019091350187387A
:1009E000910570F08091340190913501873991051E
:1009F00038F482E090E0909337018093360120C074
:100A0000809134019091350121E08931920741F4C0
:100A1000109237011092360181E080933A0110C0A4
:100A200010923701109236010BC0809134019091E1
:100A30003501893C910520F0109235011092340166
:100A4000FF91EF91BF91AF919F918F913F912F9126
:100A50000F900FBE0F901F901895629FD001739F4B
:100A6000F001829FE00DF11D649FE00DF11D929F4A
:100A7000F00D839FF00D749FF00D659FF00D992789
:100A8000729FB00DE11DF91F639FB00DE11DF91FAD
:100A9000BD01CF0111240895AA1BBB1B51E107C062
:100AA000AA1FBB1FA617B70710F0A61BB70B881FFE
:100AB000991F5A95A9F780959095BC01CD0108958D
:100AC000A1E21A2EAA1BBB1BFD010DC0AA1FBB1F52
:100AD000EE1FFF1FA217B307E407F50720F0A21BC4
:100AE000B30BE40BF50B661F771F881F991F1A9431
:100AF00069F760957095809590959B01AC01BD015B
:100B0000CF010895AEE0B0E0E7E8F5E0AFC20D89AF
:100B10001E898F89988D26E02C831A83098397FF7D
:100B200002C080E090E801979E838D839E01255E40
:100B30003F4FCE010196698D7A8DA90111D04D816B
:100B40005E8157FD0AC02F813885421753070CF488
:100B50009A01020F131FF80110822E96E4E0A2C240
:100B6000ACE0B0E0E5EBF5E073C26C011B018A017B
:100B7000FC0117821682838181FFC4C12E01089473
:100B8000411C511CF6019381F10193FD859193FF66
:100B900081911F01882309F4B1C1853239F493FD95
:100BA000859193FF81911F01853221F490E0B60178
:100BB000C5D1E8CFEE24FF2420E02032B0F48B3200
:100BC00069F08C3228F4803251F0833271F40BC01A
:100BD0008D3239F0803349F421602CC022602460CA
:100BE00029C0286027C0206125C027FD2CC0382FD0
:100BF00030533A3098F426FF08C08E2D880FE82E27
:100C0000EE0CEE0CE80EE30E15C08F2D880FF82EBB
:100C1000FF0CFF0CF80EF30E20620CC08E3221F494
:100C200026FD6CC1206406C08C3611F4206802C019
:100C3000883649F4F10193FD859193FF81911F015D
:100C4000882309F0BACF982F9554933018F090521A
:100C5000933028F40C5F1F4FFFE3F9830DC08336F8
:100C600031F0833771F0833509F05CC021C0F801A1
:100C7000808189830E5F1F4F420171E0A72EB12C46
:100C800015C062E0662E712C600E711EF801808026
:100C9000918026FF03C06E2D70E002C06FEF7FEFE2
:100CA000C4012C8740D15C0183012C852F7716C0AD
:100CB00052E0652E712C600E711EF80180809180CB
:100CC00026FF03C06E2D70E002C06FEF7FEFC401FE
:100CD0002C871ED15C012C852068830123FD1EC05A
:100CE00007C080E290E0B6012C8728D1FA942C85C9
:100CF0008F2D90E0A816B906A0F310C0F40127FDCF
:100D0000859127FF81914F0190E0B6012C8716D184
:100D10002C85F110FA940894A108B108A114B1042B
:100D200069F7E9C0843611F0893641F527FF08C01C
:100D3000F80160817181828193810C5F1F4F09C02E
:100D4000F80160817181882777FD8095982F0E5F6B
:100D50001F4F4FE6B42EB22297FF09C090958095A1
:100D6000709561957F4F8F4F9F4FF0E8BF2AA2018A
:100D70002AE030E00FD1782E741844C0853731F462
:100D80003FEEB32EB2222AE030E025C099EFB92E13
:100D9000B2228F36C1F0803720F4883509F0AEC01A
:100DA0000DC0803721F0883709F0A8C002C020E1CB
:100DB000B22AB4FE0BC084E0B82A08C0B4FE09C051
:100DC000E6E0BE2A06C028E030E005C020E130E0C1
:100DD00002C020E132E0B7FE08C0F80160817181F5
:100DE000828193810C5F1F4F07C0F8016081718180
:100DF00080E090E00E5F1F4FA201CCD0782E7418D7
:100E0000FFE7BF22B6FE0BC02EEFB2227E1438F4ED
:100E1000B4FE07C0B2FC05C08FEEB82202C0A72CFA
:100E200001C0AE2C8B2D90E0B4FE0DC0FE01E70D8D
:100E3000F11D2081203319F4E9EEBE2209C0A394EC
:100E4000B2FE06C004C086789070009709F0A394A3
:100E50008B2C9924B3FC13C0B0FE0EC0AF1428F441
:100E6000E72CEF0CEA18AF2C07C0E72C05C080E296
:100E700090E0B60163D0A394AF14C8F304C0AF14DC
:100E800010F4FA1801C0FF2484FE0EC080E390E045
:100E9000B60154D082FE1DC081FE03C088E590E0FB
:100EA00010C088E790E00DC0C4018678907000976C
:100EB00081F081FC02C080E201C08BE2B7FC8DE2D0
:100EC00090E0B6013BD005C080E390E0B60136D09B
:100ED000EA947E14C8F37A94F201E70DF11D808143
:100EE00090E0B6012BD07720B1F705C080E290E00A
:100EF000B60124D0FA94FF20C9F744CEF60126812A
:100F0000378102C02FEF3FEFC9012C96E2E1BCC050
:100F1000FC010590615070400110D8F780959095C4
:100F20008E0F9F1F0895FC016150704001900110C9
:100F3000D8F7809590958E0F9F1F08950F931F935C
:100F4000CF93DF938C01EB018B8181FF1BC082FF6C
:100F50000DC02E813F818C819D812817390764F453
:100F6000E881F9810193F983E88306C0E885F98572
:100F7000802F0995009731F48E819F8101969F8380
:100F80008E8302C00FEF1FEFC801DF91CF911F9139
:100F90000F910895FA01AA27283051F1203181F1EB
:100FA000E8946F936E7F6E5F7F4F8F4F9F4FAF4F71
:100FB000B1E03ED0B4E03CD0670F781F891F9A1F84
:100FC000A11D680F791F8A1F911DA11D6A0F711D38
:100FD000811D911DA11D20D009F468943F912AE044
:100FE000269F11243019305D3193DEF6CF0108952C
:100FF000462F4770405D4193B3E00FD0C9F7F6CF5D
:10100000462F4F70405D4A3318F0495D31FD405224
:10101000419302D0A9F7EACFB4E0A69597958795BA
:1010200077956795BA95C9F7009761057105089599
:101030009B01AC010A2E0694579547953795279545
:10104000BA95C9F7620F731F841F951FA01D0895DD
:101050002F923F924F925F926F927F928F929F92C8
:10106000AF92BF92CF92DF92EF92FF920F931F93B6
:10107000CF93DF93CDB7DEB7CA1BDB0B0FB6F89467
:10108000DEBF0FBECDBF09942A88398848885F84A7
:101090006E847D848C849B84AA84B984C884DF8018
:1010A000EE80FD800C811B81AA81B981CE0FD11DFC
:1010B0000FB6F894DEBF0FBECDBFED010895F894D2
:0210C000FFCF60
:1010C200253032643A253032643A253032642025A4
:1010D200642E25303264562025642E253032645623
:1010E2002025642E253032645620256425250032C1
:0410F20000090100F0
:00000001FF
