:1000000046C238C85FC25EC25DC25CC25BC25AC231
:1000100059C258C257C256C255C254C253C252C224
:1000200051C250C24FC24EC24DC24CC24BC24AC254
:1000300049C248C2000000000000000038446C447F
:1000400054443800387C547C447C380000287C7C44
:100050007C3810000010387C7C38100010383810C4
:100060007C7C10000010387C7C10380000000030D0
:1000700030000000FCFCFCCCCCFCFCFC0000784810
:1000800048780000FCFC84B4B484FCFC001C0C34F4
:100090004848300038444438103810001018141004
:1000A000307060000C342C342C6C60000054386CC0
:1000B000385400002030383C383020000818387898
:1000C0003818080010387C107C38100028282828A0
:1000D000280028003C5454341414140038443028A8
:1000E00018443800000000000078780010387C10B8
:1000F0007C38103810387C101010100010101010C0
:100100007C3810000010187C181000000010307CA3
:10011000301000000000004040407C000028287C97
:1001200028280000101038387C7C00007C7C38388F
:10013000101000000000000000000000103838100F
:10014000100010006C6C48000000000000287C28A3
:10015000287C2800203840300870100064640810A3
:10016000204C4C00205050205448340030302000A7
:10017000000000001020202020201000201010106F
:10018000101020000028387C382800000010107C57
:100190001010000000000000003030200000007C43
:1001A00000000000000000000030300000040810D3
:1001B0002040000038444C54644438001030101083
:1001C000101038003844041820407C0038440438AB
:1001D00004443800081828487C0808007C4040780F
:1001E0000444380018204078444438007C04081047
:1001F0002020200038444438444438003844443CEB
:100200000408300000003030003030000000303092
:1002100000303020081020402010080000007C0032
:10022000007C000020100804081020003844041846
:100230001000100038445C545C403800384444449A
:100240007C44440078444478444478003844404036
:100250004044380078444444444478007C4040782A
:1002600040407C007C404078404040003844405C46
:1002700044443C004444447C44444400381010103E
:10028000101038000404040444443800444850600A
:10029000504844004040404040407C00446C54443E
:1002A000444444004464544C44444400384444446A
:1002B0004444380078444478404040003844444442
:1002C0005448340078444478484444003844403822
:1002D000044438007C1010101010100044444444B2
:1002E0004444380044444444442810004444545492
:1002F00054542800444428102844440044444428CA
:10030000101010007808102040407800382020207D
:100310002020380000402010080400003808080899
:100320000808380010284400000000000000000009
:10033000000000FC30301000000000000000380415
:100340003C443C0040407844444478000000384439
:100350004044380004043C4444443C000000384419
:1003600078403800182020782020200000003C44ED
:10037000443C043840407048484848001000101081
:10038000101018000800180808084830404048506D
:100390006050480010101010101018000000685431
:1003A0005444440000007048484848000000384465
:1003B00044443800000078444444784000003C4401
:1003C00044443C04000058242020700000003840C1
:1003D0003804380000207820202810000000484809
:1003E00048582800000044444428100000004444B9
:1003F000547C280000004848304848000000484825
:1004000048381060000078083040780018202060DC
:100410002020180010101000101010003008080CD8
:1004200008083000285000000000000010386C441C
:10043000447C00000002030507090A0C0E1011138A
:100440001516181A1C1D1F2122242527292A2C2D98
:100450002F303234353638393B3C3E3F40424344FE
:10046000454748494A4B4D4E4F50515253545556AB
:10047000575758595A5B5B5C5D5D5E5F5F606061BA
:1004800061616262626363636364646464641124CF
:100490001FBECFEFD4E0DEBFCDBF11E0A0E0B1E0E2
:1004A000E2E6F9E102C005900D92A635B107D9F751
:1004B00014E0A6E5B1E001C01D92AA35B107E1F74D
:1004C000E9D24DCA9DCD80E090E0FC01EE5DFB4F8E
:1004D000108201968F309105C1F708950F931F93F5
:1004E000CF93DF938091220401E08D3209F000E088
:1004F000102F20E030E0A90114C0CA01B9012AE0A0
:1005000030E040E050E0D8D6288130E02053304041
:10051000442737FD4095542F260F371F481F591F7A
:100520001F5FC12FD0E0CE5DDB4F888180538A30C2
:1005300010F4103110F3002321F06FEF7FEFCB01A7
:1005400004C061E070E080E090E0B6D6DF91CF912A
:100550001F910F9108950F931F93CF93DF93809175
:10056000220401E08D3209F000E0102F20E030E09D
:10057000A901C12FD0E0CE5DDB4F888180538A3046
:1005800030F5CA01B9012AE030E040E050E094D6ED
:10059000288130E020533040442737FD4095542FC8
:1005A000260F371F481F591F1F5F103110F30023FC
:1005B00021F06FEF7FEFCB0104C061E070E080E0DD
:1005C00090E07AD6DF91CF911F910F9108958881A5
:1005D0008E3251F3ECCFFF920F931F93CF93DF93A3
:1005E0006FEF73E080E090E027C0ED91F0E0EE0F58
:1005F000FF1FEE0FFF1FEE0FFF1FE20FF31FEC5C5C
:10060000FF4FF490FE01E00FF11DE35AFE4FF08220
:100610000F5FA617B70749F72F5F3F4F105E2830CF
:10062000310519F0DA01012FE0CF0196BD01605EBE
:100630007F4F8230910571F010E020E030E0AC0196
:10064000F5E0440F551FFA95E1F741525C4FD82F62
:10065000CC27E8CFDF91CF911F910F91FF900895A4
:1006600068E671E048D6843B910520F0845B9040B9
:100670004FEF01C041E08A35910530F024EB30E0C6
:10068000B901681B790BCB01FC01EC5CFB4F849139
:10069000849F802D11240895EDE5F3E010821182EE
:1006A00012821382349683E0ED3DF807B9F708957E
:1006B00080912004882301F582E294E060E071E0FB
:1006C00045E050E061D6009731F481E0809320044A
:1006D00010925501089582E294E066E071E045E0F1
:1006E00050E052D6009709F02CC182E0809320049C
:1006F00084E680935501089580912004882309F4AD
:1007000020C180911F04882309F41BC180915501E9
:10071000853609F440C08636E0F4843009F457C0C9
:10072000853050F4823009F442C0833008F049C06B
:10073000813009F006C12FC0863009F46FC08630C1
:1007400008F44FC0873009F476C0893009F0F9C049
:1007500076C08A3609F445C08B3658F4873639F1AD
:10076000873608F45FC0883661F1893609F0E9C040
:100770002EC08C3609F48BC08C3608F466C08D36DA
:1007800009F48BC0883C09F0DCC060E070E080E0D8
:1007900090E0DC01C5C0A2DE9B01AC0120933104D6
:1007A0003093320440933304509334040895D3DEDD
:1007B0006093350470933604809337049093380423
:1007C000089580912204833509F0BBC00FC0C3DEB9
:1007D0006093390470933A0480933B0490933C04F3
:1007E000089580912204873509F0ABC080913504CB
:1007F00090913604A0913704B0913804B095A0953B
:10080000909581959F4FAF4FBF4F80933504909344
:100810003604A0933704B093380408955FDE6093E4
:100820003D0408959091220481E0913409F080E024
:1008300080933D04089552DE60933E0408954EDE99
:100840007093400460933F04089548DE709342041F
:100850006093410440914104509142042FEC31E0F7
:10086000429FC001439F900D529F900D1124909381
:1008700042048093410480914104909142046AEFC4
:1008800070E039D57093420460934104089526DEE8
:100890007093440460934304089520DE9B01AC01EF
:1008A00020934504309346044093470450934804F2
:1008B000089524E0880F991FAA1FBB1F2A95D1F71E
:1008C0002081213440F02081273428F4208130E039
:1008D000275330401BC0FB01EE5DFB4F20812136CA
:1008E00040F02081273628F4208130E02755304021
:1008F0000DC0FB01EE5DFB4F2081203378F020819D
:100900002A3360F4208130E020533040442737FD03
:100910004095542F820F931FA41FB51F6F5F7F4F09
:10092000FB01EE5DFB4F2081222321F06031710538
:1009300009F0BFCF3091210421E0381320E020934B
:10094000490408958032E0F46032D0F4E62FF0E0FC
:10095000EE0FFF1FEE0FFF1F982F96959695969519
:10096000E90FF11DE35AFC4F8095877021E030E0DC
:1009700002C0220F331F8A95E2F78081822B808389
:1009800008955F926F927F928F929F92AF92BF92E3
:10099000CF92DF92EF92FF920F931F93CF93DF934B
:1009A000FC01EB017A01A901461B570B57FF03C05D
:1009B000509541955F4FC7018E1B9F0B97FF03C05A
:1009C000909581959F4F552453948417950714F063
:1009D00055240EC05E2D4F2D7901CA01292F382FC5
:1009E0005E2F4F2FFE01C52EE6016E01D42EE601CB
:1009F000EE16FF066CF4CE015C2F492FE901CA0107
:100A0000292F382F5E2F4F2FF701CA01E92EF82E1C
:100A100037016E1A7F0A5901AC1ABD0AB7FE04C02D
:100A2000B094A194B108B394C30162E070E077D4AC
:100A30006B01C217D30724F441E0842E912C03C02C
:100A400088248A94982C8F0112C0552019F08C2F7D
:100A5000602F02C0802F6C2F75DFCA18DB08D7FE0D
:100A600004C0C80DD91DC60CD71C0F5F1F4FE01660
:100A7000F1065CF7DF91CF911F910F91FF90EF90FE
:100A8000DF90CF90BF90AF909F908F907F906F90AE
:100A90005F9008952F923F924F925F926F927F9254
:100AA0008F929F92AF92BF92CF92DF92EF92FF927E
:100AB0000F931F93DF93CF93CDB7DEB72B970FB66E
:100AC000F894DEBF0FBECDBF20E12BB988E08AB914
:100AD00029988CE084B983E08093690091E09DBB04
:100AE00080E880BF10927B001EBC8DB58E7F8DBDCF
:100AF00084E58CBD10927E0080917C00816480939F
:100B00007C0080917A00866A80937A0010927B0044
:100B10002093C1008091C10084608093C1009093B4
:100B2000C50087E38093C400789455DDB5DDAA2421
:100B3000A394B4E68B2E912CA0E22A2E312CFFE058
:100B4000FF2E8091C00087FF51C00091C6008091A8
:100B500055018F3F21F4043209F048C00EC0043221
:100B600061F0053228F40A3039F10D3059F524C00E
:100B70000A3291F00C3231F50AC010921F04109223
:100B8000200410922104109255019DDC2FC0809109
:100B900021048027809321048BDD95DC10921F04B3
:100BA000809155018F5F809355010A32F9F4E8EC8A
:100BB0004E2E409255011AC07BDD55245A94509216
:100BC000550114C0E0911F04F0E0EE5DFB4F00837F
:100BD00080915501883C29F08091210480278093E1
:100BE000210480911F048F5F80931F044C9908C0DB
:100BF000A092DD038091DE038B3050F05B9A08C039
:100C00008091DD0381115B981092DD031092DE0369
:100C100080915C01813009F094CF10925C01809149
:100C2000DD03882329F08091DE038F5F8093DE034C
:100C3000B0904A04BB2009F075C080913D04882320
:100C400049F05B9A7BE4C72E74E0D72E01E514E0EF
:100C5000EE2405C08BB198E089278BB9F3CF809142
:100C60007C00807F80937C0080917C00E3948E29BF
:100C700080937C0080917A00806480937A008091D8
:100C80007A0084FFFCCF80917A00806180937A00A3
:100C90006091780070917900D6016D937D936D011C
:100CA00080E090E026E331E040E050E005D32AE028
:100CB00030E040E050E046D329013A016AE0769402
:100CC0006794579447946A95D1F7488659866A86FF
:100CD0007B86440C440C4F821E826E807F80C30151
:100CE000A0E0B0E029013A01481A590A6A0A7B0AD1
:100CF000C301B20124E630E040E050E0DDD22AE05A
:100D000096958795779567952A95D1F7D8016C9335
:100D1000E8851196EC9311970E5F1F4FFE2DF3306F
:100D200009F09DCF8B2D8F5F80934A04823339F475
:100D300010924A04809157048F5F809357048091EA
:100D400057048C3339F410925704809158048F5F04
:100D500080935804809158048C3339F410925804CD
:100D6000809159048F5F8093590480915904833690
:100D700011F4109259042091520430E00091510472
:100D800010E0289DA001299D500D389D500D112483
:100D9000400F511F64E04537560768F044575440F0
:100DA000489DC001499D900D589D900D112468E704
:100DB00070E0A1D202C060E070E04FEF53E080E04D
:100DC00090E00BC01192E417F507E1F70196AF012F
:100DD000405E5F4F8230910549F0FC01B5E0EE0FB7
:100DE000FF1FBA95E1F7E152FC4FECCF8DB79EB7EC
:100DF0004A970FB6F8949EBF0FBE8DBFEDB7FEB7F2
:100E00003196AFED4A2EA3E05A2EADB7BEB712967B
:100E10005C924E921197338222827CE0672E71E0C1
:100E2000772E75826482809159048683178280911F
:100E300058048087118680915704828713863587EE
:100E400024871787068780915404808B118A8091AC
:100E50005304828B138A80915604848B158A809167
:100E60005504868B178A608F118E9CD24090350472
:100E70005090360460903704709038042091390403
:100E800030913A0440913B0450913C0460913F04FE
:100E90007091400400913E048DB79EB708960FB63E
:100EA000F8949EBF0FBE8DBFEDB7FEB731968FEFA2
:100EB00093E0ADB7BEB712969C938E931197338291
:100EC0002282ABE3B1E0B583A48346825782608679
:100ED0007186228733874487558777876687008B9B
:100EE000118A60D2EDB7FEB772960FB6F894FEBFC6
:100EF0000FBEEDBF70DBD0DB80E090E060E070E023
:100F00004FE150E020E030E03CDD80E090E060E048
:100F100070E040E050E02FE130E033DD8FE190E021
:100F20006FE170E04FE150E020E030E02ADD8FE13A
:100F300090E06FE170E040E050E02FE130E021DD33
:100F4000FEEFF983AA826AEF462E4B821C8253E0A1
:100F5000552E5D828FE062E1F5DC8FE06CE0F2DC23
:100F600082E16FE0EFDC8CE06FE04AC0898187FDB1
:100F70000AC08D8181508D838B818E5F8B83998197
:100F80008B81890F89838C818F5F8C838A818E5FAF
:100F90008A8399818A81890F89838C816D81615FC0
:100FA000815FD0DC8C816D81615F6F2C681A862D2A
:100FB000C9DC8C819D816F2D691B815FC3DC8C81B5
:100FC0009D816F2D691B7F2C781A872DBBDC8D814D
:100FD0006C81615F815FB6DC8D816C81615F4F2DBB
:100FE000481B842FAFDC8D819C816F2D691B815F35
:100FF000A9DC8D819C816F2D691B5F2D581B852F6E
:10100000A1DC9C818D8198170CF4B0CF20914A040B
:1010100030E068E671E0269FC001279F900D369F63
:10102000900D112462E370E07AD18B01CB0168E668
:1010300071E061D1865A9F4F13DBC82EDD24C7FCB7
:10104000D094C8010DDB992787FD90956AE070E088
:1010500066D1FB013F96C6016AE070E060D12FE0E7
:1010600030E0261B370B8FE090E06FE070E0AF01BF
:1010700088DC67CD1F920F920FB60F9211242F9329
:101080003F938F939F93AF93BF93EF93FF9328E288
:101090002A95F1F74A99F8C080915601909157012D
:1010A000009709F48AC080915801909159018130CC
:1010B000910529F08230910509F07FC04BC08091E5
:1010C0005A0190915B0120E22A95F1F7E0915601D7
:1010D000F091570190E0DC01AA0FBB1FAF5ABE4F41
:1010E0002D913C911197E21BF30BF695E795219A10
:1010F000F0E035E0EE0FFF1F3A95E1F7982F8827D3
:10110000E80FF91FE35AFE4F80E291919EBD000067
:1011100000000000000000000000000000000000CF
:1011200000000000000000000000000000000000BF
:1011300000000000000000000000000000000000AF
:1011400000000000815009F0E0CF00000000000026
:10115000000031C080ED8A95F1F7E0915601F091E1
:101160005701EE0FFF1FEE0FFF1FEF5BFE4F84E0F6
:10117000219A91919EBD0000000000000000000037
:10118000000000000000000000000000000000005F
:10119000000000000000000000000000000000004F
:1011A00000000000000000000000815009F0E0CFC6
:1011B0000000000000001EBC219880915601909113
:1011C00057010196909357018093560180915601E3
:1011D000909157018233910590F080915601909142
:1011E00057018234910558F481E090E090935901C1
:1011F0008093580110925B0110925A0150C0809167
:1012000056019091570121E08930920798F0809122
:1012100056019091570121E08931920758F481E0FD
:1012200090E0909359018093580190935B018093D3
:101230005A0135C080915601909157018738910528
:1012400070F08091560190915701873A910538F4DA
:1012500082E090E0909359018093580120C08091E2
:1012600056019091570121E08931920741F4109283
:1012700059011092580181E080935C0110C01092D6
:101280005901109258010BC080915601909157015D
:10129000893C910520F01092570110925601FF9160
:1012A000EF91BF91AF919F918F913F912F910F90AF
:1012B0000FBE0F901F901895629FD001739FF00191
:1012C000829FE00DF11D649FE00DF11D929FF00DD6
:1012D000839FF00D749FF00D659FF00D9927729F0D
:1012E000B00DE11DF91F639FB00DE11DF91FBD0198
:1012F000CF0111240895AA1BBB1B51E107C0AA1FEF
:10130000BB1FA617B70710F0A61BB70B881F991FA6
:101310005A95A9F780959095BC01CD01089597FB4A
:10132000092E07260AD077FD04D0E5DF06D000207D
:101330001AF4709561957F4F0895F6F79095819511
:101340009F4F0895A1E21A2EAA1BBB1BFD010DC0E1
:10135000AA1FBB1FEE1FFF1FA217B307E407F50765
:1013600020F0A21BB30BE40BF50B661F771F881F41
:10137000991F1A9469F760957095809590959B01D7
:10138000AC01BD01CF010895FB01DC01415050408B
:1013900030F08D910190801919F40020B9F7881B65
:1013A000990B0895AEE0B0E0E7EDF9E0AFC20D892A
:1013B0001E898F89988D26E02C831A83098397FFD5
:1013C00002C080E090E801979E838D839E01255E98
:1013D0003F4FCE010196698D7A8DA90111D04D81C3
:1013E0005E8157FD0AC02F813885421753070CF4E0
:1013F0009A01020F131FF80110822E96E4E0A2C298
:10140000ACE0B0E0E5E0FAE073C26C011B018A01D8
:10141000FC0117821682838181FFC4C12E010894CA
:10142000411C511CF6019381F10193FD859193FFBD
:1014300081911F01882309F4B1C1853239F493FDEC
:10144000859193FF81911F01853221F490E0B601CF
:10145000C5D1E8CFEE24FF2420E02032B0F48B3257
:1014600069F08C3228F4803251F0833271F40BC071
:101470008D3239F0803349F421602CC02260246021
:1014800029C0286027C0206125C027FD2CC0382F27
:1014900030533A3098F426FF08C08E2D880FE82E7E
:1014A000EE0CEE0CE80EE30E15C08F2D880FF82E13
:1014B000FF0CFF0CF80EF30E20620CC08E3221F4EC
:1014C00026FD6CC1206406C08C3611F4206802C071
:1014D000883649F4F10193FD859193FF81911F01B5
:1014E000882309F0BACF982F9554933018F0905272
:1014F000933028F40C5F1F4FFFE3F9830DC0833650
:1015000031F0833771F0833509F05CC021C0F801F8
:10151000808189830E5F1F4F420171E0A72EB12C9D
:1015200015C062E0662E712C600E711EF80180807D
:10153000918026FF03C06E2D70E002C06FEF7FEF39
:10154000C4012C8740D15C0183012C852F7716C004
:1015500052E0652E712C600E711EF8018080918022
:1015600026FF03C06E2D70E002C06FEF7FEFC40155
:101570002C871ED15C012C852068830123FD1EC0B1
:1015800007C080E290E0B6012C8728D1FA942C8520
:101590008F2D90E0A816B906A0F310C0F40127FD26
:1015A000859127FF81914F0190E0B6012C8716D1DC
:1015B0002C85F110FA940894A108B108A114B10483
:1015C00069F7E9C0843611F0893641F527FF08C074
:1015D000F80160817181828193810C5F1F4F09C086
:1015E000F80160817181882777FD8095982F0E5FC3
:1015F0001F4F4FE6B42EB22297FF09C090958095F9
:10160000709561957F4F8F4F9F4FF0E8BF2AA201E1
:101610002AE030E00FD1782E741844C0853731F4B9
:101620003FEEB32EB2222AE030E025C099EFB92E6A
:10163000B2228F36C1F0803720F4883509F0AEC071
:101640000DC0803721F0883709F0A8C002C020E122
:10165000B22AB4FE0BC084E0B82A08C0B4FE09C0A8
:10166000E6E0BE2A06C028E030E005C020E130E018
:1016700002C020E132E0B7FE08C0F801608171814C
:10168000828193810C5F1F4F07C0F80160817181D7
:1016900080E090E00E5F1F4FA201CCD0782E74182E
:1016A000FFE7BF22B6FE0BC02EEFB2227E1438F445
:1016B000B4FE07C0B2FC05C08FEEB82202C0A72C52
:1016C00001C0AE2C8B2D90E0B4FE0DC0FE01E70DE5
:1016D000F11D2081203319F4E9EEBE2209C0A39444
:1016E000B2FE06C004C086789070009709F0A394FB
:1016F0008B2C9924B3FC13C0B0FE0EC0AF1428F499
:10170000E72CEF0CEA18AF2C07C0E72C05C080E2ED
:1017100090E0B60163D0A394AF14C8F304C0AF1433
:1017200010F4FA1801C0FF2484FE0EC080E390E09C
:10173000B60154D082FE1DC081FE03C088E590E052
:1017400010C088E790E00DC0C401867890700097C3
:1017500081F081FC02C080E201C08BE2B7FC8DE227
:1017600090E0B6013BD005C080E390E0B60136D0F2
:10177000EA947E14C8F37A94F201E70DF11D80819A
:1017800090E0B6012BD07720B1F705C080E290E061
:10179000B60124D0FA94FF20C9F744CEF601268181
:1017A000378102C02FEF3FEFC9012C96E2E1BCC0A8
:1017B000FC010590615070400110D8F7809590951C
:1017C0008E0F9F1F0895FC01615070400190011021
:1017D000D8F7809590958E0F9F1F08950F931F93B4
:1017E000CF93DF938C01EB018B8181FF1BC082FFC4
:1017F0000DC02E813F818C819D812817390764F4AB
:10180000E881F9810193F983E88306C0E885F985C9
:10181000802F0995009731F48E819F8101969F83D7
:101820008E8302C00FEF1FEFC801DF91CF911F9190
:101830000F910895FA01AA27283051F1203181F142
:10184000E8946F936E7F6E5F7F4F8F4F9F4FAF4FC8
:10185000B1E03ED0B4E03CD0670F781F891F9A1FDB
:10186000A11D680F791F8A1F911DA11D6A0F711D8F
:10187000811D911DA11D20D009F468943F912AE09B
:10188000269F11243019305D3193DEF6CF01089583
:10189000462F4770405D4193B3E00FD0C9F7F6CFB4
:1018A000462F4F70405D4A3318F0495D31FD40527C
:1018B000419302D0A9F7EACFB4E0A6959795879512
:1018C00077956795BA95C9F70097610571050895F1
:1018D0009B01AC010A2E069457954795379527959D
:1018E000BA95C9F7620F731F841F951FA01D089535
:1018F0002F923F924F925F926F927F928F929F9220
:10190000AF92BF92CF92DF92EF92FF920F931F930D
:10191000CF93DF93CDB7DEB7CA1BDB0B0FB6F894BE
:10192000DEBF0FBECDBF09942A88398848885F84FE
:101930006E847D848C849B84AA84B984C884DF806F
:10194000EE80FD800C811B81AA81B981CE0FD11D53
:101950000FB6F894DEBF0FBECDBFED010895F89429
:02196000FFCFB7
:101962004750474741004750524D430025303264AB
:101972003A253032643A253032642025642E2530EF
:101982003264562025642E25303264562025642E7A
:1019920025303264562025642525004750533A20CD
:1019A200256C642C20256C642025646D20256473CD
:0619B2000032000901FFF4
:00000001FF
