:1000000047C003CB60C05FC05EC05DC05CC05BC06A
:100010005AC059C058C057C056C055C054C053C02C
:1000200052C051C050C04FC04EC04DC04CC04BC05C
:100030004AC049C00002030507090A0C0E1011133B
:100040001516181A1C1D1F2122242527292A2C2D9C
:100050002F303234353638393B3C3E3F4042434402
:10006000454748494A4B4D4E4F50515253545556AF
:10007000575758595A5B5B5C5D5D5E5F5F606061BE
:1000800061616262626363636364646464646400A4
:1000900011241FBECFEFD4E0DEBFCDBF11E0A0E042
:1000A000B1E0ECECF9E102C005900D92A435B10786
:1000B000D9F713E0A4E5B1E001C01D92AA39B10758
:1000C000E1F743D581CC9CCF68E671E0E8DB843B67
:1000D000910520F0845B90404FEF01C041E08A35EC
:1000E000910530F024EB30E0B901681B790BCB01AE
:1000F000FC01EC5CFF4F8491849F802D11240895B6
:100100002F923F924F925F926F927F928F929F9227
:10011000AF92BF92CF92DF92EF92FF920F931F9315
:10012000DF93CF9300D000D00F92CDB7DEB77B0125
:100130008C0197FF0BC010950095F094E094E11CA2
:10014000F11C011D111D8FEF898302C0E1E0E983DD
:10015000C801B70120E432E44FE050E0E9DBA22E11
:10016000BB24CC24DD2480E1682E87E2782E812C0C
:10017000912CC801B701A4019301DADB6A837B8368
:100180008C839D83C601B5012CE330E040E050E054
:100190005ADB1B012C01C601B50120EC3DEB40EF01
:1001A0005FEF51DB6E0D7F1D801F911FA401930136
:1001B000BFDB220E311C411C511C6A817B818C816A
:1001C0009D812CE330E040E050E03DDB5B016C01C1
:1001D000C201B10120E737E140E050E034DB7B01B0
:1001E0008C01C601B50124E630E040E050E07EDB42
:1001F000E20EF31E041F151FF981FF3F41F4109515
:100200000095F094E094E11CF11C011D111DC80142
:10021000B7010F900F900F900F900F90CF91DF913B
:100220001F910F91FF90EF90DF90CF90BF90AF9014
:100230009F908F907F906F905F904F903F902F9006
:100240000895EDE4F3E0119283E0E835F807D9F77B
:100250000895A9E7B3E0E8E5F3E08AE001900D92A4
:100260008150E1F781E08093780308952CE731E035
:1002700080E090E00BC01192E217F307E1F70196DE
:100280009F012F5D3F4F8430910559F0FC0145E0FF
:10029000EE0FFF1F4A95E1F7E80FF91FE55AFE4FF1
:1002A000EACF08954F925F926F927F928F929F92C2
:1002B000AF92BF92CF92DF92EF92FF920F931F9374
:1002C000DF93CF930F92CDB7DEB72C01C62E790105
:1002D0008A0117FF07C022273327A9012E193F09DA
:1002E000400B510BDD24D3946AE0862E912CA12C77
:1002F000B12C06C0CA01B901A501940119DBD39440
:100300002A30310541055105ACF717FDD3948C2DEA
:1003100090E09C012D0D311D213231050CF055C0AE
:10032000480E591E17FF0BC010950095F094E094ED
:10033000E11CF11C011D111D6FEF698301C01982C1
:1003400052015AE0652E712C812C912CC801B70105
:10035000A4019301EDDA605DF50161935F018E2FD9
:10036000841979018A01121613061406150674F30E
:10037000F981FF3F49F4E82FFF27E7FDF095E40DF1
:10038000F51D9DE290838F5FE82FFF27E7FDF09535
:10039000E40DF51D10828150582F569540E0282F0E
:1003A00030E0842F90E0D201A80FB91F6C91F901C1
:1003B000E81BF90BE40DF51D80818C9360834F5F82
:1003C000541778F78D2D8C0D01C081E20F90CF91DD
:1003D000DF911F910F91FF90EF90DF90CF90BF9032
:1003E000AF909F908F907F906F905F904F90089507
:1003F0002FEF32E080E090E00BC01192E217F3079C
:10040000E1F701969F01285E3F4F8330910569F027
:10041000FC01EE0FFF1FE80FF91F73E0EE0FFF1F47
:100420007A95E1F7E951FD4FE8CF08950F931F93B7
:100430009C01062FFA01DA010D900020E9F71197CF
:100440001A2F141B862F90E0810F911D8132910588
:100450000CF011E2412F50E0C901800F911DBF0146
:100460009CDA812F800F1F910F9108950F931F9396
:10047000CF93DF93EC0116DF682FCE01A801D6DF02
:10048000DF91CF911F910F9108950F931F93CF93F9
:10049000DF93EC01E42FF0E0EE0FFF1FEE56FC4F70
:1004A0001081218130E040E050E0FCDEFE01E80FE9
:1004B000F11D9EE29083682F6F5F1A3030F4FE01C9
:1004C000E60FF11D80E380836F5F212F30E040E075
:1004D00050E0CE0100E011E0C9DFDF91CF911F9124
:1004E0000F910895FF920F931F9301E080914D03A8
:1004F0008D3209F000E0102F20E030E0A90114C097
:10050000CA01B9012AE030E040E050E09CD92F2D2B
:1005100030E020533040442737FD4095542F260FBC
:10052000371F481F591F1F5FE12FF0E0E35BFC4FAF
:10053000F0808F2D80538A3010F41B3008F3002395
:1005400021F06FEF7FEFCB0104C061E070E080E04D
:1005500090E079D91F910F91FF900895883108F5A7
:100560006831F8F4482F46954695469550E08095B9
:10057000877021E030E002C0220F331F8A95E2F736
:10058000FA01EE0FFF1FE40FF51F83E0EE0FFF1FD0
:100590008A95E1F7E60FF11DE951FD4F8081822B2D
:1005A00080830895FF920F931F93DF93CF9300D022
:1005B00000D00F92CDB7DEB7182F81E0982F911B96
:1005C00099838A83812F8195880F8B831C821D8359
:1005D0002BE0F22EF10E8BE06F2DC0DF0BE0011B44
:1005E0008BE0602FBBDF8F2D6BE0B8DF802F6BE0DF
:1005F000B5DF1BE04BC0898187FD0AC08D8181502A
:100600008D838B818E5F8B8399818B81890F898309
:100610008C818F5F8C838A818E5F8A8399818A81A6
:10062000890F89838C816D81655F855F97DF8C8100
:100630006D81655F912F981B892F90DF8C819D8143
:10064000612F691B855F8ADF8C819D81612F691B0A
:10065000912F981B892F82DF8D816C81655F855F6B
:100660007DDF8D816C81655F912F981B892F76DFEF
:100670008D819C81612F691B855F70DF8D819C81DD
:10068000612F691B912F981B892F68DF9C818D81B9
:1006900098170CF4B0CF0F900F900F900F900F9011
:1006A000CF91DF911F910F91FF900895AF92BF926C
:1006B000CF92DF92EF92FF920F931F93382F562F16
:1006C000142FA22FB0E0A61BB109B7FF03C0B0954D
:1006D000A195BF4FE12FF0E0E31BF109F7FF03C045
:1006E000F095E195FF4F01E0EA17FB0714F000E0F9
:1006F00006C0812F122F282F832F352F582F131725
:1007000030F4852F522F282F832F312F182FF12EC1
:10071000F31AE22FF0E0E51BF109F7FF03C0F095B3
:10072000E195FF4FEE2E8F2D62E0ACD8D82EB52E7E
:10073000521718F4AA24A39402C0AA24AA94C32E80
:100740000EC0002319F08B2D6C2D02C08C2D6B2D4B
:1007500005DFDE18D7FE02C0BA0CDF0CC3941C15EF
:1007600080F71F910F91FF90EF90DF90CF90BF9097
:10077000AF900895FF920F931F9301E080914D0376
:100780008D3209F000E0102F20E030E0A901E12FC8
:10079000F0E0E35BFC4FF0808F2D80538A3028F52A
:1007A000CA01B9012AE030E040E050E04CD82F2DDA
:1007B00030E020533040442737FD4095542F260F1A
:1007C000371F481F591F1F5F1B3008F3002321F0FC
:1007D0006FEF7FEFCB0104C061E070E080E090E05C
:1007E00032D81F910F91FF9008958F2D8E3259F3BB
:1007F000EDCF80914B03882301F58DE493E062E017
:1008000071E045E050E0BBD8009731F481E080937F
:100810004B0310924A0108958DE493E068E071E083
:1008200045E050E0ACD8009709F00AC182E080931F
:100830004B0384E680934A01089580914A038823FC
:1008400009F4FEC080914A018536E9F18636D8F474
:10085000843009F469C0853048F48230F1F1833086
:1008600008F045C0813009F0EBC02DC0863009F496
:1008700082C0863008F462C0873009F480C08930B5
:1008800009F0DEC080C08A3609F458C08B3648F4BF
:10089000883669F1893608F047C0873609F0D0C03C
:1008A0001CC08C3609F488C08C3608F472C08D36B2
:1008B00009F488C0883C09F0C3C0EDE4F3E080E0AF
:1008C00090E0DC01AFC00EDE60933B0370933C030D
:1008D00080933D0390933E0308954CDF6093310372
:1008E000709332038093330390933403089580917F
:1008F0004D03833509F0A4C08091310390913203F8
:10090000A0913303B0913403B095A0959095819553
:100910009F4FAF4FBF4F8093310390933203A0930B
:100920003303B0933403089525DF60933503709348
:1009300036038093370390933803089580914D03D5
:10094000873509F07DC08091350390913603A091E1
:100950003703B0913803B095A095909581959F4F3E
:10096000AF4FBF4F8093350390933603A093370367
:10097000B09338030895B6DD60933F030895B2DD68
:10098000609340030895AEDD70933A03609339039A
:100990000895A8DD4FEC51E0649F9001659F300DF4
:1009A000749F300D1124C9016AEF70E078D77093FD
:1009B000420360934103089595DD7093440360936F
:1009C000430308958FDD609345037093460380933E
:1009D000470390934803089534E0880F991FAA1F96
:1009E000BB1F3A95D1F7322F3154363020F430E026
:1009F000275330400FC0322F3156363020F430E0CC
:100A00002755304007C0322F30533A3058F430E089
:100A100020533040442737FD4095542F820F931FB9
:100A2000A41FB51F2191222321F033E0E935F307FC
:100A300099F621E030914C03381320E020934903CC
:100A400008954F925F926F927F928F929F92AF9292
:100A5000BF92CF92DF92EF92FF920F931F93CF93AB
:100A6000DF93EC017A018B01922E4115510561054E
:100A7000710529F460E046E151E0D8DC55C0CB01B6
:100A8000BA0120E432E44FE050E052D7422E552420
:100A900066247724C301B20120EC3DEB40EF5FEF09
:100AA000D2D66E0D7F1D801F911F40E1A42E47E21C
:100AB000B42EC12CD12CA60195013AD7822EC801A3
:100AC000B701A601950134D75B016C01992059F05B
:100AD0001E141F04100611061CF48EE091E00DC0D8
:100AE00080E191E00AC01E141F04100611061CF4D8
:100AF00082E191E002C084E191E07C01CE0160E0FE
:100B0000A301920102E211E0B1DC682F282D30E050
:100B100040E050E0CE0104E211E0A8DC682FCE01F5
:100B2000A60195018701A2DCDF91CF911F910F9162
:100B3000FF90EF90DF90CF90BF90AF909F908F90FD
:100B40007F906F905F904F900895DF93CF93CDB7D4
:100B5000DEB76D970FB6F894DEBF0FBECDBF30E1A4
:100B60003BB988E08AB929988CE084B983E0809306
:100B7000690021E02DBB80E880BF10927B001EBC85
:100B80008DB58E7F8DBD84E58CBDE0915701F0E081
:100B9000EE0FFF1FEE5BFE4F8081918190935A0113
:100BA0008093590110927E0080917C008064809334
:100BB0007C0080917A00866080937A0010927B009E
:100BC0003093C1008091C10084608093C100209364
:100BD000C50087E38093C400789448DB09DC8091EA
:100BE000C00087FF76C00091C60090914A019F3FE8
:100BF00021F4043209F06DC010C0043271F00532E6
:100C000030F40A3049F10D3009F050C025C00A32E5
:100C100099F00C3209F04AC00AC010924A031092AF
:100C20004B0310924C0310924A010BDB52C080918F
:100C30004C03802780934C03DCDD03DB10924A03D6
:100C400080914A018F5F80934A010A3209F041C0C6
:100C500088EC80934A013DC0CCDD8FEF80934A0140
:100C6000809149038823A9F1A8E5B3E0E1E3F3E02B
:100C700089E101900D928150E1F781E08093710349
:100C8000A5E7B3E0E2E7F3E083E001900D92815045
:100C9000E1F7809178038823E1F4809168039091D3
:100CA00069038A309105A8F0D4DA13C080914A0311
:100CB000E82FF0E0E35BFC4F0083983C29F0909133
:100CC0004C03902790934C038A3018F48F5F8093E5
:100CD0004A034C990EC081E080932F03809130032A
:100CE0008B3078F05B9A80914903882351F0B1DA18
:100CF00008C080912F0381115B9810922F031092EE
:100D0000300380915801823009F053C0109258018D
:100D10004091570120E030E0CC24DD24842F90E086
:100D20008C01A5E0000F111FAA95E1F7080F191F0C
:100D3000055A1E4F81E2489F50011124FCE7EF2E17
:100D4000F1E0FF2EAE0CBF1C780189012AC0D4014E
:100D50008D914D018032A1F0882391F090E0E3E085
:100D6000880F991FEA95E1F78C0D9D1D80509140E9
:100D7000B1E0883D9B0720F4805090401DD601C013
:100D800080E0F30181933F018A149B0401F70894EA
:100D9000C11CD11C0F5D1F4FF1E008301F0709F483
:100DA0001ECF47017FED672E71E0772E600E711E1A
:100DB000CECF80915801813009F011CF10925801A7
:100DC00080912F03882329F0809130038F5F8093D7
:100DD000300380918303882309F057C280913F0339
:100DE000882311F05B9A04C08BB198E089278BB9F6
:100DF00080917803882309F4B8C1E0905803F090FB
:100E0000590300915A0310915B03A0907903B090AD
:100E10007A03C0907B03D0907C03C601B5016E0DB0
:100E20007F1D801F911F97FF07C09095809570953B
:100E300061957F4F8F4F9F4F20E834E84EE150E09F
:100E400055D5C901865A9F4F3FD98E87C801B70132
:100E500057D91B012C01C601B50152D93B014C01E8
:100E600060915C0370915D0380915E0390915F03DC
:100E700047D97B018C0160917D0370917E03809145
:100E80007F03909180033CD99B01AC012E193F094F
:100E9000400B510B6218730884089508CE846C2DA2
:100EA000772767FD7095872F972FCDD424E630E004
:100EB00040E050E03DD519012A0162E0E62EF12C18
:100EC000012D112DCC24C3940FC0C201B101A80182
:100ED00097012ED519012A01C401B301A801970178
:100EE00027D539014A01CC0CA201910157FE07C058
:100EF00022273327A90122193309440955092F3F15
:100F00006FEF360760E0460760E05607F0F6D40161
:100F1000C30197FE07C088279927DC018619970926
:100F2000A809B9098F3FEFEF9E07E0E0AE07E0E0C8
:100F3000BE0758F6C88A2E8B3F8B488F598F8A8FF1
:100F40009B8FAC8FBD8FC201B101A20191017BD4F7
:100F50005B016C01C401B301A401930174D4E1E00D
:100F60000FC052E0D694C794B794A7945A95D1F77E
:100F700042E096958795779567954A95D1F7EE0F5C
:100F8000E92EFF24002711272D2D3327442755272D
:100F9000E20EF31E041F151F2FEFE216F1040105E8
:100FA000110509F0F0F6E98B9B01AC012A0D3B1D00
:100FB0004C1D5D1D2A8B3B8B4C8B5D8B59016A014F
:100FC000D694C794B794A794A114B104C104D104D2
:100FD00051F11F861E8602C0570168016A897B890C
:100FE0008C899D89A601950181D479018A01EA0C39
:100FF000FB1C0C1D1D1D16950795F794E794AE1864
:10100000BF08C00AD10A32E0A316B104C104D1045A
:1010100070F04E855F854F5F5F4F5F874E874A3127
:101020005105D1F604C0EA88FB880C891D896989BD
:10103000262F30E040E050E0C801B70104D45B0146
:101040006C01611571058105910509F467C08E89F0
:101050009F89A88DB98D2A8D3B8D4C8D5D8D821712
:101060009307A407B507C0F0CA01B90124E630E030
:1010700040E050E0E8D3A601950138D4E22E00E02C
:1010800010E002C00F5F1F4FC8011ED8E8161CF108
:101090000A351105B9F71FC06E897F89888D998D32
:1010A00024E630E040E050E0CED3A60195011ED406
:1010B000022FEE24FF2403C00894E11CF11CC70199
:1010C00003D8081724F03AE5E316F104A9F70AE576
:1010D00010E00E191F09611471048104910429F4B0
:1010E00057FC1FC08AE590E01EC0161417041804B0
:1010F00019044CF457FC03C08AE590E00CC0C80109
:10110000825F9E4F10C057FC04C0C801865A9F4F93
:101110000AC08EE091E0801B910B05C080E090E05A
:1011200002C08EE091E09093890380938803C6010A
:10113000B50125E331E040E050E085D328EE33E00F
:1011400040E050E0D3D379018A016889262F30E04E
:1011500040E050E0C801B70176D3609384037093F8
:1011600085038093860390938703BAE88B2EB3E0C0
:101170009B2EABE46A2EA1E07A2EFFE42F2EF1E045
:101180003F2EE2E9CE2EE3E0DE2EAA2486018091F6
:101190007C00807F80937C0080917C008A298093F2
:1011A0007C0080917A00806A80937A0080917A0036
:1011B000806480937A0080917A0084FFFCCF8091D4
:1011C0007A00806180937A0080917A008F75809395
:1011D0007A006091780070917900D4016D937D93CD
:1011E0004D0180E090E026E331E040E050E02BD379
:1011F0002AE030E040E050E079D369017A01F30160
:1012000021913F0130E040E050E0C701B6011BD31F
:10121000D1012D911D0130E040E050E067D369011C
:101220007A017AE0F694E794D794C7947A95D1F747
:10123000CA8ADB8AEC8AFD8A8C2D90E0982F882759
:10124000990F990FA0E0B0E069017A01C81AD90A94
:10125000EA0AFB0AC701B60124E630E040E050E0AC
:10126000F2D22AE096958795779567952A95D1F7DA
:10127000D8016C93EA891196EC931197A3940E5FB1
:101280001F4FFA2DF43009F082CF809183038F5FD6
:101290008093830380918303823338F01092830319
:1012A000809172038F5F80937203809172038C33FD
:1012B00038F010927203809173038F5F80937303F1
:1012C000809173038C3338F0109273038091740310
:1012D0008F5F8093740380917403833610F01092B3
:1012E0007403C4D7EE2411E2A12EB4E62B2EA4E69B
:1012F0008A2E912CFDE56F2EF1E07F2EE0E3CE2EBD
:10130000EE2009F077C0809174038A3020F4C092F7
:101310005B0161E001C060E02091740330E040E0D7
:1013200050E08BE591E002E211E0A0D8682F8091B7
:1013300073038A3030F4E62FF0E0E55AFE4FC082A6
:101340006F5F2091730330E040E050E08BE591E067
:1013500002E211E08BD8682F809172038A3030F45A
:10136000E62FF0E0E55AFE4FC0826F5F20917203D6
:1013700030E040E050E08BE591E094D7682F6F5F5C
:101380008BE591E040E081D8682F6F5F8BE591E0BD
:1013900041E07BD8E82FEF5F80919703222D829F59
:1013A000C001112420919603820F911D31E0863DEA
:1013B000930780F48937910580F09C0128573040CD
:1013C000289DC001299D900D389D900D1124B301D9
:1013D00066D205C064E670E002C060E070E0262FCF
:1013E00030E040E050E08BE591E06E2F05E311E046
:1013F0003DD897C04E2D413049F52091840330915E
:10140000850340918603509187038CE791E060E06B
:1014100007E311E02BD8682F6F5F2091880330918C
:10142000890340E050E08CE791E009E311E01ED829
:10143000682F6F5F80917803882319F046E251E0AE
:1014400002C04CE251E08CE791E06AC05E2D523060
:1014500001F5409158035091590360915A037091DE
:101460005B038DE991E021E0ECDA40915C0350915F
:101470005D0360915E0370915F03CE01019620E0F1
:10148000E0DA6A2D681B8DE991E0AE014F5F5F4F96
:1014900047C0209160033091610380918103909156
:1014A0008203281B390B442737FD4095542F8EEBC0
:1014B00091E060E007E311E0D9D7682F6F5F2091DA
:1014C00068033091690340E050E08EEB91E00DE35A
:1014D00011E0CCD7682F6F5F20916A0330916B03C6
:1014E00040E050E08EEB91E009E311E0BFD7682FB8
:1014F0006F5F2091670330E040E050E08EEB91E0B9
:1015000000E111E0B3D7682F6F5F809166038823F5
:1015100019F04DE251E002C041E351E08EEB91E061
:1015200085D7E3946E2D643009F0EACE61D700913F
:1015300088031091890380916A0390916B03081BC3
:10154000190B8BE02FD88091840390918503A09193
:101550008603B09187038A309105A105B10518F47F
:1015600082E020D83CCBC801865A9F4FADD5E82EEB
:10157000C801AAD5E82F4E2D552747FD509573E099
:10158000440F551F7A95E1F724E630E0CA01B9010E
:101590009AD17B018E2F992787FD909563E0880F64
:1015A000991F6A95E1F7B9018ED14B016E2D5BE071
:1015B000A52EA80C8BE0C82ECE18655F88194A2D81
:1015C0002C2D74D802E010E0C701B8017CD17095D1
:1015D00061957F4F462F455FC401B80174D1709566
:1015E00061957F4F262F255F8A2D6C2D5FD8C7010F
:1015F000B80169D1462F455FC401B80164D1262FD7
:10160000255F8A2D6C2D52D8EACA1F920F920FB611
:101610000F9211242F933F938F939F93AF93BF9378
:10162000EF93FF9388E28A95F1F74A99F4C080918D
:10163000540190915501009709F487C0809156019B
:10164000813021F0823009F080C051C0A091570153
:1016500098E19A95F1F78091540190915501B0E08D
:10166000FD0125E0EE0FFF1F2A95E1F7EA0FFB1FB2
:10167000E55AFE4FAA0FBB1FAE5BBE4F2D913C91AA
:10168000821B930B96958795A1E28A9FD001112426
:10169000A152BE4F81E29191903221F0992311F035
:1016A000219A01C021989D919EBD0000000000007C
:1016B000000000000000000000000000000000002A
:1016C000000000000000000000000000000000001A
:1016D000815009F700000000000000000000000039
:1016E00000000000000000001EBC21982EC08FE109
:1016F00091E00197F1F700C00000E0915401F091F2
:101700005501E258FD4F83E090819EBD219A000073
:1017100000000000000000000000000000000000C9
:1017200000000000000000000000000000000000B9
:1017300000000000000000000000000081507896CA
:10174000882311F7219800001EBC10925601809149
:101750005401909155010196909355018093540145
:1017600080915401909155018436910521F481E0D6
:10177000809358015BC020915401309155018091B4
:10178000590190915A012817390770F0209154019E
:10179000309155018091590190915A014096281736
:1017A000390710F481E034C0209154013091550183
:1017B0008091590190915A01409628173907C9F430
:1017C00082E0809358018091570190E001968370E8
:1017D000907080935701E0915701F0E0EE0FFF1FEA
:1017E000EE5BFE4F8081918190935A018093590165
:1017F0001DC0809154019091550189369105B0F03A
:1018000080915401909155018138910578F482E0DE
:10181000809356010BC08091540190915501893CF1
:10182000910520F01092550110925401FF91EF9113
:10183000BF91AF919F918F913F912F910F900FBECC
:101840000F901F901895629FD001739FF001829FA7
:10185000E00DF11D649FE00DF11D929FF00D839F3F
:10186000F00D749FF00D659FF00D9927729FB00DDC
:10187000E11DF91F639FB00DE11DF91FBD01CF01EF
:101880001124089587FB082E062687FD819567FDA4
:10189000619569D00EF4919507FC81950895AA1B76
:1018A000BB1B51E107C0AA1FBB1FA617B70710F04B
:1018B000A61BB70B881F991F5A95A9F7809590957D
:1018C000BC01CD01089597FB092E07260AD077FDAC
:1018D00004D0E5DF06D000201AF4709561957F4FA3
:1018E0000895F6F7909581959F4F0895A1E21A2EDD
:1018F000AA1BBB1BFD010DC0AA1FBB1FEE1FFF1FB4
:10190000A217B307E407F50720F0A21BB30BE40B03
:10191000F50B661F771F881F991F1A9469F760954A
:101920007095809590959B01AC01BD01CF01089504
:1019300097FB092E05260ED057FD04D0D7DF0AD01D
:10194000001C38F450954095309521953F4F4F4FEE
:101950005F4F0895F6F790958095709561957F4F4C
:101960008F4F9F4F0895991B79E004C0991F9617D8
:1019700008F0961B881F7A95C9F780950895FB019A
:10198000DC014150504030F08D910190801919F4E4
:101990000020B9F7881B990B0895FB01DC01415029
:1019A000504048F001900D920020C9F701C01D92EF
:1019B00041505040E0F70895F999FECF92BD81BDA6
:0C19C000F89A992780B50895F894FFCF9D
:1019CC0056004750474741004750524D43004E0088
:1019DC005300450057002D2D3A2D2D2E2D2D2D2D3C
:1019EC003F003A002E00482D5345540000464958FC
:1019FC00004241440025004D00444547004B4D2F0B
:101A0C00480033004C00F0000901FF010101010105
:041A1C0001010100C3
:00000001FF
