:1000000047C018C960C05FC05EC05DC05CC05BC057
:100010005AC059C058C057C056C055C054C053C02C
:1000200052C051C050C04FC04EC04DC04CC04BC05C
:100030004AC049C00002030507090A0C0E1011133B
:100040001516181A1C1D1F2122242527292A2C2D9C
:100050002F303234353638393B3C3E3F4042434402
:10006000454748494A4B4D4E4F50515253545556AF
:10007000575758595A5B5B5C5D5D5E5F5F606061BE
:1000800061616262626363636364646464646400A4
:1000900011241FBECFEFD4E0DEBFCDBF11E0A0E042
:1000A000B1E0E8EBF5E102C005900D92AE33B10787
:1000B000D9F713E0AEE3B1E001C01D92A13EB10754
:1000C000E1F782D377CA9CCF68E671E0EAD9843B36
:1000D000910520F0845B90404FEF01C041E08A35EC
:1000E000910530F024EB30E0B901681B790BCB01AE
:1000F000FC01EC5CFF4F8491849F802D11240895B6
:100100006F927F928F929F92AF92BF92CF92DF9227
:10011000EF92FF920F931F93DF93CF930F92CDB780
:10012000DEB77B018C0197FF0BC010950095F09412
:10013000E094E11CF11C011D111D8FEF898302C0A9
:10014000E1E0E983C801B70120E432E44FE050E088
:10015000F1D9A22E622F70E080E090E020EC3DEB20
:1001600040EF5FEF66D96E0D7F1D801F911F20E16C
:10017000622E27E2722E812C912CA4019301DAD9F0
:100180006CE3FA2DF69F50011124B501882777FD05
:100190008095982F620F711D811D911D20E737E119
:1001A00040E050E046D95B016C01C801B701A401F1
:1001B0009301C0D94CE350E0649F9001659F300DDE
:1001C000749F300D1124C90164E670E07ED9882740
:1001D00077FD8095982FA60EB71EC81ED91E89815F
:1001E0008F3F41F4D094C094B094A094A11CB11C52
:1001F000C11CD11CC601B5010F90CF91DF911F9199
:100200000F91FF90EF90DF90CF90BF90AF909F90B5
:100210008F907F906F900895E6ECF3E0119283E069
:10022000E13DF807D9F70895FF920F931F9301E07E
:100230008091C6038D3209F000E0102F20E030E0FD
:10024000A90114C0CA01B9012AE030E040E050E041
:10025000F0D82F2D30E020533040442737FD409513
:10026000542F260F371F481F591F1F5FE12FF0E043
:10027000EA53FC4FF0808F2D80538A3010F41B30EE
:1002800008F3002321F06FEF7FEFCB0104C061E0A2
:1002900070E080E090E0CDD81F910F91FF9008951D
:1002A000FF920F931F9301E08091C6038D3209F0F6
:1002B00000E0102F20E030E0A901E12FF0E0EA5348
:1002C000FC4FF0808F2D80538A3028F5CA01B90188
:1002D0002AE030E040E050E0ACD82F2D30E0205351
:1002E0003040442737FD4095542F260F371F481FB5
:1002F000591F1F5F1B3008F3002321F06FEF7FEFC2
:10030000CB0104C061E070E080E090E092D81F91E2
:100310000F91FF9008958F2D8E3259F3EDCFE5E6C2
:10032000F3E0119283E0E538F807D9F708952F92AA
:100330003F924F925F926F927F928F929F92AF9275
:10034000BF92CF92DF92EF92FF920F931F93DF93B2
:10035000CF930F92CDB7DEB7C82E7A018B019A01E9
:10036000AB01DD24D3946AE0862E912CA12CB12C14
:1003700006C0CA01B901A5019401DCD8D3942A3082
:10038000310541055105ACF72C2D30E0C9018D0D2B
:10039000911D803291050CF054C045E6242E43E0B7
:1003A000342E220E331E17FF0BC010950095F094CB
:1003B000E094E11CF11C011D111D6FEF698301C068
:1003C0001982510141013AE0432E512C612C712CCC
:1003D000C801B701A3019201ADD8605DD4016D934E
:1003E0004D018A2F821979018A011216130614060B
:1003F000150674F3B981BF3F49F4E82FFF27E7FDE5
:10040000F095E20DF31D9DE290838F5FE82FFF27AB
:10041000E7FDF095E20DF31D10828150E82FF0E02A
:100420003196E20DF31D90E007C0D5012C91329179
:100430003D935D0120839F5F9817B8F38D2D8C0D40
:1004400001C080E20F90CF91DF911F910F91FF903B
:10045000EF90DF90CF90BF90AF909F908F907F9064
:100460006F905F904F903F902F90089523E533E079
:1004700080E090E00BC01192E217F307E1F70196DC
:100480009F01205F3F4F8230910549F0FC0174E0ED
:10049000EE0FFF1F7A95E1F7ED5BFC4FECCF08956F
:1004A00080918603882301F586EC93E060E071E09B
:1004B00045E050E05AD8009731F481E080938603FC
:1004C00010923D01089586EC93E066E071E045E00E
:1004D00050E04BD8009709F00AC182E08093860370
:1004E00084E680933D01089580918503882309F473
:1004F000FEC080913D018536E9F18636D8F484301E
:1005000009F469C0853048F48230F1F1833008F095
:1005100045C0813009F0EBC02DC0863009F482C09F
:10052000863008F462C0873009F480C0893009F051
:10053000DEC080C08A3609F458C08B3648F488364D
:1005400069F1893608F047C0873609F0D0C01CC071
:100550008C3609F488C08C3608F472C08D3609F4E4
:1005600088C0883C09F0C3C0E6ECF3E080E090E08E
:10057000DC01AFC059DE60939203709393038093C4
:1005800094039093950308958BDE60938803709392
:10059000890380938A0390938B0308958091C60307
:1005A000833509F0A4C08091880390918903A091BC
:1005B0008A03B0918B03B095A095909581959F4F3C
:1005C000AF4FBF4F8093880390938903A0938A0312
:1005D000B0938B03089564DE60938C0370938D0356
:1005E00080938E0390938F0308958091C60387357F
:1005F00009F07DC080918C0390918D03A0918E03B2
:10060000B0918F03B095A095909581959F4FAF4F76
:10061000BF4F80938C0390938D03A0938E03B09370
:100620008F03089501DE609396030895FDDD6093C6
:1006300097030895F9DD70939103609390030895F3
:10064000F3DD4FEC51E0649F9001659F300D749F86
:10065000300D1124C9016AEF70E023D7709399031C
:10066000609398030895E0DD70939B0360939A0371
:100670000895DADD60939C0370939D0380939E033D
:1006800090939F03089534E0880F991FAA1FBB1F02
:100690003A95D1F7322F3154363020F430E02753D9
:1006A00030400FC0322F3156363020F430E027551D
:1006B000304007C0322F30533A3058F430E02053E6
:1006C0003040442737FD4095542F820F931FA41FBD
:1006D000B51F2191222321F033E0E23DF30799F683
:1006E00021E030918703381320E02093A003089580
:1006F0000F931F93182FFB0101900020E9F731970A
:100700000E2F061B282F30E0200F311D203231051F
:100710000CF000E2812F90E0402F50E08B599C4F6D
:1007200032D7802F810F1F910F910895CF93DF93C0
:10073000E901FDDDBE01DCDFDF91CF9108951F935C
:10074000E62FF0E0EE0FFF1FE852FC4F10814181D1
:1007500050E060E070E0EBDDE82FF0E0EB59FC4F9B
:100760009EE290838F5F1A3038F4E82FF0E0EB5967
:10077000FC4F90E390838F5F412F50E060E070E08A
:100780002CE031E0D3DF1F9108958031E0F4603137
:10079000D0F4E82FE695E695E695F0E08095877031
:1007A00021E030E002C0220F331F8A95E2F754E0C7
:1007B000EE0FFF1F5A95E1F7E60FF11DED5BFC4FC1
:1007C0008081822B80830895DF93CF93CDB7DEB7EE
:1007D00064970FB6F894DEBF0FBECDBF20E12BB9F2
:1007E00088E08AB929988CE084B983E08093690015
:1007F00091E09DBB80E880BF10927B001EBC8DB550
:100800008E7F8DBD84E58CBD10927E0080917C0032
:10081000816480937C0080917A00866A80937A005C
:1008200010927B002093C1008091C100846080936E
:10083000C1009093C50087E38093C40078946FDD76
:1008400015DE8091C00087FF70C01091C6009091A6
:100850003D019F3F21F4143209F067C010C01432EB
:1008600071F0153230F41A3041F11D3009F04AC0F0
:1008700024C01A3299F01C3209F044C00AC0109208
:100880008503109286031092870310923D01C4DC09
:100890004CC08091870381278093870301DEBCDCF5
:1008A0001092850380913D018F5F80933D011A3244
:1008B000E1F588EC80933D0138C0F2DD8FEF809345
:1008C0003D018091A003882381F18091A1038823B9
:1008D00061F4A2EAB3E0E8E8F3E08AE001900D9267
:1008E0008150E1F781E08093A103ACEAB3E0E8E84E
:1008F000F3E089E101900D928150E1F781E080936E
:10090000C50313C080918503E82FF0E0EA53FC4F44
:100910001083983C29F09091870391279093870347
:100920008A3018F48F5F809385034C9909C081E069
:1009300080936303809164038B3050F05B9A08C00E
:100940008091630381115B9810926303109264039A
:1009500080914201813009F074CF10924201809160
:100960006303882329F0809164038F5F809364037D
:100970008091D103882309F019C2809196038823BE
:1009800011F05B9A04C08BB198E089278BB98091F4
:10099000A103882309F4ACC16091AC037091AD034D
:1009A0008091AE039091AF032AE030E040E050E048
:1009B00040D57B018C0177FF03C0709561957F4F17
:1009C000882777FD8095982F20E432E44FE050E0AF
:1009D000B1D5C901865A9F4F77DB482EC801B701B0
:1009E0008FDB5B016C016091A2037091A303809186
:1009F000A4039091A5032AE030E040E050E019D52F
:100A00007FDB3B014C016091B0037091B103809199
:100A1000B2039091B3032AE030E040E050E009D502
:100A20006FDB7B018C016091A6037091A70380911D
:100A3000A8039091A9032AE030E040E050E0F9D407
:100A40005FDB9B01AC012E193F09400B510B6A186B
:100A50007B088C089D08642D772767FD7095872F8C
:100A6000972FE7D424E630E040E050E063D5590109
:100A70006A0161E009C0D594C794B794A79495948E
:100A8000879477946794660FA6019501D7FE07C0F7
:100A900022273327A9012A193B094C095D092F3F59
:100AA0007FEF370770E0470770E0570724F7D4015E
:100AB000C30197FE07C088279927DC01861997098B
:100AC000A809B9098F3FEFEF9E07E0E0AE07E0E02D
:100AD000BE078CF66A872D873E874F87588B898B98
:100AE0009A8BAB8BBC8BC401B301A4019301A1D43D
:100AF0006E837F8388879987C601B501A60195011A
:100B000098D42E803F8048845984260E371E481E74
:100B1000591E2E823F8248865986569447943794B0
:100B20002794211431044104510459F11C861B8679
:100B300002C0170128016E817F8188859985A201F5
:100B40009101D6D479018A01E20CF31C041D151D14
:100B500016950795F794E7942E183F082FEF221665
:100B60002FEF320624F032E02316310474F04B8567
:100B70005C854F5F5F4F5C874B874A315105C9F6F3
:100B800004C0EE80FF80088519857A85272F30E024
:100B900040E050E0C801B7014CD47B018C01609368
:100BA000D2037093D3038093D4039093D503109210
:100BB000D7031092D60316161706180619060CF05E
:100BC0007DC08D859E85AF85B88929883A884B88F8
:100BD0005C8882159305A405B505E4F0C201B10156
:100BE00024E630E040E050E024D4A8019701A2D4EC
:100BF000E22E00E010E002C00F5F1F4FC80164DA70
:100C0000E8161CF00A351105B8F31093D7030093CA
:100C1000D60321C06D857E858F85988924E630E0D6
:100C200040E050E006D4A801970184D4E22E0DE202
:100C300010E002C00F5F1F4FC80146DAE8161CF033
:100C40000A351105B8F38AE590E0801B910B90936B
:100C5000D7038093D603611471048104910461F475
:100C6000D7FC03C08AE590E002C08EE091E090934B
:100C7000D7038093D60322C016141704180419044E
:100C800064F48091D6039091D703D7FC03C02AE582
:100C900030E00EC0825F9E4FEACF8091D6039091E4
:100CA000D703D7FC03C0865A9F4FE1CF2EE031E037
:100CB000281B390B3093D7032093D6036091D203BE
:100CC0007091D3038091D4039091D50325E331E053
:100CD00040E050E0AED328EE33E040E050E02AD4CC
:100CE0002093D2033093D3034093D4035093D5037E
:100CF00008ED13E0EE24EAE0AE2EB12CC12CD12C8D
:100D000080917C00807F80937C0080917C00E394C4
:100D10008E2980937C0080917A00806480937A0091
:100D200080917A0084FFFCCF80917A00806180936B
:100D30007A00609178007091790080E090E026E37D
:100D400031E040E050E075D3A6019501D1D33901DF
:100D50004A017AE096948794779467947A95D1F7CC
:100D6000862D90E0982F8827990F990FA0E0B0E08A
:100D700019012A01281A390A4A0A5B0AC201B1017B
:100D800024E630E040E050E054D3BAE096958795F1
:100D900077956795BA95D1F7D8016C9311966C92B7
:100DA0000E5F1F4FBE2DB33009F0AACF8091D10343
:100DB0008F5F8093D1038091D103823338F01092FA
:100DC000D1038091DE038F5F8093DE038091DE0389
:100DD0008C3338F01092DE038091DF038F5F8093B5
:100DE000DF038091DF038C3338F01092DF038091B2
:100DF000E0038F5F8093E0038091E003833610F07F
:100E00001092E00366247724A6E04A2EF0E39F2E9A
:100E100086DA662009F069C08091E0038A3020F408
:100E20009092650381E001C080E04091E00350E0D2
:100E300060E070E02CE131E079DC9091DF039A30E2
:100E400030F4E82FF0E0EB59FC4F90828F5F409137
:100E5000DF0350E060E070E02CE131E067DC90916E
:100E6000DE039A3030F4E82FF0E0EB59FC4F90822B
:100E70008F5F4091DE0350E060E070E058DA8F5FF2
:100E800060E05DDC8F5F61E05ADCE82FEF5F20916E
:100E9000D903F4E62F9F900111248091D803280FE5
:100EA000311D41E0263D340790F42937310590F09B
:100EB00028573040A4E6B0E02A9FC0012B9F900D38
:100EC0003A9F900D11246DE571E0EBD205C064E608
:100ED00070E002C060E070E0462F50E060E070E03B
:100EE0008E2F2EE131E022DC34C08091DE03642DB0
:100EF000BFD29230A8F580E060E271E0F9DB40916A
:100F000088035091890360918A0370918B038F5FEE
:100F10000EDA40918C0350918D0360918E03709195
:100F20008F038F5F04DA40919003509191036627FD
:100F300057FD6095762F8F5F26E231E0F7DB409119
:100F4000970350E060E070E08F5FF1D968E271E0F4
:100F5000CFDBEE24FF24AA24BB24362C222482C01B
:100F60008091DE03642D84D2943028F580E06AE21B
:100F700071E0BEDB4091D2035091D3036091D40362
:100F80007091D5038F5F26E231E0D0DB4091D6032C
:100F90005091D70360E070E08F5F20E331E0C6DB63
:100FA0008F5F9091A103992319F06EE071E0D0CF8B
:100FB00063E171E0CDCF80E06AE271E099DB4091BE
:100FC00098035091990360E070E08F5F24E331E073
:100FD000ADDB40919A0350919B0360E070E08F5F1E
:100FE00020E331E0A3DB40919C0350919D0360918D
:100FF0009E0370919F038F5F9AD98F5F9091A0039A
:10100000992319F064E171E0A3CF68E171E0A0CF0A
:10101000F60181916F0190E073E0880F991F7A9536
:10102000E1F78A0D9B1D80509140F1E0883D9F07BC
:1010300020F480509040B6D201C080E0D8018D935A
:101040008D01B5E8CB16B3E0DB0611F70894A11CBF
:10105000B11CE0E2F0E0EE0EFF1EF0E0EF16F1E072
:10106000FF0651F065E6C62E63E0D62E8701020D1D
:10107000131D0D5B1E4FCCCF0894611C711C22E028
:101080006216710409F0C4CEF1D98AEF898381E038
:101090008A8382EF8B831C8287E08D836EE075DB11
:1010A00087E060E072DB8EE067E06FDB80E067E0A6
:1010B0006CDB17E04BC0898187FD0AC08D818150B0
:1010C0008D838B818E5F8B8399818B81890F89833F
:1010D0008C818F5F8C838A818E5F8A8399818A81DC
:1010E000890F89838C816D81695F895F4EDB8C817B
:1010F0006D81695F312F381B832F47DB8C819D8188
:10110000612F691B895F41DB8C819D81612F691B88
:10111000412F481B842F39DB8D816C81695F895F8A
:1011200034DB8D816C81695F512F581B852F2DDB3E
:101130008D819C81612F691B895F27DB8D819C815B
:10114000612F691B712F781B872F1FDB9C818D817D
:1011500098170CF4B0CFE090BE03F090BF038091DD
:10116000D6039091D703E81AF90AC701865A9F4F10
:10117000ABD7082F112707FD1095C701A5D79927D1
:1011800087FD909524E130E0B9019FD1E62FE95F1A
:10119000C801B9019AD117E0161B412F50E0475002
:1011A000504057FF03C0509541955F4F2E2F30E0C0
:1011B0002750304037FF03C0309521953F4FEE2434
:1011C000E3942417350724F0EE24812F1E2FE82FF7
:1011D000173028F04E2F012FE7E017E002C047E05C
:1011E00007E0C02EC11A242F30E02E1B310937FF33
:1011F00003C0309521953F4FA22E8C2D62E044D143
:10120000982E6E2EE41718F44424439402C044240C
:101210004A94EE2019F0862D612F02C0812F662D91
:10122000B4DA9A1897FE02C0640C9C0C1F5F011779
:1012300080F707CB1F920F920FB60F9211242F93B6
:101240003F938F939F93AF93BF93EF93FF9328E2C6
:101250002A95F1F74A99D5C080913E0190913F01BE
:10126000009709F47DC080914001813021F08230E7
:1012700009F076C04BC08091410190E29A95F1F758
:10128000E0913E01F0913F0190E0DC01AA0FBB1F0D
:10129000A75CBE4F2D913C911197E21BF30BF69585
:1012A000E795219AF0E035E0EE0FFF1F3A95E1F760
:1012B000982F8827E80FF91FED5BFE4F80E2919190
:1012C0009EBD0000000000000000000000000000C3
:1012D000000000000000000000000000000000000E
:1012E00000000000000000000000000000000000FE
:1012F0000000000000000000815009F0E0CF000075
:101300000000000000001EBC21982AC020ED2A9594
:10131000F1F7E0913E01F0913F01E454FD4F82E08E
:1013200090819EBD219A0000000000000000000096
:1013300000000000000000000000000000000000AD
:10134000000000000000000000000000000000009D
:101350000000000081507096882311F721981EBC70
:101360001092400180913E0190913F01019690932F
:101370003F0180933E0180913E0190913F01873A69
:10138000910521F481E08093420146C080913E01A5
:1013900090913F018738910538F080913E019091FE
:1013A0003F018739910548F180913E0190913F01BD
:1013B0008233910560F080913E0190913F0182342B
:1013C000910528F481E080934001109241018091C1
:1013D0003E0190913F018F3F9105F1F0E8F080913F
:1013E0003E0190913F0121E080319207A8F481E015
:1013F00080934001809341010FC082E080934001BF
:101400000BC080913E0190913F01893C910520F0F5
:1014100010923F0110923E01FF91EF91BF91AF9169
:101420009F918F913F912F910F900FBE0F901F9022
:101430001895629FD001739FF001829FE00DF11D0E
:10144000649FE00DF11D929FF00D839FF00D749F3E
:10145000F00D659FF00D9927729FB00DE11DF91FEA
:10146000639FB00DE11DF91FBD01CF011124089547
:10147000991B79E004C0991F961708F0961B881FE6
:101480007A95C9F78095089587FB082E062687FD73
:10149000819567FD6195ECDF0EF4919507FC8195D0
:1014A0000895AA1BBB1B51E107C0AA1FBB1FA617AB
:1014B000B70710F0A61BB70B881F991F5A95A9F7FD
:1014C00080959095BC01CD01089597FB092E0726C4
:1014D0000AD077FD04D0E5DF06D000201AF470951D
:1014E00061957F4F0895F6F7909581959F4F0895E8
:1014F000A1E21A2EAA1BBB1BFD010DC0AA1FBB1F18
:10150000EE1FFF1FA217B307E407F50720F0A21B89
:10151000B30BE40BF50B661F771F881F991F1A94F6
:1015200069F760957095809590959B01AC01BD0120
:10153000CF01089597FB092E05260ED057FD04D044
:10154000D7DF0AD0001C38F450954095309521958E
:101550003F4F4F4F5F4F0895F6F7909580957095E8
:1015600061957F4F8F4F9F4F0895FB01DC014150E4
:10157000504030F08D910190801919F40020B9F796
:10158000881B990B0895FB01DC014150504048F045
:1015900001900D920020C9F701C01D9241505040AA
:1015A000E0F70895F999FECF92BD81BDF89A992789
:0815B00080B50895F894FFCF07
:1015B8004750474741004750524D43005600484F57
:1015C8004D45000046495800424144003A00250074
:1015D800475053313A004D005300475053323A00B8
:0E15E800444547004B4D2F480032000001FFE4
:00000001FF
