:1000000047C006CA60C05FC05EC05DC05CC05BC068
:100010005AC059C058C057C056C055C054C053C02C
:1000200052C051C050C04FC04EC04DC04CC04BC05C
:100030004AC049C00002030507090A0C0E1011133B
:100040001516181A1C1D1F2122242527292A2C2D9C
:100050002F303234353638393B3C3E3F4042434402
:10006000454748494A4B4D4E4F50515253545556AF
:10007000575758595A5B5B5C5D5D5E5F5F606061BE
:1000800061616262626363636364646464646400A4
:1000900011241FBECFEFD4E0DEBFCDBF11E0A0E042
:1000A000B1E0E2ECF7E102C005900D92A833B10790
:1000B000D9F713E0A8E3B1E001C01D92A937B10759
:1000C000E1F7D8D37CCB9CCF68E671E0E3DA843BE0
:1000D000910520F0845B90404FEF01C041E08A35EC
:1000E000910530F024EB30E0B901681B790BCB01AE
:1000F000FC01EC5CFF4F8491849F802D11240895B6
:100100002F923F924F925F926F927F928F929F9227
:10011000AF92BF92CF92DF92EF92FF920F931F9315
:10012000DF93CF9300D000D00F92CDB7DEB77B0125
:100130008C0197FF0BC010950095F094E094E11CA2
:10014000F11C011D111D8FEF898302C0E1E0E983DD
:10015000C801B70120E432E44FE050E0E4DAA22E17
:10016000BB24CC24DD2480E1682E87E2782E812C0C
:10017000912CC801B701A4019301D5DA6A837B836E
:100180008C839D83C601B5012CE330E040E050E054
:1001900055DA1B012C01C601B50120EC3DEB40EF07
:1001A0005FEF4CDA6E0D7F1D801F911FA40193013C
:1001B000BADA220E311C411C511C6A817B818C8170
:1001C0009D812CE330E040E050E038DA5B016C01C7
:1001D000C201B10120E737E140E050E02FDA7B01B6
:1001E0008C01C601B50124E630E040E050E079DA48
:1001F000E20EF31E041F151FF981FF3F41F4109515
:100200000095F094E094E11CF11C011D111DC80142
:10021000B7010F900F900F900F900F90CF91DF913B
:100220001F910F91FF90EF90DF90CF90BF90AF9014
:100230009F908F907F906F905F904F903F902F9006
:100240000895E0E3F3E0119283E0EB33F807D9F788
:100250000895A0E6B3E0E4E1F3E08AE001900D92B6
:100260008150E1F781E080935B0308952FE531E051
:1002700080E090E00BC01192E217F307E1F70196DE
:100280009F012F5D3F4F8430910559F0FC0145E0FF
:10029000EE0FFF1F4A95E1F7E80FF91FE25CFE4FF2
:1002A000EACF08952F923F924F925F926F927F9282
:1002B0008F929F92BF92CF92DF92EF92FF920F9315
:1002C0001F93CF93DF93C82EB62E79018A01DD24C8
:1002D000D3946AE0662E712C812C912C06C0CA0141
:1002E000B901A40193011FDAD3942A3031054105E5
:1002F0005105ACF78B2D90E09C012D0D311D213265
:1003000031050CF057C021E23C2D329FE001112451
:10031000C80FD91FC25CDE4F17FF0BC010950095A8
:10032000F094E094E11CF11C011D111DCC24CA9431
:1003300001C0CC244E013E015AE0252E312C412C27
:10034000512CC801B701A2019101EDD9605DD30123
:100350006D933D018A2F8C1B79018A0112161306B9
:100360001406150674F3FC2DFF3F49F4E82FFF2710
:10037000E7FDF095EC0FFD1F9DE290838F5FE82F66
:10038000FF27E7FDF095EC0FFD1F10828150E82F4D
:10039000F0E03196EC0FFD1F90E007C0D4012C91E6
:1003A00032913D934D0120839F5F9817B8F38D2DB7
:1003B0008B0D01C081E2DF91CF911F910F91FF90D2
:1003C000EF90DF90CF90BF909F908F907F906F9035
:1003D0005F904F903F902F90089522EE32E080E0A2
:1003E00090E00BC01192E217F307E1F701969F012D
:1003F000285E3F4F8330910569F0FC01EE0FFF1F2F
:10040000E80FF91F73E0EE0FFF1F7A95E1F7E6534F
:10041000FD4FE8CF08950F931F93062FFA01DA01DD
:100420000D900020E9F711971A2F141B462F50E06A
:10043000410F511D413251050CF011E221E2829F22
:1004400090011124200F311D412F50E0C901825C21
:100450009E4FBF019DD9812F800F1F910F9108954D
:10046000FF920F931F93F82E1DDF682F8F2DA80189
:10047000D2DF1F910F91FF9008950F931F93182FB4
:10048000E42FF0E0EE0FFF1FED58FC4F00812181BB
:1004900030E040E050E006DF212F30E0F901B5E028
:1004A000EE0FFF1FBA95E1F7E20FF31FDF01A80F70
:1004B000B11DA25CBE4F9EE29C93682F6F5F0A3015
:1004C00038F4E60FF11DE25CFE4F80E380836F5F3E
:1004D000202F30E040E050E0812F00E011E0C0DF4D
:1004E0001F910F910895FF920F931F9301E0809148
:1004F00030038D3209F000E0102F20E030E0A90138
:10050000E12FF0E0E05DFC4FF0808F2D80538A30CA
:1005100028F5CA01B9012AE030E040E050E08ED869
:100520002F2D30E020533040442737FD4095542F85
:10053000260F371F481F591F1F5F1B3008F300236A
:1005400021F06FEF7FEFCB0104C061E070E080E04D
:1005500090E074D81F910F91FF9008958F2D8E32E7
:1005600059F3EDCFFF920F931F9301E08091300379
:100570008D3209F000E0102F20E030E0A90114C016
:10058000CA01B9012AE030E040E050E057D82F2DF1
:1005900030E020533040442737FD4095542F260F3C
:1005A000371F481F591F1F5FE12FF0E0E05DFC4F30
:1005B000F0808F2D80538A3010F41B3008F3002315
:1005C00021F06FEF7FEFCB0104C061E070E080E0CD
:1005D00090E034D81F910F91FF90089580912E03E1
:1005E000882301F580E393E062E071E045E050E0AC
:1005F000C1D8009731F481E080932E031092360128
:10060000089580E393E068E071E045E050E0B2D8FF
:10061000009709F00AC182E080932E0384E680935C
:100620003601089580912D03882309F4FEC080913E
:1006300036018536E9F18636D8F4843009F469C08C
:10064000853048F48230F1F1833008F045C08130C4
:1006500009F0EBC02DC0863009F482C0863008F462
:1006600062C0873009F480C0893009F0DEC080C0E4
:100670008A3609F458C08B3648F4883669F18936D1
:1006800008F047C0873609F0D0C01CC08C3609F48A
:1006900088C08C3608F472C08D3609F488C0883C56
:1006A00009F0C3C0E0E3F3E080E090E0DC01AFC01C
:1006B00059DF60931E0370931F0380932003909370
:1006C0002103089510DF6093140370931503809342
:1006D000160390931703089580913003833509F032
:1006E000A4C08091140390911503A0911603B091BA
:1006F0001703B095A095909581959F4FAF4FBF4F31
:100700008093140390931503A0931603B0931703DB
:100710000895E9DE609318037093190380931A0318
:1007200090931B03089580913003873509F07DC0B5
:100730008091180390911903A0911A03B0911B03A3
:10074000B095A095909581959F4FAF4FBF4F8093E7
:10075000180390931903A0931A03B0931B030895F1
:1007600001DF609322030895FDDE60932303089563
:10077000F9DE70931D0360931C030895F3DE4FECC4
:1007800051E0649F9001659F300D749F300D1124DE
:10079000C9016AEF70E07ED770932503609324034C
:1007A0000895E0DE70932703609326030895DADE50
:1007B000609328037093290380932A0390932B035B
:1007C000089534E0880F991FAA1FBB1F3A95D1F7EF
:1007D000322F3154363020F430E0275330400FC0F0
:1007E000322F3156363020F430E02755304007C0E4
:1007F000322F30533A3058F430E020533040442701
:1008000037FD4095542F820F931FA41FB51F2191D0
:10081000222321F033E0EC33F30799F621E0309105
:100820002F03381320E020932C030895883108F516
:100830006831F8F4482F46954695469550E08095E6
:10084000877021E030E002C0220F331F8A95E2F763
:10085000FA01EE0FFF1FE40FF51F43E0EE0FFF1F3D
:100860004A95E1F7E60FF11DE653FD4F8081822B9B
:1008700080830895DF93CF93CDB7DEB765970FB62A
:10088000F894DEBF0FBECDBF20E12BB988E08AB956
:1008900029988CE084B983E08093690091E09DBB46
:1008A00080E880BF10927B001EBC8DB58E7F8DBD11
:1008B00084E58CBDE0913B01F0E0EE0FFF1FE25DAF
:1008C000FE4F808180933D0110927E0080917C00DC
:1008D000816480937C0080917A00866A80937A009C
:1008E00010927B002093C1008091C10084608093AE
:1008F000C1009093C50087E38093C4007894B6DC70
:100900006CDD8091C00087FF92C01091C60090916D
:1009100036019F3F21F4143209F089C010C014320F
:1009200071F0153230F41A3049F11D3009F06CC005
:1009300025C01A3299F01C3209F066C00AC0109224
:100940002D0310922E0310922F031092360179DCA2
:100950006EC080912F03812780932F033FDE71DCCF
:1009600010922D03809136018F5F809336011A32E9
:1009700009F05DC088EC8093360159C02FDE8FEFFF
:100980008093360180912C03882309F450C0ABE397
:10099000B3E0E4E1F3E089E101900D928150E1F7E9
:1009A00081E080935403A8E5B3E0E5E5F3E083E05C
:1009B00001900D928150E1F720915B0380914B03F0
:1009C00090914C03222329F48A30910580F141DC77
:1009D0002EC020915C0330915D032817390720F465
:1009E00090935D0380935C03809143039091440353
:1009F00020915E0330915F0328173907C0F490936C
:100A00005F0380935E0313C080912D03E82FF0E015
:100A1000E05DFC4F1083983C29F090912F039127C3
:100A200090932F038A3018F48F5F80932D034C9995
:100A30000EC081E080931203809113038B3078F015
:100A40005B9A80912C03882351F003DC08C08091CD
:100A5000120381115B98109212031092130380917C
:100A60003C01823009F053C010923C0140913B019F
:100A700020E030E0CC24DD24842F90E08C0175E070
:100A8000000F111F7A95E1F7080F191F025C1E4F26
:100A900081E2489F500111246FE5262E61E0362E39
:100AA000A20CB31C780189012AC0D3018D913D01AC
:100AB0008032A1F0882391F090E053E0880F991FD5
:100AC0005A95E1F78C0D9D1D80509140B1E0883D15
:100AD0009B0720F4805090406AD601C080E0F1016D
:100AE00081931F016A147B0401F70894C11CD11C77
:100AF0000F5D1F4FF1E008301F0709F402CF3701E7
:100B000042EC242E41E0342E200E311ECECF8091B7
:100B10003C01813009F0F5CE10923C018091120326
:100B2000882329F0809113038F5F809313038091B2
:100B30006A03882309F048C280912203882311F0B8
:100B40005B9A04C08BB198E089278BB980915B03D5
:100B5000882309F4DBC160913B0370913C038091D1
:100B60003D0390913E032AE030E040E050E066D53E
:100B70007B018C016091600370916103809162033D
:100B8000909163035BD55B016C016E0D7F1D801F2F
:100B9000911F97FF07C090958095709561957F4F45
:100BA0008F4F9F4F20E834E84EE150E09AD5C901BD
:100BB000865A9F4F89DA8E83C801B701A1DA1B01DB
:100BC0002C01C601B5019CDA3B014C0160913F0349
:100BD0007091400380914103909142032AE030E0FC
:100BE00040E050E02BD58CDA7B018C0160916403EE
:100BF0007091650380916603909167032AE030E06D
:100C000040E050E01BD57CDA9B01AC012E193F0976
:100C1000400B510B62187308840895082E80622DD2
:100C2000772767FD7095872F972F08D524E630E04A
:100C300040E050E078D519012A0132E0E32EF12C92
:100C4000012D112DCC24C3940FC0C201B101A80104
:100C5000970169D519012A01C401B301A8019701BF
:100C600062D539014A01CC0CA201910157FE07C09F
:100C700022273327A90122193309440955092F3F97
:100C80006FEF360760E0460760E05607F0F6D401E4
:100C9000C30197FE07C088279927DC0186199709A9
:100CA000A809B9098F3FEFEF9E07E0E0AE07E0E04B
:100CB000BE0758F6CE822E873F87488B598B8A8B8A
:100CC0009B8BAC8BBD8BC201B101A2019101B6D44B
:100CD0005B016C01C401B301A4019301AFD4E1E055
:100CE0000FC022E0D694C794B794A7942A95D1F761
:100CF00002E096958795779567950A95D1F7EE0F5F
:100D0000E92EFF24002711272D2D332744275527AF
:100D1000E20EF31E041F151F2FEFE216F10401056A
:100D2000110509F0F0F6EF839B01AC012A0D3B1D84
:100D30004C1D5D1D288739874A875B8759016A01E9
:100D4000D694C794B794A794A114B104C104D10454
:100D500051F11D861C8602C057016801688579859E
:100D60008A859B85A6019501BCD479018A01EA0C8C
:100D7000FB1C0C1D1D1D16950795F794E794AE18E6
:100D8000BF08C00AD10A32E0A316B104C104D104DD
:100D900070F04C855D854F5F5F4F5D874C874A31B2
:100DA0005105D1F604C0E884F9840A851B856F815A
:100DB000262F30E040E050E0C801B7013FD46B017E
:100DC0007C01611571058105910509F469C08E8565
:100DD0009F85A889B9892A893B894C895D898217B1
:100DE0009307A407B507D0F0CA01B90124E630E0A3
:100DF00040E050E023D4A701960173D4122F20E0E5
:100E000030E0A12E890102C00F5F1F4FC8015CD9DD
:100E1000A81614F10A351105B9F71EC06E857F8535
:100E20008889998924E630E040E050E007D4A701A2
:100E3000960157D4A22E00E010E002C00F5F1F4FB2
:100E4000C80142D9A8161CF00A351105B9F72AE5E0
:100E500030E0201B310B01C0980161147104810442
:100E6000910429F457FC1FC00AE510E01EC01614B7
:100E70001704180419044CF457FC03C00AE510E0E9
:100E80000CC08901025F1E4F10C057FC04C08901CD
:100E9000065A1F4F0AC00EE011E0021B130B05C0DB
:100EA00000E010E002C00EE011E0C701B60125E34A
:100EB00031E040E050E0C2D328EE33E040E050E0C3
:100EC00010D469017A016E81262F30E040E050E0B5
:100ED000C701B601B3D360936B0370936C03809327
:100EE0006D0390936E031093700300936F03209132
:100EF00071033091720340E050E02617370748072E
:100F0000590724F4709372036093710303E713E0AD
:100F1000FF24EAE0AE2EB12CC12CD12C80917C00B4
:100F2000807F80937C0080917C00F3948F29809354
:100F30007C0080917A00806480937A0080917A00AE
:100F400084FFFCCF80917A00806180937A00609169
:100F500078007091790080E090E026E331E040E095
:100F600050E06CD3A6019501BCD339014A017AE067
:100F700096948794779467947A95D1F7862D90E02C
:100F8000982F8827990F990FA0E0B0E019012A0146
:100F9000281A390A4A0A5B0AC201B10124E630E084
:100FA00040E050E04BD32AE096958795779567957A
:100FB0002A95D1F7D8016C9311966C920E5F1F4F52
:100FC000BF2DB33009F0AACF80916A038F5F809361
:100FD0006A0380916A03823338F010926A03809129
:100FE00055038F5F80935503809155038C3338F000
:100FF00010925503809156038F5F80935603809122
:1010000056038C3338F010925603809157038F5F4C
:101010008093570380915703833610F01092570343
:1010200025D9FF24BDE5CB2EB1E0DB2EA0E3EA2ECF
:10103000FF2009F071C0809157038A3020F4E092BC
:101040003E0161E001C060E02091570330E040E0E4
:1010500050E080E00DE111E003DA682F8091560343
:101060008A3030F4E62FF0E0E25CFE4FE0826F5F02
:101070002091560330E040E050E080E00DE111E0C7
:10108000EFD9682F809155038A3030F4E62FF0E0D5
:10109000E25CFE4FE0826F5F2091550330E040E05C
:1010A00050E080E0FFD8682F6F5F80E040E0E5D936
:1010B000682F6F5F80E041E0E0D9E82FEF5F20917B
:1010C0007403F4E62F9F9001112480917303280F7D
:1010D000311D41E0263D340790F42937310590F069
:1010E00028573040A4E6B0E02A9FC0012B9F900D06
:1010F0003A9F900D1124B601CDD29B0105C024E684
:1011000030E002C020E030E030E040E050E080E03D
:101110006E2F0FE111E080C0BF2DB13039F5209165
:101120006B0330916C0340916D0350916E0381E02D
:1011300060E001E211E094D9682F6F5F20916F03A6
:101140003091700340E050E081E003E211E088D983
:10115000682F6F5F80915B03882319F04EE051E0A8
:1011600002C044E151E081E056D957C0EF2DE23092
:10117000B9F4209114033091150340911603509156
:10118000170382E060E08ED8209118033091190394
:1011900040911A0350911B0382E069E183D83DC05E
:1011A0002091230330E040E050E083E060E007E27C
:1011B00011E056D9682F6F5F80912C03882319F0B6
:1011C00045E151E002C049E151E083E024D9682FB4
:1011D0006F5F20911C0330911D03442737FD40951C
:1011E000542F83E001E211E03BD9682F6F5F20911B
:1011F00024033091250340E050E083E009E211E050
:101200002FD9682F6F5F209126033091270340E08C
:1012100050E083E003E211E023D9F394FF2DF43092
:1012200009F006CFDAD886EF898381E08A838AEED7
:101230008B831C828BE08D8366E1F8DA8BE060E0C3
:10124000F5DA86E16BE0F2DA80E06BE0EFDA1BE0E2
:101250004BC0898187FD0AC08D8181508D838B8130
:101260008E5F8B8399818B81890F89838C818F5FBE
:101270008C838A818E5F8A8399818A81890F898391
:101280008C816D81655F855FD1DA8C816D81655F51
:10129000212E281A822DCADA8C819D81612F691B2B
:1012A000855FC4DA8C819D81612F691B312E381ACC
:1012B000832DBCDA8D816C81655F855FB7DA8D81A6
:1012C0006C81655F412E481A842DB0DA8D819C8136
:1012D000612F691B855FAADA8D819C81612F691B53
:1012E000512E581A852DA2DA9C818D8198170CF405
:1012F000B0CF00916F031091700380914D039091D6
:101300004E03081B190BC801865A9F4FDDD6F82ED5
:10131000C801DAD6E82F20916B0330916C0340911D
:101320006D0350916E032A30310541055105DCF003
:101330002F2D332727FD3095F3E0220F331FFA9529
:10134000E1F7C90164E670E0B9D19B018E2F9927BE
:1013500087FD9095E3E0880F991FEA95E1F764E631
:1013600070E0ACD104C060E070E020E030E0E62F37
:10137000E55F1BE0121B412F50E04B50504057FFE0
:1013800003C0509541955F4F2E2F30E02B503040D9
:1013900037FF03C0309521953F4FFF24F394241766
:1013A000350724F0FF24812F1E2FE82F1B3028F053
:1013B0004E2F012FEBE01BE002C04BE00BE0E02ED4
:1013C000E11A242F30E02E1B310937FF03C030957E
:1013D00021953F4FC22E8E2D62E04FD1A82E6E2E4A
:1013E000E41718F42224239402C022242A94FF2014
:1013F00019F0862D612F02C0812F662D17DAAC18E7
:10140000A7FE02C0620CAE0C1F5F011780F779CAFD
:101410001F920F920FB60F9211242F933F938F9329
:101420009F93AF93BF93EF93FF9328E22A95F1F731
:101430004A99ECC08091380190913901009709F4E4
:1014400084C080913A01813021F0823009F07DC062
:1014500051C0A0913B0188E18A95F1F78091380154
:1014600090913901B0E0FD0125E0EE0FFF1F2A95B4
:10147000E1F7EA0FFB1FE25CFE4FAA0FBB1FA25D64
:10148000BE4F2D913C91821B930B96958795A1E2BF
:101490008A9FD0011124AE53BE4F81E291919032C8
:1014A00021F0992311F0219A01C021989D919EBDB0
:1014B000000000000000000000000000000000002C
:1014C000000000000000000000000000000000001C
:1014D000000000000000815009F70000000000003B
:1014E00000000000000000000000000000001EBC22
:1014F00021982BC020ED2A95F1F7E0913801F09169
:101500003901ED5BFD4F83E090819EBD219A000083
:1015100000000000000000000000000000000000CB
:1015200000000000000000000000000000000000BB
:1015300000000000000000000000000081507896CC
:10154000882311F7219800001EBC10923A01809167
:1015500038019091390101969093390180933801B7
:10156000809138019091390121E08131920721F475
:1015700081E080933C0155C02091380130913901C0
:1015800080913D0190E02817390768F020913801DB
:101590003091390180913D0190E04096281739073C
:1015A00010F481E030C020913801309139018091F0
:1015B0003D0190E0409628173907B1F482E080930E
:1015C0003C0180913B0190E0019683709070809384
:1015D0003B01E0913B01F0E0EE0FFF1FE25DFE4FAB
:1015E000808180933D011DC0809138019091390127
:1015F00087389105B0F080913801909139018F3989
:10160000910578F482E080933A010BC08091380113
:1016100090913901893C910520F010923901109286
:101620003801FF91EF91BF91AF919F918F913F91C1
:101630002F910F900FBE0F901F901895629FD001B1
:10164000739FF001829FE00DF11D649FE00DF11D7D
:10165000929FF00D839FF00D749FF00D659FF00D2C
:101660009927729FB00DE11DF91F639FB00DE11D19
:10167000F91FBD01CF011124089587FB082E06260E
:1016800087FD819567FD619569D00EF4919507FC02
:1016900081950895AA1BBB1B51E107C0AA1FBB1F60
:1016A000A617B70710F0A61BB70B881F991F5A95EE
:1016B000A9F780959095BC01CD01089597FB092E5F
:1016C00007260AD077FD04D0E5DF06D000201AF403
:1016D000709561957F4F0895F6F7909581959F4F8E
:1016E0000895A1E21A2EAA1BBB1BFD010DC0AA1F63
:1016F000BB1FEE1FFF1FA217B307E407F50720F07B
:10170000A21BB30BE40BF50B661F771F881F991FF5
:101710001A9469F760957095809590959B01AC013E
:10172000BD01CF01089597FB092E05260ED057FD68
:1017300004D0D7DF0AD0001C38F45095409530957E
:1017400021953F4F4F4F5F4F0895F6F79095809545
:10175000709561957F4F8F4F9F4F0895991B79E04A
:1017600004C0991F961708F0961B881F7A95C9F731
:1017700080950895FB01DC014150504030F08D917F
:101780000190801919F40020B9F7881B990B08956E
:10179000FB01DC014150504048F001900D920020C7
:1017A000C9F701C01D9241505040E0F70895F999E2
:1017B000FECF92BD81BDF89A992780B50895F8941F
:0217C000FFCF59
:1017C20056004750474741004750524D4300482D6D
:1017D200534554000046495800424144003A00250E
:1017E200004D004445470053004B4D2F4800330045
:0817F2004C00E600FF00FF00BF
:00000001FF
