:1000000047C0A3CD60C05FC05EC05DC05CC05BC0C8
:100010005AC059C058C057C056C0BFCE54C053C0B4
:1000200052C051C050C04FC04EC04DC04CC04BC05C
:100030004AC049C00002030507090A0C0E1011133B
:100040001516181A1C1D1F2122242527292A2C2D9C
:100050002F303234353638393B3C3E3F4042434402
:10006000454748494A4B4D4E4F50515253545556AF
:10007000575758595A5B5B5C5D5D5E5F5F606061BE
:1000800061616262626363636364646464646400A4
:1000900011241FBEC0E0D4E0DEBFCDBF11E0A0E060
:1000A000B1E0E4E7FFE102C005900D92A438B1078A
:1000B000D9F714E0A4E8B1E001C01D92AB36B10756
:1000C000E1F744D755CF9CCF68E671E0C0DE843BB2
:1000D000910520F0845B90404FEF01C041E08A35EC
:1000E000910530F024EB30E0B901681B790BCB01AE
:1000F000FC01EC5CFF4F8491849F802D11240895B6
:100100002F923F924F925F926F927F928F929F9227
:10011000AF92BF92CF92DF92EF92FF920F931F9315
:10012000DF93CF9300D000D00F92CDB7DEB77B0125
:100130008C0197FF0BC010950095F094E094E11CA2
:10014000F11C011D111D8FEF898302C0E1E0E983DD
:10015000C801B70120E432E44FE050E0C1DEA22E36
:10016000BB24CC24DD2480E1682E87E2782E812C0C
:10017000912CC801B701A4019301B2DE6A837B838D
:100180008C839D83C601B5012CE330E040E050E054
:1001900026DE1B012C01C601B50120EC3DEB40EF32
:1001A0005FEF1DDE6E0D7F1D801F911FA401930167
:1001B00097DE220E311C411C511C6A817B818C818F
:1001C0009D812CE330E040E050E009DE5B016C01F2
:1001D000C201B10120E737E140E050E000DE7B01E1
:1001E0008C01C601B50124E630E040E050E056DE67
:1001F000E20EF31E041F151FF981FF3F41F4109515
:100200000095F094E094E11CF11C011D111DC80142
:10021000B7010F900F900F900F900F90CF91DF913B
:100220001F910F91FF90EF90DF90CF90BF90AF9014
:100230009F908F907F906F905F904F903F902F9006
:1002400008952F923F924F925F926F927F928F927A
:100250009F92AF92BF92CF92DF92EF92FF920F9355
:100260001F93DF93CF93CDB7DEB768970FB6F8949F
:10027000DEBF0FBECDBF1B012C0129833A834B8308
:100280005C83AD82BE82CF82D886988A8F866E15B7
:100290007F058007910781F42A153B054C055D0514
:1002A00059F4D4011D921D921D921C921397EDA535
:1002B000FEA511821082A3C1C801B701620D731D92
:1002C000841D951D97FF07C0909580957095619549
:1002D0007F4F8F4F9F4F20E834E84EE150E0DEDD46
:1002E000C901865A9F4FF0DE8987C201B10108DF3C
:1002F0005B016C01C801B70103DF3B014C0169815F
:100300007A818B819C81FCDE7B018C016D817E81F9
:100310008F819885F5DE9B01AC012E193F09400BBA
:10032000510B6A187B088C089D08F9856F2F772779
:1003300067FD7095872F972F52DD24E630E040E06F
:1003400050E0CEDD19012A01A2E0EA2EF12C012DA8
:10035000112DAA24A3940FC0C201B101A8019701D5
:10036000BFDD19012A01C401B301A8019701B8DD5D
:1003700039014A01AA0CA201910157FE07C02227A8
:100380003327A90122193309440955092F3F6FEF7B
:10039000360760E0460760E05607F0F6D401C30177
:1003A00097FE07C088279927DC0186199709A809B5
:1003B000B9098F3FEFEF9E07E0E0AE07E0E0BE0730
:1003C00058F6A982298B3A8B4B8B5C8B8D8B9E8B3D
:1003D000AF8BB88FC201B101A201910100DD5B01B9
:1003E0006C01C401B301A4019301F9DCE1E00FC089
:1003F000F2E0D694C794B794A794FA95D1F752E057
:1004000096958795779567955A95D1F7EE0FE92ED2
:10041000FF24002711272D2D332744275527E20ECF
:10042000F31E041F151F2FEFE216F104010511053D
:1004300009F0F0F6ED839B01AC012A0D3B1D4C1D2C
:100440005D1D29873A874B875C8759016A01D694DD
:10045000C794B794A794A114B104C104D10451F175
:100460001E861D8602C05701680169857A858B85C5
:100470009C85A601950112DD79018A01EA0CFB1C1D
:100480000C1D1D1D16950795F794E794AE18BF082F
:10049000C00AD10A32E0A316B104C104D10470F03D
:1004A0004D855E854F5F5F4F5E874D874A315105B1
:1004B000D1F604C0E984FA840B851C856D81262F52
:1004C00030E040E050E0C801B70189DC5B016C011D
:1004D0008DA59EA5009709F476C0A114B104C104AE
:1004E000D10409F467C029893A894B895C898D89CF
:1004F0009E89AF89B88D281739074A075B07C0F076
:10050000BC01CD0124E630E040E050E068DCA6010B
:100510009501C4DCE22E00E010E002C00F5F1F4F27
:10052000C801D2DDE8161CF10A351105B9F71FC064
:1005300069897A898B899C8924E630E040E050E023
:100540004EDCA6019501AADC022FEE24FF2403C095
:100550000894E11CF11CC701B7DD081724F09AE5E7
:10056000E916F104A9F70AE510E00E191F09611454
:1005700071048104910429F457FC1FC08AE590E0BE
:100580001EC016141704180419044CF457FC03C0B9
:100590008AE590E00CC0C801825F9E4F10C057FCF6
:1005A00004C0C801865A9F4F0AC08EE091E0801BAC
:1005B000910B05C080E090E002C08EE091E0ADA517
:1005C000BEA58D939C93C601B50125E331E040E0C3
:1005D00050E005DC28EE33E040E050E05FDC7901DC
:1005E0008A01B9812B2F30E040E050E0C801B7010B
:1005F000F6DBEF85F8896083718382839383689645
:100600000FB6F894DEBF0FBECDBFCF91DF911F9123
:100610000F91FF90EF90DF90CF90BF90AF909F90A1
:100620008F907F906F905F904F903F902F900895A4
:10063000E1ECF3E0119283E0EC3CF807D9F7089580
:100640004F925F926F927F928F929F92AF92BF92E2
:10065000CF92DF92EF92FF920F931F93DF93CF938E
:100660000F92CDB7DEB72C01C62E79018A0117FF94
:1006700007C022273327A9012E193F09400B510B30
:10068000DD24D3948AE0882E912CA12CB12C06C0B5
:10069000CA01B901A501940123DCD3942A303105A4
:1006A00041055105ACF717FDD3948C2D90E09C01CA
:1006B0002D0D311D213231050CF055C0480E591E4B
:1006C00017FF0BC010950095F094E094E11CF11C0D
:1006D000011D111D6FEF698301C019825201BAE03B
:1006E0006B2E712C812C912CC801B701A4019301B0
:1006F000F7DB605DF50161935F018E2F841979014D
:100700008A01121613061406150674F3F981FF3FC9
:1007100049F4E82FFF27E7FDF095E40DF51D9DE274
:1007200090838F5FE82FFF27E7FDF095E40DF51D1F
:1007300010828150582F569540E0282F30E0842FAA
:1007400090E0D201A80FB91F6C91F901E81BF90BD9
:10075000E40DF51D80818C9360834F5F541778F70B
:100760008D2D8C0D01C081E20F90CF91DF911F91F3
:100770000F91FF90EF90DF90CF90BF90AF909F9040
:100780008F907F906F905F904F9008950F931F937D
:100790009C01062FFA01DA010D900020E9F711976C
:1007A0001A2F141B862F90E0810F911D8132910525
:1007B0000CF011E2412F50E0C901800F911DBF01E3
:1007C000B8DB812F800F1F910F9108950F931F9316
:1007D000CF93DF93EC0134DF682FCE01A801D6DF81
:1007E000DF91CF911F910F9108952F923F924F92D9
:1007F0005F926F927F928F929F92AF92BF92CF92B1
:10080000DF92EF92FF920F931F93DF93CF9300D06D
:1008100000D000D0CDB7DEB79E838D83162F211573
:1008200031054105510521F448E051E0AFDFA7C093
:10083000002359F012161306140615061CF480E066
:1008400091E00DC082E091E00AC012161306140672
:1008500015061CF484E091E002C086E091E01C01E2
:1008600057FF07C050954095309521953F4F4F4F0A
:100870005F4F002349F072E6C72E7FEFD72E7FEF40
:10088000E72E7FEFF72E05C067EDC62ED12CE12CA9
:10089000F12CC20ED31EE41EF51EC701B60120E4E2
:1008A00032E44FE050E01CDB822E9924AA24BB24C2
:1008B00090E1492E97E2592E612C712CC701B601A7
:1008C000A30192010DDB69837A838B839C838D81E5
:1008D0009E81612FA501940104E111E077DF182FBB
:1008E000C501B40120EC3DEB40EF5FEF78DA6C0D11
:1008F0007D1D8E1D9F1DA3019201F2DA30E040E0C4
:1009000050E08D819E81612F06E111E05FDF182F9D
:1009100089819A81AB81BC818031E7E29E07E0E06A
:10092000AE07E0E0BE0710F56C017D0188E191E0C3
:100930004C01AA2497FCA094BA2CC701B6012AE066
:1009400030E040E050E04BDA6B017C018D819E810C
:10095000612FA501940174DE182FF0E1CF16F7E2A4
:10096000DF06F0E0EF06F0E0FF0638F38D819E81B0
:10097000612F29813A814B815C81810127DF269695
:100980000FB6F894DEBF0FBECDBFCF91DF911F91A0
:100990000F91FF90EF90DF90CF90BF90AF909F901E
:1009A0008F907F906F905F904F903F902F90089521
:1009B000FF920F931F9301E08091C1038D3209F0E4
:1009C00000E0102F20E030E0A901E12FF0E0EF532C
:1009D000FC4FF0808F2D80538A3028F5CA01B90171
:1009E0002AE030E040E050E0FAD92F2D30E02053EB
:1009F0003040442737FD4095542F260F371F481F9E
:100A0000591F1F5F1B3008F3002321F06FEF7FEFAA
:100A1000CB0104C061E070E080E090E0E0D91F917C
:100A20000F91FF9008958F2D8E3259F3EDCFFF92E5
:100A30000F931F9301E08091C1038D3209F000E014
:100A4000102F20E030E0A90114C0CA01B9012AE04A
:100A500030E040E050E0C3D92F2D30E0205330404B
:100A6000442737FD4095542F260F371F481F591F25
:100A70001F5FE12FF0E0EF53FC4FF0808F2D80538C
:100A80008A3010F41B3008F3002321F06FEF7FEF62
:100A9000CB0104C061E070E080E090E0A0D91F913C
:100AA0000F91FF9008958091BF03882301F581EC99
:100AB00093E06AE171E045E050E02DDA009731F40F
:100AC00081E08093BF0310927801089581EC93E058
:100AD00060E271E045E050E01EDA009709F00AC1DB
:100AE00082E08093BF0384E680937801089580912B
:100AF000BE03882309F4FEC0809178018536E9F1B0
:100B00008636D8F4843009F469C0853048F48230E0
:100B1000F1F1833008F045C0813009F0EBC02DC001
:100B2000863009F482C0863008F462C0873009F448
:100B300080C0893009F0DEC080C08A3609F458C010
:100B40008B3648F4883669F1893608F047C0873615
:100B500009F0D0C01CC08C3609F488C08C3608F46B
:100B600072C08D3609F488C0883C09F0C3C0E1EC3E
:100B7000F3E080E090E0DC01AFC059DF6093AF03A9
:100B80007093B0038093B1039093B203089510DF84
:100B90006093A5037093A6038093A7039093A80383
:100BA00008958091C103833509F0A4C08091A50305
:100BB0009091A603A091A703B091A803B095A0952A
:100BC000909581959F4FAF4FBF4F8093A503909312
:100BD000A603A093A703B093A8030895E9DE60934A
:100BE000A9037093AA038093AB039093AC03089579
:100BF0008091C103873509F07DC08091A903909150
:100C0000AA03A091AB03B091AC03B095A0959095C9
:100C100081959F4FAF4FBF4F8093A9039093AA0335
:100C2000A093AB03B093AC03089501DF6093B303CB
:100C30000895FDDE6093B4030895F9DE7093AE036A
:100C40006093AD030895F3DE4FEC51E0649F900193
:100C5000659F300D749F300D1124C9016AEF70E05B
:100C6000F6D87093B6036093B5030895E0DE7093F1
:100C7000B8036093B7030895DADE6093B903709305
:100C8000BA038093BB039093BC03089534E0880FAC
:100C9000991FAA1FBB1F3A95D1F7322F3154363016
:100CA00020F430E0275330400FC0322F3156363019
:100CB00020F430E02755304007C0322F30533A300F
:100CC00058F430E020533040442737FD4095542FEE
:100CD000820F931FA41FB51F2191222321F033E01F
:100CE000ED3CF30799F621E03091C003381320E082
:100CF0002093BD030895883108F56831F8F4482F32
:100D000046954695469550E08095877021E030E005
:100D100002C0220F331F8A95E2F7FA01EE0FFF1F80
:100D2000E40FF51F43E0EE0FFF1F4A95E1F7E60FD2
:100D3000F11DE55AFC4F8081822B80830895FF923C
:100D40000F931F93DF93CF9300D000D00F92CDB7B6
:100D5000DEB7182F81E0982F911B99838A83812F0A
:100D60008195880F8B831C821D83EBE0FE2EF10E94
:100D70008BE06F2DC0DF0BE0011B8BE0602FBBDF32
:100D80008F2D6BE0B8DF802F6BE0B5DF1BE04BC031
:100D9000898187FD0AC08D8181508D838B818E5F13
:100DA0008B8399818B81890F89838C818F5F8C8361
:100DB0008A818E5F8A8399818A81890F89838C8158
:100DC0006D81655F855F97DF8C816D81655F912F98
:100DD000981B892F90DF8C819D81612F691B855F16
:100DE0008ADF8C819D81612F691B912F981B892F30
:100DF00082DF8D816C81655F855F7DDF8D816C8198
:100E0000655F912F981B892F76DF8D819C81612FE3
:100E1000691B855F70DF8D819C81612F691B912F1C
:100E2000981B892F68DF9C818D8198170CF4B0CFB7
:100E30000F900F900F900F900F90CF91DF911F9117
:100E40000F91FF900895AF92BF92CF92DF92EF92F1
:100E5000FF920F931F93382F562F142FA22FB0E01D
:100E6000A61BB109B7FF03C0B095A195BF4FE12FF5
:100E7000F0E0E31BF109F7FF03C0F095E195FF4FA8
:100E800001E0EA17FB0714F000E006C0812F122FE3
:100E9000282F832F352F582F131730F4852F522FDB
:100EA000282F832F312F182FF12EF31AE22FF0E085
:100EB000E51BF109F7FF03C0F095E195FF4FEE2E1A
:100EC0008F2D62E0B7D7D82EB52E521718F4AA246A
:100ED000A39402C0AA24AA94C32E0EC0002319F022
:100EE0008B2D6C2D02C08C2D6B2D05DFDE18D7FEEF
:100EF00002C0BA0CDF0CC3941C1580F71F910F9130
:100F0000FF90EF90DF90CF90BF90AF900895109238
:100F1000FB031092FA031092ED031092EC0310926F
:100F2000F9031092F80310924E0410924D040895A4
:100F3000EEDFAEEEB3E0ECECF3E08AE001900D9270
:100F40008150E1F781E08093EB030895DF93CF9325
:100F5000CDB7DEB728970FB6F894DEBF0FBECDBF72
:100F600020E12BB988E08AB929988CE084B9809176
:100F70006F00816080936F00809181008260809318
:100F8000810083E08093690031E03DBB80E880BF51
:100F900010927B001EBC8DB58E7F8DBD84E58CBD0F
:100FA000E0918801F0E0EE0FFF1FEA59FE4F8081CB
:100FB000918190938B0180938A0110927E008091A1
:100FC0007C00806480937C0080917A0086608093AE
:100FD0007A0010927B003093C50087E38093C400B1
:100FE00086E08093C2002093C10078943DE8232ED0
:100FF00031E0332E8091C00087FFE6C00091C6002B
:10100000909178019F3F21F4043209F0DDC010C0B7
:10101000043271F0053230F40A3049F10D3009F034
:10102000C0C025C00A3299F00C3209F0BAC00AC01B
:101030001092BE031092BF031092C0031092780169
:10104000F7DAC2C08091C00380278093C0032BDDF4
:10105000EFDA1092BE03809178018F5F8093780160
:101060000A3209F0B1C088EC80937801ADC01BDD75
:101070008FEF809378018091BD03882309F4A4C089
:101080006091CC037091CD038091CE039091CF03FA
:101090002091D0033091D1034091D2035091D303DA
:1010A000E090A503F090A6030091A7031091A80378
:1010B000A090A903B090AA03C090AB03D090AC035A
:1010C0006E157F058007910729F42A153B054C050D
:1010D0005D05D1F000D0ADB7BEB712961C921E923E
:1010E00011974E010894811C911CABD88091FA0392
:1010F0009091FB0329813A81820F931F9093FB0308
:101100008093FA030F900F90ACECB3E0E5EAF3E0C4
:1011100089E101900D928150E1F781E08093E50330
:101120008091E6039091E7039093E9038093E803AD
:101130008091DC039091DD038330910520F01092C3
:1011400079011092EA032091EB03222349F42091C4
:10115000DA032223C9F18A309105B0F1E9DE34C007
:101160002091EC033091ED032817390720F4909378
:10117000ED038093EC038091D4039091D5032091EB
:10118000F6033091F703821B930B2091F803309103
:10119000F90328173907C4F49093F9038093F803EF
:1011A00013C08091BE03E82FF0E0EF53FC4F0083A3
:1011B000983C29F09091C00390279093C0038A3007
:1011C00018F48F5F8093BE034C991AC081E080931E
:1011D000A3038091A4038333D8F01092A4035B9AF5
:1011E0008091BD038823A1F08091B303882381F00F
:1011F0009FDE1092FC031092E6031092E70308C0F2
:101200008091A30381115B981092A3031092A40311
:1012100080918901823009F078C010928901809113
:10122000880190E0FC0125E0EE0FFF1F2A95E1F711
:10123000E80FF91FE357FE4F8DEFA82E83E0B82E7D
:10124000D50180E090E021912032E1F02223D1F01D
:101250002B3550F4822F90E003E0880F991F0A95F8
:10126000E1F78852914010C0322F3556393060F482
:10127000822F90E013E0880F991F1A95E1F78057AD
:10128000914002C08FEF9FEF8D939D9324E0AF3389
:10129000B207C9F600E010E0F8E0DF2E88248A9457
:1012A000D501ED90FD905D0180917A01992787FD30
:1012B00090958E159F0569F0BFEFEB16BFEFFB060B
:1012C00071F08FE394E0B70148E050E041D6E0923E
:1012D0007A01AFE3B4E0F801ED5AFD4F09C0EFE346
:1012E000F4E09D2C11929A94E9F780927A01F1CF63
:1012F0008D918083B19624E0A734B207C9F70F5FC0
:101300001F4F0132110561F675CE80918901813040
:1013100009F070CE109289018091A303882329F0EF
:101320008091A4038F5F8093A4038091FC0362E308
:1013300075D5992309F079C18091B303882311F001
:101340005B9A04C08BB198E089278BB98091EB033D
:10135000882309F447C000D06091CC037091CD037D
:101360008091CE039091CF032091D0033091D1038F
:101370004091D2035091D303E090EE03F090EF033D
:101380000091F0031091F103A090F203B090F303E9
:10139000C090F403D090F503EBE4F4E0ADB7BEB732
:1013A0001296FC93EE931197E7E48E2EE4E09E2EC6
:1013B00048D78091470490914804A0914904B09186
:1013C0004A0420914D0430914E0440E050E00F90CB
:1013D0000F90281739074A075B0720F490934E04B3
:1013E00080934D04BFE48B2EB4E09B2EABE76A2EB6
:1013F000A1E07A2EFFE74F2EF1E05F2EE7E5AE2E5B
:10140000E4E0BE2EDD247401850180917C00807FA4
:1014100080937C0080917C008D2980937C0080915A
:101420007A00806A80937A0080917A008064809349
:101430007A0080917A0084FFFCCF80917A008061ED
:1014400080937A0080917A008F7580937A00609102
:10145000780070917900F701619371937F0180E0CA
:1014600090E026E331E040E050E0B9D42AE030E0FB
:1014700040E050E013D549015A01D3012D913D01BF
:1014800030E040E050E0C501B401A9D4F20121915F
:101490002F0130E040E050E001D549015A017AE0E7
:1014A000B694A794979487947A95D1F78D829E826B
:1014B000AF82B886882D90E0982F8827990F990FD2
:1014C000A0E0B0E049015A01881A990AAA0ABB0AA9
:1014D000C501B40124E630E040E050E080D44AE0A9
:1014E00096958795779567954A95D1F7D8016C932E
:1014F000ED811196EC931197D3940E5F1F4FFD2D44
:10150000F43009F082CF8091570490915804909361
:10151000600480935F0490915C0484E6989FC0010E
:10152000112420915B04820F911D21E0853F9207D9
:1015300098F48937910598F0AC014857504024E65B
:1015400030E0429FC001439F900D529F900D1124A7
:101550006CE771E07CD405C064E670E002C060E036
:1015600070E0609361042091DC033091DD0381E041
:1015700090E0293C310510F480E090E09093630402
:10158000809362048091D4039091D5034091F60337
:101590005091F703841B950B41E050E063E18938DB
:1015A000960710F440E050E05093650440936404C3
:1015B00041E050E08091470490914804A091490493
:1015C000B0914A048131E7E29E07E0E0AE07E0E037
:1015D000BE0710F440E050E0509367044093660467
:1015E0009091600484E6989FC001112440915F04AB
:1015F000840F911D41E0F1E0843F9F0708F040E037
:1016000040936804109269042330310538F48091C6
:10161000EA038A3018F48F5F8093EA038091EA032B
:101620008A3019F481E0809379018091FC038F5F07
:101630008093FC038091FC03823378F01092FC03CA
:101640008091E6038F5F8093E60380916A0490E0C7
:1016500001968170907080936A048091E6038C33C8
:1016600038F01092E6038091E7038F5F8093E703E1
:101670008091E7038C3310F01092E7033EEA832E4B
:1016800031E0932EEE24FF242EE2422E90E3692EC9
:101690005701B5C11192E815F905E1F78A2DAA2085
:1016A000A1F58DE891E060E046E251E06FD88DE869
:1016B00091E067E049E251E069D88091E7038A3020
:1016C00030F4D1015B966C925B976CE101C06BE1E9
:1016D0002091E70330E040E050E08DE891E004E144
:1016E00011E074D8682F8091E6038A3030F4E62F39
:1016F000F0E0E357FE4F60826F5F2091E60330E039
:1017000040E050E08DE891E0B3C0813009F046C080
:101710008EEA91E060E24BE251E038D880916804B3
:10172000882321F080916A04882361F1E0905704B6
:10173000FF2400E010E02091580430E040E050E049
:101740008EEA91E060E07CD7E82FF0E0E255FE4FB2
:101750004082682F6F5FBAE0EB16F10401051105B6
:1017600034F4E62FF0E0E255FE4F60826F5F8EEAC0
:1017700091E0A801970164D7682F8EEA91E04CE2CE
:1017800051E004D82091610430E040E050E08EEA5E
:1017900091E067E00EE211E019D821C1823099F59D
:1017A000809179018823A9F08091EB03882331F09F
:1017B0008FEC91E067E040E351E010C180916A0452
:1017C000882309F40CC18FEC91E06AE043E451E016
:1017D00005C12091CC033091CD034091CE035091AF
:1017E000CF038FEC91E064E001E0FFD7682F6E5FDC
:1017F0002091D0033091D1034091D2035091D30373
:101800008FEC91E050C0833009F050C08091790195
:10181000882309F4E4C08091EB03882359F12091D7
:101820004D0430914E0440E050E080EF91E067E0DD
:1018300007D72091EC033091ED0340E050E080EFBA
:1018400091E06CE0FDD62091FA033091FB0340E07B
:1018500050E080EF91E060E1F3D62091F803309101
:10186000F903442737FD4095542F80EF91E066E15E
:10187000E7D6B5C02091CC033091CD034091CE0383
:101880005091CF0380EF91E064E001E0AED7682F84
:101890006E5F2091D0033091D1034091D2035091DB
:1018A000D30380EF91E000E0A0D799C0843009F025
:1018B00066C08091620490916304009721F080914A
:1018C0006A04882351F02091DC033091DD0340E06D
:1018D00050E081E192E060E0B3D68091EB03882391
:1018E00039F481E192E065E04FE451E04FD716C052
:1018F0008091660490916704009721F080916A04BA
:10190000882361F0209147043091480440914904B4
:1019100050914A0481E192E065E092D68091DA0329
:10192000882351F02091DB0330E040E050E081E17A
:1019300092E067E185D606C081E192E067E14FE47D
:1019400051E024D78091640490916504009729F0B8
:1019500080916A04882309F442C02091D403309115
:10196000D5038091F6039091F703281B390B442788
:1019700037FD4095542F81E192E06CE179CF82E30D
:1019800092E060E041E551E001D782E392E065E05A
:1019900045E551E0FBD69091EB03682F6D5F9923ED
:1019A00029F082E392E049E551E004C082E392E04D
:1019B0004BE551E0EBD68091BD03882321F4809163
:1019C0006A04882331F082E392E067E14DE551E05B
:1019D000DDD682E392E06CE14FE551E0D7D6089482
:1019E000A11CB11CE1E2F0E08E0E9F1EF6E0AF16E6
:1019F000B10429F423E733E080E090E016C0F5015C
:101A000085E0EE0FFF1F8A95E1F7EA0DFB1DE35716
:101A1000FE4F40CE1192E217F307E1F701969F01C6
:101A2000285E3F4F8330910569F0FC01EE0FFF1FE8
:101A3000E80FF91F13E0EE0FFF1F1A95E1F7E55AC3
:101A4000FC4FE8CF00914B0410914C048091DE03D1
:101A50009091DF03081B190B8BE071D9809147042B
:101A600090914804A0914904B0914A048A309105AC
:101A7000A105B10518F482E062D9BCCA8091DC03EB
:101A80009091DD038330910520F08091B30388238A
:101A900051F485E065E041E121E1D5D985E061E1DE
:101AA00041E125E050C0C801865A9F4F0DD3E82E72
:101AB000C8010AD3E82F4E2D552747FD5095B3E0B6
:101AC000440F551FBA95E1F724E630E0CA01B90189
:101AD000D2D14B018E2F992787FD9095A3E0880FD7
:101AE000991FAA95E1F7B901C6D15B01682DFBE00A
:101AF000DF2EDA0C8BE0E82EE818655F8A194D2D91
:101B00002E2DA1D902E010E0C401B801B4D1709526
:101B100061957F4F462F455FC501B801ACD17095E7
:101B200061957F4F262F255F8D2D6E2D8CD9C40199
:101B3000B801A1D1462F455FC501B8019CD1262F20
:101B4000255F8D2D6E2D7FD955CA1F920F920FB62E
:101B50000F9211242F933F934F935F936F937F9333
:101B60008F939F93AF93BF93EF93FF931092850052
:101B70001092840088E28A95F1F780918401909117
:101B800085014A99F2C0009709F47FC080918701CE
:101B9000813021F0823009F078C04AC090918801EC
:101BA000E8E1EA95F1F7292F30E0F90175E0EE0F51
:101BB000FF1F7A95E1F7E20FF31FE357FE4FA09165
:101BC0008C0181E2A89FD0011124AD5ABD4F989F8E
:101BD000C001112482559E4F2191203221F02223F1
:101BE00011F0219A02C0219800002D912EBD000015
:101BF00000000000000000000000000000000000E5
:101C000000000000000000000000000000000000D4
:101C1000E817F90709F700000000000000000000C5
:101C2000000000000000000000001EBC21982DC034
:101C300083E191E00197F1F700C00000E0918C0191
:101C4000F0E0E55AFC4F80E090819EBD219A0000B3
:101C50000000000000000000000000000000000084
:101C60000000000000000000000000000000000074
:101C70000000000000000000000000008F5F789668
:101C8000833011F7219800001EBC109287018091CB
:101C90008401909185010196909385018093840140
:101CA0008E36910511F421E004C08F36910519F4A8
:101CB00022E02093890120918A0130918B018217C3
:101CC0009307A0F040916301509164018417950738
:101CD00068F441E040938701821B80938C019091CE
:101CE0006501923009F048C0869531C020916301AA
:101CF000309164018217930769F582E0809389012E
:101D00008091880190E0019666E070E0B4D0809305
:101D10008801FC01EE0FFF1FEA59FE4F208131813F
:101D200030938B0120938A018E589E4FFC01808155
:101D30008093650190E053E0880F991F5A95E1F771
:101D4000820F931F909364018093630181E08093DD
:101D50008C0112C09C01295630402831310560F4B5
:101D600022E0209387018956F2CF893C910520F02B
:101D70001092850110928401FF91EF91BF91AF9174
:101D80009F918F917F916F915F914F913F912F9193
:101D90000F900FBE0F901F9018951F920F920FB6C5
:101DA0000F9211242F933F938F939F9380918401DF
:101DB000909185012091860130E02817390721F4A0
:101DC0002BB138E023272BB9809386019F918F9107
:101DD0003F912F910F900FBE0F901F901895629F0B
:101DE000D001739FF001829FE00DF11D649FE00D13
:101DF000F11D929FF00D839FF00D749FF00D659F74
:101E0000F00D9927729FB00DE11DF91F639FB00D72
:101E1000E11DF91FBD01CF0111240895991B79E03F
:101E200004C0991F961708F0961B881F7A95C9F76A
:101E30008095089587FB082E062687FD819567FD0E
:101E40006195ECDF0EF4919507FC81950895AA1B2E
:101E5000BB1B51E107C0AA1FBB1FA617B70710F095
:101E6000A61BB70B881F991F5A95A9F780959095C7
:101E7000BC01CD01089597FB092E07260AD077FDF6
:101E800004D0E5DF06D000201AF4709561957F4FED
:101E90000895F6F7909581959F4F0895A1E21A2E27
:101EA000AA1BBB1BFD010DC0AA1FBB1FEE1FFF1FFE
:101EB000A217B307E407F50720F0A21BB30BE40B4E
:101EC000F50B661F771F881F991F1A9469F7609595
:101ED0007095809590959B01AC01BD01CF0108954F
:101EE00097FB092E05260ED057FD04D0D7DF0AD068
:101EF000001C38F450954095309521953F4F4F4F39
:101F00005F4F0895F6F790958095709561957F4F96
:101F10008F4F9F4F0895FB01DC014150504030F03E
:101F20008D910190801919F40020B9F7881B990B45
:101F30000895FB01DC014150504048F001900D92A2
:101F40000020C9F701C01D9241505040E0F70895AC
:101F5000DC01CB01FC01F999FECF06C0F2BDE1BD69
:101F6000F89A319600B40D9241505040B8F7089558
:041F7000F894FFCF13
:101F74004E005300450057002D2D3A2D2D2E2D2DAA
:101F84002D2D3F003A002E003000475047474100B6
:101F94004750524D43006A31006900005600250045
:101FA400445354202053504420545249502020413B
:101FB4004C54004E4F20484F4D4520504F53002D58
:101FC40000535044004C4F530066006700680041C2
:101FD4004C540002000232004200AA00CD00FF006F
:101FE4001801010201010201FF01FF0101010101C8
:041FF40001060100E1
:00000001FF
