:1000000047C0E9C960C05FC05EC05DC05CC05BC086
:100010005AC059C058C057C056C055C054C053C02C
:1000200052C051C050C04FC04EC04DC04CC04BC05C
:100030004AC049C00002030507090A0C0E1011133B
:100040001516181A1C1D1F2122242527292A2C2D9C
:100050002F303234353638393B3C3E3F4042434402
:10006000454748494A4B4D4E4F50515253545556AF
:10007000575758595A5B5B5C5D5D5E5F5F606061BE
:1000800061616262626363636364646464646400A4
:1000900011241FBECFEFD4E0DEBFCDBF11E0A0E042
:1000A000B1E0E8E8F7E102C005900D92A833B1078E
:1000B000D9F713E0A8E3B1E001C01D92A037B10762
:1000C000E1F7D8D35FCB9CCF68E671E0C6DA843B1A
:1000D000910520F0845B90404FEF01C041E08A35EC
:1000E000910530F024EB30E0B901681B790BCB01AE
:1000F000FC01EC5CFF4F8491849F802D11240895B6
:100100002F923F924F925F926F927F928F929F9227
:10011000AF92BF92CF92DF92EF92FF920F931F9315
:10012000DF93CF9300D000D00F92CDB7DEB77B0125
:100130008C0197FF0BC010950095F094E094E11CA2
:10014000F11C011D111D8FEF898302C0E1E0E983DD
:10015000C801B70120E432E44FE050E0C7DAA22E34
:10016000BB24CC24DD2480E1682E87E2782E812C0C
:10017000912CC801B701A4019301B8DA6A837B838B
:100180008C839D83C601B5012CE330E040E050E054
:1001900038DA1B012C01C601B50120EC3DEB40EF24
:1001A0005FEF2FDA6E0D7F1D801F911FA401930159
:1001B0009DDA220E311C411C511C6A817B818C818D
:1001C0009D812CE330E040E050E01BDA5B016C01E4
:1001D000C201B10120E737E140E050E012DA7B01D3
:1001E0008C01C601B50124E630E040E050E05CDA65
:1001F000E20EF31E041F151FF981FF3F41F4109515
:100200000095F094E094E11CF11C011D111DC80142
:10021000B7010F900F900F900F900F90CF91DF913B
:100220001F910F91FF90EF90DF90CF90BF90AF9014
:100230009F908F907F906F905F904F903F902F9006
:100240000895EBE4F3E0119283E0E635F807D9F77F
:100250000895A6E5B3E0E4E1F3E08AE001900D92B1
:100260008150E1F781E08093300308952FE531E07C
:1002700080E090E00BC01192E217F307E1F70196DE
:100280009F012F5D3F4F8430910559F0FC0145E0FF
:10029000EE0FFF1F4A95E1F7E80FF91FE25CFE4FF2
:1002A000EACF08952F923F924F925F926F927F9282
:1002B0008F929F92BF92CF92DF92EF92FF920F9315
:1002C0001F93CF93DF93C82EB62E79018A01DD24C8
:1002D000D3946AE0662E712C812C912C06C0CA0141
:1002E000B901A401930102DAD3942A303105410502
:1002F0005105ACF78B2D90E09C012D0D311D213265
:1003000031050CF057C021E23C2D329FE001112451
:10031000C80FD91FC25CDE4F17FF0BC010950095A8
:10032000F094E094E11CF11C011D111DCC24CA9431
:1003300001C0CC244E013E015AE0252E312C412C27
:10034000512CC801B701A2019101D0D9605DD30140
:100350006D933D018A2F8C1B79018A0112161306B9
:100360001406150674F3FC2DFF3F49F4E82FFF2710
:10037000E7FDF095EC0FFD1F9DE290838F5FE82F66
:10038000FF27E7FDF095EC0FFD1F10828150E82F4D
:10039000F0E03196EC0FFD1F90E007C0D4012C91E6
:1003A00032913D934D0120839F5F9817B8F38D2DB7
:1003B0008B0D01C081E2DF91CF911F910F91FF90D2
:1003C000EF90DF90CF90BF909F908F907F906F9035
:1003D0005F904F903F902F90089522EE32E080E0A2
:1003E00090E00BC01192E217F307E1F701969F012D
:1003F000285E3F4F8330910569F0FC01EE0FFF1F2F
:10040000E80FF91F73E0EE0FFF1F7A95E1F7E6534F
:10041000FD4FE8CF08950F931F93062FFA01DA01DD
:100420000D900020E9F711971A2F141B462F50E06A
:10043000410F511D413251050CF011E221E2829F22
:1004400090011124200F311D412F50E0C901825C21
:100450009E4FBF0180D9812F800F1F910F9108956A
:10046000FF920F931F93F82E1DDF682F8F2DA80189
:10047000D2DF1F910F91FF9008950F931F93182FB4
:10048000E42FF0E0EE0FFF1FE959FC4F00812181BE
:1004900030E040E050E006DF212F30E0F901B5E028
:1004A000EE0FFF1FBA95E1F7E20FF31FDF01A80F70
:1004B000B11DA25CBE4F9EE29C93682F6F5F0A3015
:1004C00038F4E60FF11DE25CFE4F80E380836F5F3E
:1004D000202F30E040E050E0812F00E011E0C0DF4D
:1004E0001F910F910895FF920F931F9301E0809148
:1004F0004B038D3209F000E0102F20E030E0A9011D
:10050000E12FF0E0E55BFC4FF0808F2D80538A30C7
:1005100028F5CA01B9012AE030E040E050E071D886
:100520002F2D30E020533040442737FD4095542F85
:10053000260F371F481F591F1F5F1B3008F300236A
:1005400021F06FEF7FEFCB0104C061E070E080E04D
:1005500090E057D81F910F91FF9008958F2D8E3204
:1005600059F3EDCFFF920F931F9301E080914B035E
:100570008D3209F000E0102F20E030E0A90114C016
:10058000CA01B9012AE030E040E050E03AD82F2D0E
:1005900030E020533040442737FD4095542F260F3C
:1005A000371F481F591F1F5FE12FF0E0E55BFC4F2D
:1005B000F0808F2D80538A3010F41B3008F3002315
:1005C00021F06FEF7FEFCB0104C061E070E080E0CD
:1005D00090E017D81F910F91FF90089580912E03FE
:1005E000882301F58BE493E062E071E045E050E0A0
:1005F000A4D8009731F481E080932E031092360145
:1006000008958BE493E068E071E045E050E095D810
:10061000009709F00AC182E080932E0384E680935C
:100620003601089580912D03882309F4FEC080913E
:1006300036018536E9F18636D8F4843009F469C08C
:10064000853048F48230F1F1833008F045C08130C4
:1006500009F0EBC02DC0863009F482C0863008F462
:1006600062C0873009F480C0893009F0DEC080C0E4
:100670008A3609F458C08B3648F4883669F18936D1
:1006800008F047C0873609F0D0C01CC08C3609F48A
:1006900088C08C3608F472C08D3609F488C0883C56
:1006A00009F0C3C0EBE4F3E080E090E0DC01AFC010
:1006B00059DF60931E0370931F0380932003909370
:1006C0002103089510DF6093140370931503809342
:1006D000160390931703089580914B03833509F017
:1006E000A4C08091140390911503A0911603B091BA
:1006F0001703B095A095909581959F4FAF4FBF4F31
:100700008093140390931503A0931603B0931703DB
:100710000895E9DE609318037093190380931A0318
:1007200090931B03089580914B03873509F07DC09A
:100730008091180390911903A0911A03B0911B03A3
:10074000B095A095909581959F4FAF4FBF4F8093E7
:10075000180390931903A0931A03B0931B030895F1
:1007600001DF609322030895FDDE60932303089563
:10077000F9DE70931D0360931C030895F3DE4FECC4
:1007800051E0649F9001659F300D749F300D1124DE
:10079000C9016AEF70E061D7709325036093240369
:1007A0000895E0DE70932703609326030895DADE50
:1007B000609328037093290380932A0390932B035B
:1007C000089534E0880F991FAA1FBB1F3A95D1F7EF
:1007D000322F3154363020F430E0275330400FC0F0
:1007E000322F3156363020F430E02755304007C0E4
:1007F000322F30533A3058F430E020533040442701
:1008000037FD4095542F820F931FA41FB51F2191D0
:10081000222321F033E0E735F30799F621E0309108
:100820002F03381320E020932C030895883108F516
:100830006831F8F4482F46954695469550E08095E6
:10084000877021E030E002C0220F331F8A95E2F763
:10085000FA01EE0FFF1FE40FF51F43E0EE0FFF1F3D
:100860004A95E1F7E60FF11DE653FD4F8081822B9B
:1008700080830895DF93CF93CDB7DEB765970FB62A
:10088000F894DEBF0FBECDBF20E12BB988E08AB956
:1008900029988CE084B983E08093690091E09DBB46
:1008A00080E880BF10927B001EBC8DB58E7F8DBD11
:1008B00084E58CBDE0913B01F0E0EE0FFF1FE25DAF
:1008C000FE4F808180933D0110927E0080917C00DC
:1008D000816480937C0080917A00866A80937A009C
:1008E00010927B002093C1008091C10084608093AE
:1008F000C1009093C50087E38093C4007894B6DC70
:100900006CDD8091C00087FF6CC01091C600909193
:1009100036019F3F21F4143209F063C010C0143235
:1009200071F0153230F41A3041F11D3009F046C033
:1009300024C01A3299F01C3209F040C00AC010924B
:100940002D0310922E0310922F031092360179DCA2
:1009500048C080912F03812780932F033FDE71DCF5
:1009600010922D03809136018F5F809336011A32E9
:10097000C1F588EC8093360134C030DE8FEF809370
:10098000360180912C03882361F180913003882304
:1009900041F480912403909125038A30910508F059
:1009A00058DCA1E3B3E0E4E1F3E089E101900D92CA
:1009B0008150E1F781E080934A0313C080912D03B9
:1009C000E82FF0E0E55BFC4F1083983C29F0909114
:1009D0002F03912790932F038A3018F48F5F809311
:1009E0002D034C990EC081E0809312038091130374
:1009F0008B3078F05B9A80912C03882351F029DCAE
:100A000008C08091120381115B981092120310921A
:100A1000130380913C01823009F053C010923C01D5
:100A200040913B0120E030E0CC24DD24842F90E095
:100A30008C0175E0000F111F7A95E1F7080F191F5F
:100A4000025C1E4F81E2489F500111246FE5262E63
:100A500061E0362EA20CB31C780189012AC0D301B3
:100A60008D913D018032A1F0882391F090E053E018
:100A7000880F991F5A95E1F78C0D9D1D805091406C
:100A8000B1E0883D9B0720F48050904073D601C0B0
:100A900080E0F10181931F016A147B0401F708943F
:100AA000C11CD11C0F5D1F4FF1E008301F0709F476
:100AB00028CF370142EC242E41E0342E200E311E87
:100AC000CECF80913C01813009F01BCF10923C01C8
:100AD00080911203882329F0809113038F5F809304
:100AE000130380916003882309F054C2809122038C
:100AF000882311F05B9A04C08BB198E089278BB9E9
:100B000080913003882309F4E7C16091310370912B
:100B1000320380913303909134032AE030E040E0C7
:100B200050E06FD57B018C016091560370915703A3
:100B3000809158039091590364D55B016C016E0D4F
:100B40007F1D801F911F97FF07C09095809570951E
:100B500061957F4F8F4F9F4F20E834E84EE150E082
:100B6000A3D5C901865A9F4FAFDA8E83C801B7015A
:100B7000C7DA1B012C01C601B501C2DA3B014C01E9
:100B8000609135037091360380913703909138035B
:100B90002AE030E040E050E034D5B2DA7B018C014D
:100BA00060915A0370915B0380915C0390915D03A7
:100BB0002AE030E040E050E024D5A2DA9B01AC010D
:100BC0002E193F09400B510B6218730884089508D1
:100BD0002E80622D772767FD7095872F972F11D56F
:100BE00024E630E040E050E081D519012A0132E0EE
:100BF000E32EF12C012D112DCC24C3940FC0C20182
:100C0000B101A801970172D519012A01C401B301EC
:100C1000A80197016BD539014A01CC0CA2019101C1
:100C200057FE07C022273327A90122193309440997
:100C300055092F3F6FEF360760E0460760E0560723
:100C4000F0F6D401C30197FE07C088279927DC017D
:100C500086199709A809B9098F3FEFEF9E07E0E0D1
:100C6000AE07E0E0BE0758F6CE822E873F87488B5E
:100C7000598B8A8B9B8BAC8BBD8BC201B101A201BE
:100C80009101BFD45B016C01C401B301A4019301C4
:100C9000B8D4E1E00FC022E0D694C794B794A794EB
:100CA0002A95D1F702E096958795779567950A95ED
:100CB000D1F7EE0FE92EFF24002711272D2D332722
:100CC00044275527E20EF31E041F151F2FEFE216CF
:100CD000F1040105110509F0F0F6EF839B01AC0169
:100CE0002A0D3B1D4C1D5D1D288739874A875B8770
:100CF00059016A01D694C794B794A794A114B1047A
:100D0000C104D10451F11D861C8602C0570168013F
:100D1000688579858A859B85A6019501C5D4790169
:100D20008A01EA0CFB1C0C1D1D1D16950795F794F6
:100D3000E794AE18BF08C00AD10A32E0A316B10486
:100D4000C104D10470F04C855D854F5F5F4F5D87B6
:100D50004C874A315105D1F604C0E884F9840A85EC
:100D60001B856F81262F30E040E050E0C801B701BD
:100D700048D47B018C01609361037093620380937C
:100D80006303909364031092660310926503161632
:100D90001706180619060CF07DC08E859F85A88958
:100DA000B9892A893B894C895D8982179307A407F1
:100DB000B507E0F0CA01B90124E630E040E050E0B8
:100DC00020D4A801970170D4F22E00E010E002C0F8
:100DD0000F5F1F4FC80178D9F8161CF00A351105AE
:100DE000B8F3109366030093650321C06E857F8579
:100DF0008889998924E630E040E050E002D4A801D7
:100E0000970152D4F22E00E010E002C00F5F1F4F96
:100E1000C8015AD9F8161CF00A351105B8F38AE54D
:100E200090E0801B910B909366038093650361149F
:100E300071048104910461F457FC03C08AE590E0D9
:100E400002C08EE091E0909366038093650322C018
:100E5000161417041804190464F480916503909122
:100E6000660357FC03C02AE530E00EC0825F9E4F48
:100E7000EACF809165039091660357FC03C0865AC0
:100E80009F4FE1CF2EE031E0281B390B30936603F2
:100E9000209365033E81E32EFF2400E010E0609183
:100EA000610370916203809163039091640325E371
:100EB00031E040E050E0A5D328EE33E040E050E0E0
:100EC00015D4C801B7019DD3609361037093620389
:100ED000809363039093640307E613E0FF24EAE042
:100EE000AE2EB12CC12CD12C80917C00807F8093C0
:100EF0007C0080917C00F3948F2980937C0080910A
:100F00007A00806480937A0080917A0084FFFCCF1D
:100F100080917A00806180937A006091780070916E
:100F2000790080E090E026E331E040E050E069D3D2
:100F3000A6019501B9D339014A017AE096948794C4
:100F4000779467947A95D1F7862D90E0982F88272B
:100F5000990F990FA0E0B0E019012A01281A390A67
:100F60004A0A5B0AC201B10124E630E040E050E0E9
:100F700048D3BAE09695879577956795BA95D1F756
:100F8000D8016C9311966C920E5F1F4FBF2DB3303A
:100F900009F0AACF809160038F5F809360038091F6
:100FA0006003823338F01092600380916D038F5F8D
:100FB00080936D0380916D038C3338F010926D0334
:100FC00080916E038F5F80936E0380916E038C33EC
:100FD00038F010926E0380916F038F5F80936F03E0
:100FE00080916F03833610F010926F033FD9FF2476
:100FF000A0E3EA2EFF2009F072C080916F038A30CF
:1010000020F4E0923E0161E001C060E020916F03B6
:1010100030E040E050E080E00DE111E021DA682F9F
:1010200080916E038A3030F4E62FF0E0E25CFE4FF0
:10103000E0826F5F20916E0330E040E050E080E09E
:101040000DE111E00DDA682F80916D038A3030F4E4
:10105000E62FF0E0E25CFE4FE0826F5F20916D03CF
:1010600030E040E050E080E01DD9682F6F5F80E005
:1010700040E003DA682F6F5F80E041E0FED9E82F9F
:10108000EF5F20916803F4E62F9F90011124809177
:101090006703280F311D41E0263D340798F42937B6
:1010A000310598F028573040A4E6B0E02A9FC001EF
:1010B0002B9F900D3A9F900D11246DE571E0CDD2DC
:1010C0009B0105C024E630E002C020E030E030E0C3
:1010D00040E050E080E06E2F0FE111E080C0BF2DB6
:1010E000B13039F52091610330916203409163037F
:1010F0005091640381E060E001E211E0B1D9682F12
:101100006F5F209165033091660340E050E081E01D
:1011100003E211E0A5D9682F6F5F80913003882327
:1011200019F04EE051E002C044E151E081E073D992
:1011300057C0EF2DE230B9F420911403309115031C
:10114000409116035091170382E060E0ABD82091E4
:1011500018033091190340911A0350911B0382E048
:1011600069E1A0D83DC02091230330E040E050E089
:1011700083E060E007E211E073D9682F6F5F809130
:101180002C03882319F045E151E002C049E151E008
:1011900083E041D9682F6F5F20911C0330911D03BC
:1011A000442737FD4095542F83E001E211E058D9E0
:1011B000682F6F5F209124033091250340E050E0B9
:1011C00083E009E211E04CD9682F6F5F209126037C
:1011D0003091270340E050E083E003E211E040D982
:1011E000F394FF2DF43009F005CFF7D886EF89830B
:1011F00081E08A838AEE8B831C828BE08D8366E19B
:1012000015DB8BE060E012DB86E16BE00FDB80E05A
:101210006BE00CDB1BE04BC0898187FD0AC08D8130
:1012200081508D838B818E5F8B8399818B81890F18
:1012300089838C818F5F8C838A818E5F8A83998179
:101240008A81890F89838C816D81655F855FEEDA84
:101250008C816D81655F212E281A822DE7DA8C81C1
:101260009D81612F691B855FE1DA8C819D81612FF2
:10127000691B312E381A832DD9DA8D816C81655F17
:10128000855FD4DA8D816C81655F412E481A842D8B
:10129000CDDA8D819C81612F691B855FC7DA8D81D5
:1012A0009C81612F691B512E581A852DBFDA9C81B4
:1012B0008D8198170CF4B0CF009143031091440333
:1012C0008091650390916603081B190BC801865A2B
:1012D0009F4FFAD6F82EC801F7D6E82F2091610368
:1012E0003091620340916303509164032A303105C9
:1012F00041055105DCF02F2D332727FD3095F3E014
:10130000220F331FFA95E1F7C90164E670E0B9D105
:101310009B018E2F992787FD9095E3E0880F991FF9
:10132000EA95E1F764E670E0ACD104C060E070E0FB
:1013300020E030E0E62FE55F1BE0121B412F50E07C
:101340004B50504057FF03C0509541955F4F2E2F93
:1013500030E02B50304037FF03C0309521953F4F90
:10136000FF24F3942417350724F0FF24812F1E2F28
:10137000E82F1B3028F04E2F012FEBE01BE002C0BE
:101380004BE00BE0E02EE11A242F30E02E1B310958
:1013900037FF03C0309521953F4FC22E8E2D62E05E
:1013A0004FD1A82E6E2EE41718F42224239402C0E5
:1013B00022242A94FF2019F0862D612F02C0812F4C
:1013C000662D34DAAC18A7FE02C0620CAE0C1F5FAB
:1013D000011780F796CA1F920F920FB60F92112431
:1013E0002F933F938F939F93AF93BF93EF93FF936D
:1013F00028E22A95F1F74A99ECC080913801909142
:101400003901009709F484C080913A01813021F0BC
:10141000823009F07DC051C0A0913B0188E18A95DE
:10142000F1F78091380190913901B0E0FD0125E09C
:10143000EE0FFF1F2A95E1F7EA0FFB1FE25CFE4F5C
:10144000AA0FBB1FA25DBE4F2D913C91821B930B37
:1014500096958795A1E28A9FD0011124AE53BE4F85
:1014600081E29191903221F0992311F0219A01C0EB
:1014700021989D919EBD000000000000000000002A
:10148000000000000000000000000000000000005C
:10149000000000000000000000000000815009F77B
:1014A000000000000000000000000000000000003C
:1014B000000000001EBC21982BC020ED2A95F1F7FA
:1014C000E0913801F0913901ED5BFD4F83E09081AF
:1014D0009EBD219A000000000000000000000000F6
:1014E00000000000000000000000000000000000FC
:1014F00000000000000000000000000000000000EC
:10150000000081507896882311F7219800001EBCB6
:1015100010923A018091380190913901019690938F
:10152000390180933801809138019091390121E08F
:101530008131920721F481E080933C0155C02091D4
:1015400038013091390180913D0190E02817390729
:1015500068F0209138013091390180913D0190E08F
:1015600040962817390710F481E030C020913801E7
:101570003091390180913D0190E04096281739075C
:10158000B1F482E080933C0180913B0190E00196B0
:101590008370907080933B01E0913B01F0E0EE0F8F
:1015A000FF1FE25DFE4F808180933D011DC0809151
:1015B00038019091390187389105B0F08091380158
:1015C000909139018F39910578F482E080933A0146
:1015D0000BC08091380190913901893C910520F030
:1015E0001092390110923801FF91EF91BF91AF91A4
:1015F0009F918F913F912F910F900FBE0F901F9051
:101600001895629FD001739FF001829FE00DF11D3C
:10161000649FE00DF11D929FF00D839FF00D749F6C
:10162000F00D659FF00D9927729FB00DE11DF91F18
:10163000639FB00DE11DF91FBD01CF011124089575
:1016400087FB082E062687FD819567FD619569D089
:101650000EF4919507FC81950895AA1BBB1B51E1DF
:1016600007C0AA1FBB1FA617B70710F0A61BB70B12
:10167000881F991F5A95A9F780959095BC01CD01B7
:10168000089597FB092E07260AD077FD04D0E5DFE1
:1016900006D000201AF4709561957F4F0895F6F7F3
:1016A000909581959F4F0895A1E21A2EAA1BBB1B0E
:1016B000FD010DC0AA1FBB1FEE1FFF1FA217B3071E
:1016C000E407F50720F0A21BB30BE40BF50B661F34
:1016D000771F881F991F1A9469F7609570958095F8
:1016E00090959B01AC01BD01CF01089597FB092E98
:1016F00005260ED057FD04D0D7DF0AD0001C38F4E1
:1017000050954095309521953F4F4F4F5F4F08952D
:10171000F6F790958095709561957F4F8F4F9F4F0D
:101720000895991B79E004C0991F961708F0961B3D
:10173000881F7A95C9F780950895FB01DC01415017
:10174000504030F08D910190801919F40020B9F7C4
:10175000881B990B0895FB01DC014150504048F073
:1017600001900D920020C9F701C01D9241505040D8
:10177000E0F70895F999FECF92BD81BDF89A9927B7
:0817800080B50895F894FFCF35
:1017880056004750474741004750524D4300482DA7
:10179800534554000046495800424144003A002548
:1017A800004D004445470053004B4D2F480033007F
:0817B8004C00E600FF00FF00F9
:00000001FF
