:1000000047C0FECC60C05FC05EC05DC05CC05BC06E
:100010005AC059C058C057C056C016CE54C053C05D
:1000200052C051C050C04FC04EC04DC04CC04BC05C
:100030004AC049C00002030507090A0C0E1011133B
:100040001516181A1C1D1F2122242527292A2C2D9C
:100050002F303234353638393B3C3E3F4042434402
:10006000454748494A4B4D4E4F50515253545556AF
:10007000575758595A5B5B5C5D5D5E5F5F606061BE
:1000800061616262626363636364646464646400A4
:1000900011241FBECFEFD4E0DEBFCDBF11E0A0E042
:1000A000B1E0E2E1FEE102C005900D92A438B10793
:1000B000D9F714E0A4E8B1E001C01D92AD31B10759
:1000C000E1F714D7A4CE9CCF68E671E00BDE843B49
:1000D000910520F0845B90404FEF01C041E08A35EC
:1000E000910530F024EB30E0B901681B790BCB01AE
:1000F000FC01EC5CFF4F8491849F802D11240895B6
:100100002F923F924F925F926F927F928F929F9227
:10011000AF92BF92CF92DF92EF92FF920F931F9315
:10012000DF93CF9300D000D00F92CDB7DEB77B0125
:100130008C0197FF0BC010950095F094E094E11CA2
:10014000F11C011D111D8FEF898302C0E1E0E983DD
:10015000C801B70120E432E44FE050E00CDEA22EEB
:10016000BB24CC24DD2480E1682E87E2782E812C0C
:10017000912CC801B701A4019301FDDD6A837B8343
:100180008C839D83C601B5012CE330E040E050E054
:100190007DDD1B012C01C601B50120EC3DEB40EFDC
:1001A0005FEF74DD6E0D7F1D801F911FA401930111
:1001B000E2DD220E311C411C511C6A817B818C8145
:1001C0009D812CE330E040E050E060DD5B016C019C
:1001D000C201B10120E737E140E050E057DD7B018B
:1001E0008C01C601B50124E630E040E050E0A1DD1D
:1001F000E20EF31E041F151FF981FF3F41F4109515
:100200000095F094E094E11CF11C011D111DC80142
:10021000B7010F900F900F900F900F90CF91DF913B
:100220001F910F91FF90EF90DF90CF90BF90AF9014
:100230009F908F907F906F905F904F903F902F9006
:1002400008952F923F924F925F926F927F928F927A
:100250009F92AF92BF92CF92DF92EF92FF920F9355
:100260001F93DF93CF93CDB7DEB768970FB6F8949F
:10027000DEBF0FBECDBF1B012C0129833A834B8308
:100280005C83AD82BE82CF82D886988A8F866E15B7
:100290007F058007910781F42A153B054C055D0514
:1002A00059F4D4011D921D921D921C921397EDA535
:1002B000FEA511821082A3C1C801B701620D731D92
:1002C000841D951D97FF07C0909580957095619549
:1002D0007F4F8F4F9F4F20E834E84EE150E029DDFB
:1002E000C901865A9F4FF0DE8987C201B10108DF3C
:1002F0005B016C01C801B70103DF3B014C0169815F
:100300007A818B819C81FCDE7B018C016D817E81F9
:100310008F819885F5DE9B01AC012E193F09400BBA
:10032000510B6A187B088C089D08F9856F2F772779
:1003300067FD7095872F972FA9DC24E630E040E019
:1003400050E019DD19012A01A2E0EA2EF12C012D5D
:10035000112DAA24A3940FC0C201B101A8019701D5
:100360000ADD19012A01C401B301A801970103DDC7
:1003700039014A01AA0CA201910157FE07C02227A8
:100380003327A90122193309440955092F3F6FEF7B
:10039000360760E0460760E05607F0F6D401C30177
:1003A00097FE07C088279927DC0186199709A809B5
:1003B000B9098F3FEFEF9E07E0E0AE07E0E0BE0730
:1003C00058F6A982298B3A8B4B8B5C8B8D8B9E8B3D
:1003D000AF8BB88FC201B101A201910157DC5B0163
:1003E0006C01C401B301A401930150DCE1E00FC032
:1003F000F2E0D694C794B794A794FA95D1F752E057
:1004000096958795779567955A95D1F7EE0FE92ED2
:10041000FF24002711272D2D332744275527E20ECF
:10042000F31E041F151F2FEFE216F104010511053D
:1004300009F0F0F6ED839B01AC012A0D3B1D4C1D2C
:100440005D1D29873A874B875C8759016A01D694DD
:10045000C794B794A794A114B104C104D10451F175
:100460001E861D8602C05701680169857A858B85C5
:100470009C85A60195015DDC79018A01EA0CFB1CD3
:100480000C1D1D1D16950795F794E794AE18BF082F
:10049000C00AD10A32E0A316B104C104D10470F03D
:1004A0004D855E854F5F5F4F5E874D874A315105B1
:1004B000D1F604C0E984FA840B851C856D81262F52
:1004C00030E040E050E0C801B701E0DB5B016C01C7
:1004D0008DA59EA5009709F476C0A114B104C104AE
:1004E000D10409F467C029893A894B895C898D89CF
:1004F0009E89AF89B88D281739074A075B07C0F076
:10050000BC01CD0124E630E040E050E0BFDBA601B5
:1005100095010FDCE22E00E010E002C00F5F1F4FDC
:10052000C801D2DDE8161CF10A351105B9F71FC064
:1005300069897A898B899C8924E630E040E050E023
:10054000A5DBA6019501F5DB022FEE24FF2403C0F5
:100550000894E11CF11CC701B7DD081724F09AE5E7
:10056000E916F104A9F70AE510E00E191F09611454
:1005700071048104910429F457FC1FC08AE590E0BE
:100580001EC016141704180419044CF457FC03C0B9
:100590008AE590E00CC0C801825F9E4F10C057FCF6
:1005A00004C0C801865A9F4F0AC08EE091E0801BAC
:1005B000910B05C080E090E002C08EE091E0ADA517
:1005C000BEA58D939C93C601B50125E331E040E0C3
:1005D00050E05CDB28EE33E040E050E0AADB79013C
:1005E0008A01B9812B2F30E040E050E0C801B7010B
:1005F0004DDBEF85F88960837183828393836896EE
:100600000FB6F894DEBF0FBECDBFCF91DF911F9123
:100610000F91FF90EF90DF90CF90BF90AF909F90A1
:100620008F907F906F905F904F903F902F900895A4
:10063000E1ECF3E0119283E0EC3CF807D9F7089580
:100640004F925F926F927F928F929F92AF92BF92E2
:10065000CF92DF92EF92FF920F931F93DF93CF938E
:100660000F92CDB7DEB72C01C62E79018A0117FF94
:1006700007C022273327A9012E193F09400B510B30
:10068000DD24D3948AE0882E912CA12CB12C06C0B5
:10069000CA01B901A50194016EDBD3942A3031055A
:1006A00041055105ACF717FDD3948C2D90E09C01CA
:1006B0002D0D311D213231050CF055C0480E591E4B
:1006C00017FF0BC010950095F094E094E11CF11C0D
:1006D000011D111D6FEF698301C019825201BAE03B
:1006E0006B2E712C812C912CC801B701A4019301B0
:1006F00042DB605DF50161935F018E2F8419790102
:100700008A01121613061406150674F3F981FF3FC9
:1007100049F4E82FFF27E7FDF095E40DF51D9DE274
:1007200090838F5FE82FFF27E7FDF095E40DF51D1F
:1007300010828150582F569540E0282F30E0842FAA
:1007400090E0D201A80FB91F6C91F901E81BF90BD9
:10075000E40DF51D80818C9360834F5F541778F70B
:100760008D2D8C0D01C081E20F90CF91DF911F91F3
:100770000F91FF90EF90DF90CF90BF90AF909F9040
:100780008F907F906F905F904F9008950F931F937D
:100790009C01062FFA01DA010D900020E9F711976C
:1007A0001A2F141B862F90E0810F911D8132910525
:1007B0000CF011E2412F50E0C901800F911DBF01E3
:1007C0000FDB812F800F1F910F9108950F931F93BF
:1007D000CF93DF93EC0134DF682FCE01A801D6DF81
:1007E000DF91CF911F910F9108950F931F93CF9396
:1007F000DF93EC01E42FF0E0EE0FFF1FE45FFB4F0F
:100800001081218130E040E050E0CE0119DFFE018F
:10081000E80FF11D9EE29083682F6F5F1A3030F46D
:10082000FE01E60FF11D80E380836F5F212F30E032
:1008300040E050E0CE0100E011E0C8DFDF91CF9151
:100840001F910F9108953F924F925F926F927F9206
:100850008F929F92AF92BF92CF92DF92EF92FF92D0
:100860000F931F93CF93DF93EC01162F69017A0149
:10087000211531054105510521F44AE051E086DF9B
:1008800055C0CA01B90120E432E44FE050E073DA08
:10089000422E552466247724C301B20120EC3DEB9F
:1008A00040EF5FEFF3D96C0D7D1D8E1D9F1D20E184
:1008B000822E27E2922EA12CB12CA50194015BDAA5
:1008C000322EC701B601A501940155DA4B015C0136
:1008D000002359F01C141D041E041F041CF482E0A4
:1008E00091E00DC084E091E00AC01C141D041E04B8
:1008F0001F041CF486E091E002C088E091E06C01E6
:10090000CE01612FA301920106E111E05FDF682FA4
:10091000232D30E040E050E0CE0108E111E056DF49
:10092000682FCE01A5019401860150DFDF91CF91A0
:100930001F910F91FF90EF90DF90CF90BF90AF90FD
:100940009F908F907F906F905F904F903F90089511
:10095000FF920F931F9301E08091C1038D3209F044
:1009600000E0102F20E030E0A901E12FF0E0EF538C
:10097000FC4FF0808F2D80538A3028F5CA01B901D1
:100980002AE030E040E050E081D92F2D30E02053C4
:100990003040442737FD4095542F260F371F481FFE
:1009A000591F1F5F1B3008F3002321F06FEF7FEF0B
:1009B000CB0104C061E070E080E090E067D91F9156
:1009C0000F91FF9008958F2D8E3259F3EDCFFF9246
:1009D0000F931F9301E08091C1038D3209F000E075
:1009E000102F20E030E0A90114C0CA01B9012AE0AB
:1009F00030E040E050E04AD92F2D30E02053304025
:100A0000442737FD4095542F260F371F481F591F85
:100A10001F5FE12FF0E0EF53FC4FF0808F2D8053EC
:100A20008A3010F41B3008F3002321F06FEF7FEFC2
:100A3000CB0104C061E070E080E090E027D91F9115
:100A40000F91FF9008958091BF03882301F581ECF9
:100A500093E06AE171E045E050E0B4D9009731F4E9
:100A600081E08093BF0310927901089581EC93E0B7
:100A700060E271E045E050E0A5D9009709F00AC1B5
:100A800082E08093BF0384E680937901089580918A
:100A9000BE03882309F4FEC0809179018536E9F10F
:100AA0008636D8F4843009F469C0853048F4823041
:100AB000F1F1833008F045C0813009F0EBC02DC062
:100AC000863009F482C0863008F462C0873009F4A9
:100AD00080C0893009F0DEC080C08A3609F458C071
:100AE0008B3648F4883669F1893608F047C0873676
:100AF00009F0D0C01CC08C3609F488C08C3608F4CC
:100B000072C08D3609F488C0883C09F0C3C0E1EC9E
:100B1000F3E080E090E0DC01AFC059DF6093AF0309
:100B20007093B0038093B1039093B203089510DFE4
:100B30006093A5037093A6038093A7039093A803E3
:100B400008958091C103833509F0A4C08091A50365
:100B50009091A603A091A703B091A803B095A0958A
:100B6000909581959F4FAF4FBF4F8093A503909372
:100B7000A603A093A703B093A8030895E9DE6093AA
:100B8000A9037093AA038093AB039093AC030895D9
:100B90008091C103873509F07DC08091A9039091B0
:100BA000AA03A091AB03B091AC03B095A09590952A
:100BB00081959F4FAF4FBF4F8093A9039093AA0396
:100BC000A093AB03B093AC03089501DF6093B3032C
:100BD0000895FDDE6093B4030895F9DE7093AE03CB
:100BE0006093AD030895F3DE4FEC51E0649F9001F4
:100BF000659F300D749F300D1124C9016AEF70E0BC
:100C000071D87093B6036093B5030895E0DE7093D6
:100C1000B8036093B7030895DADE6093B903709365
:100C2000BA038093BB039093BC03089534E0880F0C
:100C3000991FAA1FBB1F3A95D1F7322F3154363076
:100C400020F430E0275330400FC0322F3156363079
:100C500020F430E02755304007C0322F30533A306F
:100C600058F430E020533040442737FD4095542F4E
:100C7000820F931FA41FB51F2191222321F033E07F
:100C8000ED3CF30799F621E03091C003381320E0E2
:100C90002093BD030895883108F56831F8F4482F92
:100CA00046954695469550E08095877021E030E066
:100CB00002C0220F331F8A95E2F7FA01EE0FFF1FE1
:100CC000E40FF51F43E0EE0FFF1F4A95E1F7E60F33
:100CD000F11DE55AFC4F8081822B80830895FF929D
:100CE0000F931F93DF93CF9300D000D00F92CDB717
:100CF000DEB7182F81E0982F911B99838A83812F6B
:100D00008195880F8B831C821D83EBE0FE2EF10EF4
:100D10008BE06F2DC0DF0BE0011B8BE0602FBBDF92
:100D20008F2D6BE0B8DF802F6BE0B5DF1BE04BC091
:100D3000898187FD0AC08D8181508D838B818E5F73
:100D40008B8399818B81890F89838C818F5F8C83C1
:100D50008A818E5F8A8399818A81890F89838C81B8
:100D60006D81655F855F97DF8C816D81655F912FF8
:100D7000981B892F90DF8C819D81612F691B855F76
:100D80008ADF8C819D81612F691B912F981B892F90
:100D900082DF8D816C81655F855F7DDF8D816C81F8
:100DA000655F912F981B892F76DF8D819C81612F44
:100DB000691B855F70DF8D819C81612F691B912F7D
:100DC000981B892F68DF9C818D8198170CF4B0CF18
:100DD0000F900F900F900F900F90CF91DF911F9178
:100DE0000F91FF900895AF92BF92CF92DF92EF9252
:100DF000FF920F931F93382F562F142FA22FB0E07E
:100E0000A61BB109B7FF03C0B095A195BF4FE12F55
:100E1000F0E0E31BF109F7FF03C0F095E195FF4F08
:100E200001E0EA17FB0714F000E006C0812F122F43
:100E3000282F832F352F582F131730F4852F522F3B
:100E4000282F832F312F182FF12EF31AE22FF0E0E5
:100E5000E51BF109F7FF03C0F095E195FF4FEE2E7A
:100E60008F2D62E032D7D82EB52E521718F4AA244F
:100E7000A39402C0AA24AA94C32E0EC0002319F082
:100E80008B2D6C2D02C08C2D6B2D05DFDE18D7FE4F
:100E900002C0BA0CDF0CC3941C1580F71F910F9190
:100EA000FF90EF90DF90CF90BF90AF900895109299
:100EB000FA031092F9031092EC031092EB031092D4
:100EC000F8031092F703109203041092020408959D
:100ED000EEDFADEEB3E0ECECF3E08AE001900D92D2
:100EE0008150E1F781E08093EA030895DF93CF9387
:100EF000CDB7DEB728970FB6F894DEBF0FBECDBFD3
:100F000030E13BB988E08AB929988CE084B98091B6
:100F10006F00816080936F00809181008260809378
:100F2000810083E08093690021E02DBB80E880BFD1
:100F300010927B001EBC8DB58E7F8DBD84E58CBD6F
:100F4000E0918801F0E0EE0FFF1FE959FE4F80812C
:100F5000918190938B0180938A0110927E00809101
:100F60007C00806480937C0080917A00866080930E
:100F70007A0010927B003093C1008091C1008460A0
:100F80008093C1002093C50087E38093C4007894C8
:100F90003DE8232E31E0332E8091C00087FFE6C06C
:100FA0000091C600909179019F3F21F4043209F02D
:100FB000DDC010C0043271F0053230F40A3049F15E
:100FC0000D3009F0C0C025C00A3299F00C3209F08A
:100FD000BAC00AC01092BE031092BF031092C003A1
:100FE0001092790125DBC2C08091C00380278093D5
:100FF000C00329DD1DDB1092BE03809179018F5F54
:10100000809379010A3209F0B1C088EC80937901AC
:10101000ADC019DD8FEF809379018091BD038823E6
:1010200009F4A4C06091CC037091CD038091CE03EC
:101030009091CF032091D0033091D1034091D203FE
:101040005091D303E090A503F090A6030091A7036D
:101050001091A803A090A903B090AA03C090AB037D
:10106000D090AC036E157F058007910729F42A15EF
:101070003B054C055D05D1F000D0ADB7BEB712966B
:101080001C921E9211974E010894811C911CD9D874
:101090008091F9039091FA0329813A81820F931F7D
:1010A0009093FA038093F9030F900F90ACECB3E0A8
:1010B000E5EAF3E089E101900D928150E1F781E0EA
:1010C0008093E5038091E6039091E7039093E90311
:1010D0008093E8038091DC039091DD0321E083306D
:1010E000910508F020E020937A012091EA03222361
:1010F00049F42091DA032223C9F18A309105B0F135
:10110000E7DE34C02091EB033091EC032817390758
:1011100020F49093EC038093EB038091D40390919F
:10112000D5032091F5033091F603821B930B209198
:10113000F7033091F80328173907C4F49093F803A4
:101140008093F70313C08091BE03E82FF0E0EF53C4
:10115000FC4F0083983C29F09091C0039027909316
:10116000C0038A3018F48F5F8093BE034C9912C07D
:1011700081E08093A3038091A403833398F05B9A6A
:101180008091BD03882371F08091B303882351F0CF
:101190009FDE08C08091A30381115B981092A30386
:1011A0001092A40380918901823009F05EC01092F0
:1011B00089018091880100E010E0CC24DD2490E0DA
:1011C0007C0125E0EE0CFF1C2A95E1F7E80EF91EE4
:1011D000EDE8F1E0EE0EFF1E470183E5A82E82E068
:1011E000B82EA00EB11EB4E76B2EB2E07B2E600EBF
:1011F000711ED4012D914D01203229F1222319F1C4
:10120000822F90E0243678F084569040A3E0880F37
:10121000991FAA95E1F78C0D9D1D8035910598F4D5
:10122000805090400EC08597F3E0880F991FFA9583
:10123000E1F78C0D9D1DB1E0803B9B0720F4805BA6
:101240009F4FDDD501C080E0F50181935F01E61578
:10125000F70579F60894C11CD11C0F5D1F4FF1E012
:1012600008301F0709F0B8CF97CE809189018130EF
:1012700009F092CE109289018091A303882329F06E
:101280008091A4038F5F8093A4038091FB03882344
:1012900009F037C18091B303882311F05B9A04C031
:1012A0008BB198E089278BB98091EA03882309F4F0
:1012B00047C000D06091CC037091CD038091CE03E4
:1012C0009091CF032091D0033091D1034091D2036C
:1012D0005091D303E090ED03F090EE030091EF0303
:1012E0001091F003A090F103B090F203C090F303CB
:1012F000D090F403E0E0F4E0ADB7BEB71296FC93F3
:10130000EE931197ECEF8E2EE3E09E2E9AD780910C
:10131000FC039091FD03A091FE03B091FF03209187
:1013200002043091030440E050E00F900F90281722
:1013300039074A075B0720F4909303048093020463
:10134000B4E08B2EB4E09B2EABE76A2EA1E07A2EA0
:10135000FFE74F2EF1E05F2EECE0CE2EE4E0DE2E34
:10136000AA24860180917C00807F80937C008091FC
:101370007C008A2980937C0080917A00806A809327
:101380007A0080917A00806480937A0080917A005C
:1013900084FFFCCF80917A00806180937A008091F5
:1013A0007A008F7580937A0060917800709179004F
:1013B000F401619371934F0180E090E026E331E006
:1013C00040E050E063D42AE030E040E050E0B1D4A7
:1013D00069017A01D3012D913D0130E040E050E0F8
:1013E000C701B60153D4F20121912F0130E040E052
:1013F00050E09FD469017A017AE0F694E794D7949B
:10140000C7947A95D1F7CD82DE82EF82F8868C2D53
:1014100090E0982F8827990F990FA0E0B0E069011C
:101420007A01C81AD90AEA0AFB0AC701B60124E6FA
:1014300030E040E050E02AD45AE0969587957795C1
:1014400067955A95D1F7D8016C93ED811196EC937D
:101450001197A3940E5F1F4FFA2DF43009F082CF3D
:1014600081E090E02091DC033091DD03293C3105DF
:1014700010F480E090E09093150480931404809120
:10148000D4039091D5032091F5033091F603821B8C
:10149000930B21E030E043E18938940710F420E019
:1014A00030E0309317042093160421E030E080915F
:1014B000FC039091FD03A091FE03B091FF038131E5
:1014C00067E2960760E0A60760E0B60710F420E048
:1014D00030E0309319042093180490910D0484E6B1
:1014E000989FC001112420910C04820F911D21E0CE
:1014F000A1E0843F9A0708F020E020931A0410929C
:101500001B048091FB038F5F8093FB038091FB039F
:10151000823378F01092FB038091E6038F5F809313
:10152000E60380911C0490E0019681709070809396
:101530001C048091E6038C3338F01092E60380910E
:10154000E7038F5F8093E7038091E7038C3310F00C
:101550001092E7034EEAC42E41E0D42EEE24FF247D
:1015600034E6632E24E6A22EB12C9CE7892E91E06E
:10157000992EA0C11192EC15FD05E1F78E2DEE20FC
:10158000D1F58DE891E060E046E251E0FFD88DE8CA
:1015900091E067E049E251E0F9D88DE891E06EE032
:1015A0004CE251E0F3D88091E7038A3028F480E3DD
:1015B000F101838F6CE101C06BE12091E70330E022
:1015C00040E050E08DE891E006E111E0FFD8682F9F
:1015D0008091E6038A3038F4E62FF0E0E357FE4FBF
:1015E00080E380836F5F2091E60330E040E050E0CD
:1015F0008DE891E0A1C0813009F04DC08EEA91E004
:1016000060E24EE251E0C2D880911A04882321F0B2
:1016100080911C04882329F08EEA91E060E040E08C
:10162000E4D880911B04882321F080911C04882336
:1016300029F08EEA91E067E041E0D7D820911104CB
:10164000F62D2F9F9001112480911004280F311D39
:1016500041E0253F340778F42937310578F02857E1
:1016600030402A9DC0012B9D900D3A9D900D112474
:10167000B40138D305C064E670E002C060E070E0F9
:10168000262F30E040E050E08EEA91E06EE00FE27D
:1016900011E09CD8FFC08230D1F480917A01882378
:1016A00009F4F8C08091EA03882331F08FEC91E0CF
:1016B00067E041E351E0EDC080911C04882309F408
:1016C000E9C08FEC91E06AE044E451E0E2C083308D
:1016D00009F050C080917A01882309F4DBC0809121
:1016E000EA03882359F1209102043091030440E079
:1016F00050E080EF91E067E0A3D72091EB033091B9
:10170000EC0340E050E080EF91E06CE099D720914D
:10171000F9033091FA0340E050E080EF91E060E19E
:101720008FD72091F7033091F803442737FD409578
:10173000542F80EF91E066E183D7ACC02091CC03B9
:101740003091CD034091CE035091CF0380EF91E0D3
:1017500064E001E078D8682F6E5F2091D00330916B
:10176000D1034091D2035091D30380EF91E000E088
:101770006AD890C0843009F065C0809114049091BB
:101780001504009721F080911C04882351F02091CA
:10179000DC033091DD0340E050E081E192E060E065
:1017A0004FD78091EA03882339F481E192E065E024
:1017B00040E551E0EBD716C08091180490911904D0
:1017C000009721F080911C04882361F02091FC0394
:1017D0003091FD034091FE035091FF0381E192E0BF
:1017E00065E02ED78091DA03882351F02091DB0346
:1017F00030E040E050E081E192E067E121D706C0AF
:1018000081E192E067E140E551E0C0D780911604A4
:1018100090911704009721F080911C048823D1F146
:101820002091D4033091D5038091F5039091F60374
:10183000281B390B442737FD4095542F81E192E056
:101840006CE17ACF82E392E060E042E551E09ED71E
:1018500082E392E065E046E551E098D79091EA0393
:10186000682F6D5F992329F082E392E04AE551E009
:1018700004C082E392E04CE551E088D782E392E035
:1018800067E14EE551E082D782E392E06CE140E609
:1018900051E07CD70894E11CF11C81E290E0C80E75
:1018A000D91E96E0E916F10429F423E733E080E03D
:1018B00090E016C0F70185E0EE0FFF1F8A95E1F773
:1018C000EE0DFF1DE357FE4F55CE1192E217F307C1
:1018D000E1F701969F01285E3F4F8330910569F043
:1018E000FC01EE0FFF1FE80FF91F13E0EE0FFF1FC3
:1018F0001A95E1F7E55AFC4FE8CF009100041091EA
:1019000001048091DE039091DF03081B190B8BE02B
:10191000E6D98091FC039091FD03A091FE03B09164
:10192000FF038A309105A105B10518F482E0D7D9EB
:1019300033CB8091DC039091DD038A30910520F058
:101940008091B303882351F485E065E041E121E112
:101950004ADA85E061E141E125E050C0C801865ADC
:101960009F4FB2D3E82EC801AFD3E82F4E2D552795
:1019700047FD5095B3E0440F551FBA95E1F724E6B3
:1019800030E0CA01B901C2D14B018E2F992787FDE2
:101990009095A3E0880F991FAA95E1F7B901B6D1F8
:1019A0005B01682DFBE0CF2ECA0C8BE0E82EE81817
:1019B000655F8A194C2D2E2D16DA02E010E0C40165
:1019C000B801A4D1709561957F4F462F455FC50141
:1019D000B8019CD1709561957F4F262F255F8C2D86
:1019E0006E2D01DAC401B80191D1462F455FC501C2
:1019F000B8018CD1262F255F8C2D6E2DF4D9CCCA41
:101A00001F920F920FB60F9211242F933F934F9373
:101A10005F936F937F938F939F93AF93BF93EF9356
:101A2000FF9388E28A95F1F7809184019091850176
:101A30004A99F2C0009709F47FC0809187018130F4
:101A400021F0823009F078C04AC090918801E8E125
:101A5000EA95F1F7292F30E0F90175E0EE0FFF1F4D
:101A60007A95E1F7E20FF31FE357FE4FA0918C0147
:101A700081E2A89FD0011124AD5ABD4F989FC001AB
:101A8000112482559E4F2191203221F0222311F002
:101A9000219A02C0219800002D912EBD0000000067
:101AA0000000000000000000000000000000000036
:101AB0000000000000000000000000000000E81727
:101AC000F90709F700000000000000000000000016
:101AD00000000000000000001EBC21982DC083E122
:101AE00091E00197F1F700C00000E0918C01F0E077
:101AF000E55AFC4F80E090819EBD219A00000000D5
:101B000000000000000000000000000000000000D5
:101B100000000000000000000000000000000000C5
:101B2000000000000000000000008F5F7896833006
:101B300011F7219800001EBC10928701809184014A
:101B400090918501019690938501809384018E3652
:101B5000910511F421E004C08F36910519F422E0BB
:101B60002093890120918A0130918B01821793077C
:101B7000A0F040916401509165018417950768F4C5
:101B800041E040938701821B80938C019091660114
:101B9000923009F048C0869531C02091640130919F
:101BA00065018217930769F582E08093890180912E
:101BB000880190E0019666E070E0A8D080938801EB
:101BC000FC01EE0FFF1FE959FE4F20813181309358
:101BD0008B0120938A018D589E4FFC018081809358
:101BE000660190E053E0880F991F5A95E1F7820F44
:101BF000931F909365018093640181E080938C0131
:101C000012C09C01295630402831310560F422E091
:101C1000209387018956F2CF893C910520F01092DC
:101C2000850110928401FF91EF91BF91AF919F9137
:101C30008F917F916F915F914F913F912F910F9075
:101C40000FBE0F901F9018951F920F920FB60F9214
:101C500011242F933F938F939F93809184019091B0
:101C600085012091860130E02817390721F42BB136
:101C700038E023272BB9809386019F918F913F9164
:101C80002F910F900FBE0F901F901895629FD0015B
:101C9000739FF001829FE00DF11D649FE00DF11D27
:101CA000929FF00D839FF00D749FF00D659FF00DD6
:101CB0009927729FB00DE11DF91F639FB00DE11DC3
:101CC000F91FBD01CF011124089587FB082E0626B8
:101CD00087FD819567FD619569D00EF4919507FCAC
:101CE00081950895AA1BBB1B51E107C0AA1FBB1F0A
:101CF000A617B70710F0A61BB70B881F991F5A9598
:101D0000A9F780959095BC01CD01089597FB092E08
:101D100007260AD077FD04D0E5DF06D000201AF4AC
:101D2000709561957F4F0895F6F7909581959F4F37
:101D30000895A1E21A2EAA1BBB1BFD010DC0AA1F0C
:101D4000BB1FEE1FFF1FA217B307E407F50720F024
:101D5000A21BB30BE40BF50B661F771F881F991F9F
:101D60001A9469F760957095809590959B01AC01E8
:101D7000BD01CF01089597FB092E05260ED057FD12
:101D800004D0D7DF0AD0001C38F450954095309528
:101D900021953F4F4F4F5F4F0895F6F790958095EF
:101DA000709561957F4F8F4F9F4F0895991B79E0F4
:101DB00004C0991F961708F0961B881F7A95C9F7DB
:101DC00080950895FB01DC014150504030F08D9129
:101DD0000190801919F40020B9F7881B990B089518
:101DE000FB01DC014150504048F001900D92002071
:101DF000C9F701C01D9241505040E0F70895F9998C
:101E0000FECF92BD81BDF89A992780B50895F894C8
:021E1000FFCF02
:101E120056004E005300450057002D2D3A2D2D2E11
:101E22002D2D2D2D3F003A002E00475047474100EF
:101E32004750524D43006A31006A32006900002562
:101E4200004C4F53202053504420545249502020DC
:101E5200414C54004E4F20484F4D4520504F5300A7
:101E62002D00535044004C4F530066006700680039
:101E7200414C540002000232004200AA00C800FF96
:101E8200001801010201010201FF0101010101012A
:041E92000106010044
:00000001FF
