:1000000047C0CBCA60C05FC05EC05DC05CC05BC0A3
:100010005AC059C058C057C056C055C054C053C02C
:1000200052C051C050C04FC04EC04DC04CC04BC05C
:100030004AC049C00002030507090A0C0E1011133B
:100040001516181A1C1D1F2122242527292A2C2D9C
:100050002F303234353638393B3C3E3F4042434402
:10006000454748494A4B4D4E4F50515253545556AF
:10007000575758595A5B5B5C5D5D5E5F5F606061BE
:1000800061616262626363636364646464646400A4
:1000900011241FBECFEFD4E0DEBFCDBF11E0A0E042
:1000A000B1E0ECE5F9E102C005900D92A034B10792
:1000B000D9F713E0A0E4B1E001C01D92A638B10762
:1000C000E1F73BD549CC9CCF68E671E0B0DB843BDF
:1000D000910520F0845B90404FEF01C041E08A35EC
:1000E000910530F024EB30E0B901681B790BCB01AE
:1000F000FC01EC5CFF4F8491849F802D11240895B6
:100100002F923F924F925F926F927F928F929F9227
:10011000AF92BF92CF92DF92EF92FF920F931F9315
:10012000DF93CF9300D000D00F92CDB7DEB77B0125
:100130008C0197FF0BC010950095F094E094E11CA2
:10014000F11C011D111D8FEF898302C0E1E0E983DD
:10015000C801B70120E432E44FE050E0B1DBA22E49
:10016000BB24CC24DD2480E1682E87E2782E812C0C
:10017000912CC801B701A4019301A2DB6A837B83A0
:100180008C839D83C601B5012CE330E040E050E054
:1001900022DB1B012C01C601B50120EC3DEB40EF39
:1001A0005FEF19DB6E0D7F1D801F911FA40193016E
:1001B00087DB220E311C411C511C6A817B818C81A2
:1001C0009D812CE330E040E050E005DB5B016C01F9
:1001D000C201B10120E737E140E050E0FCDA7B01E9
:1001E0008C01C601B50124E630E040E050E046DB7A
:1001F000E20EF31E041F151FF981FF3F41F4109515
:100200000095F094E094E11CF11C011D111DC80142
:10021000B7010F900F900F900F900F90CF91DF913B
:100220001F910F91FF90EF90DF90CF90BF90AF9014
:100230009F908F907F906F905F904F903F902F9006
:100240000895E9E3F3E0119283E0E434F807D9F785
:100250000895A5E6B3E0E4E4F3E08AE001900D92AE
:100260008150E1F781E080936403089528E631E04E
:1002700080E090E00BC01192E217F307E1F70196DE
:100280009F012F5D3F4F8430910559F0FC0145E0FF
:10029000EE0FFF1F4A95E1F7E80FF91FE95BFE4FEC
:1002A000EACF08954F925F926F927F928F929F92C2
:1002B000BF92CF92DF92EF92FF920F931F93CF9353
:1002C000DF93C82EB62E79018A01DD24D3946AE02B
:1002D000662E712C812C912C06C0CA01B901A40193
:1002E0009301EEDAD3942A30310541055105ACF77C
:1002F0008B2D90E09C012D0D311D213231050CF02C
:100300005CC021E23C2D329FE0011124C80FD91FAF
:10031000C95BDE4F17FF0BC010950095F094E09479
:10032000E11CF11C011D111DCC24CA9401C0CC2478
:100330004E015AE0452E512C612C712CC801B70199
:10034000A3019201BDDA605DF40161934F018E2F2C
:100350008C1B79018A01121613061406150674F314
:100360007C2D7F3F49F4E82FFF27E7FDF095EC0F48
:10037000FD1F9DE290838F5FE82FFF27E7FDF0953B
:10038000EC0FFD1F10828150582F569540E0282F0A
:1003900030E0842F90E0DE01A80FB91F6C91F901C5
:1003A000E81BF90BEC0FFD1F80818C9360834F5F7E
:1003B000541778F78D2D8B0D01C081E2DF91CF911D
:1003C0001F910F91FF90EF90DF90CF90BF909F9083
:1003D0008F907F906F905F904F9008952BEE32E05A
:1003E00080E090E00BC01192E217F307E1F701966D
:1003F0009F01285E3F4F8330910569F0FC01EE0FAD
:10040000FF1FE80FF91F73E0EE0FFF1F7A95E1F76A
:10041000ED52FD4FE8CF08950F931F93062FFA0179
:10042000DA010D900020E9F711971A2F141B462FBF
:1004300050E0410F511D413251050CF011E221E213
:10044000829F90011124200F311D412F50E0C901DE
:10045000895B9E4FBF0169DA812F800F1F910F9139
:100460000895FF920F931F93F82E1CDF682F8F2D96
:10047000A801D2DF1F910F91FF9008950F931F9352
:10048000182FE42FF0E0EE0FFF1FE258FC4F008121
:10049000218130E040E050E005DF212F30E0F9011C
:1004A000B5E0EE0FFF1FBA95E1F7E20FF31FDF0192
:1004B000A80FB11DA95BBE4F9EE29C93682F6F5F92
:1004C0000A3038F4E60FF11DE95BFE4F80E38083CC
:1004D0006F5F202F30E040E050E0812F00E011E01E
:1004E000C0DF1F910F9108952F923F924F925F921C
:1004F0006F927F928F929F92AF92BF92CF92DF9234
:10050000EF92FF920F931F93B82E162F69017A0175
:10051000CA01B90120E432E44FE050E0D1D9222EE3
:10052000332444245524C201B10120EC3DEB40EFBB
:100530005FEF51D96C0D7D1D8E1D9F1D20E1622E38
:1005400027E2722E812C912CA4019301B9D9A22EFD
:10055000C701B601A4019301B3D93B014C010023AB
:1005600059F01C141D041E041F041CF482E091E0C9
:100570000DC084E091E00AC01C141D041E041F0479
:100580001CF486E091E002C088E091E06C018B2DC4
:10059000612FA20191010AE011E063DF682F2A2D8B
:1005A00030E040E050E08B2D0CE011E05ADF682F86
:1005B0008B2DA4019301860154DF1F910F91FF90B1
:1005C000EF90DF90CF90BF90AF909F908F907F90F3
:1005D0006F905F904F903F902F900895FF920F93F0
:1005E0001F9301E0809139038D3209F000E0102F54
:1005F00020E030E0A90114C0CA01B9012AE030E0CE
:1006000040E050E0E8D82F2D30E020533040442720
:1006100037FD4095542F260F371F481F591F1F5F66
:10062000E12FF0E0E75CFC4FF0808F2D80538A30A3
:1006300010F41B3008F3002321F06FEF7FEFCB01A4
:1006400004C061E070E080E090E0C5D81F910F9198
:10065000FF900895FF920F931F9301E0809139035B
:100660008D3209F000E0102F20E030E0A901E12FE9
:10067000F0E0E75CFC4FF0808F2D80538A3028F546
:10068000CA01B9012AE030E040E050E0A4D82F2DA3
:1006900030E020533040442737FD4095542F260F3B
:1006A000371F481F591F1F5F1B3008F3002321F01D
:1006B0006FEF7FEFCB0104C061E070E080E090E07D
:1006C0008AD81F910F91FF9008958F2D8E3259F384
:1006D000EDCF80913703882301F589E393E06EE045
:1006E00071E045E050E013D9009731F481E0809348
:1006F000370310923E01089589E393E064E171E0CD
:1007000045E050E004D9009709F00AC182E08093E7
:10071000370384E680933E01089580913603882351
:1007200009F4FEC080913E018536E9F18636D8F4A1
:10073000843009F469C0853048F48230F1F18330A7
:1007400008F045C0813009F0EBC02DC0863009F4B7
:1007500082C0863008F462C0873009F480C08930D6
:1007600009F0DEC080C08A3609F458C08B3648F4E0
:10077000883669F1893608F047C0873609F0D0C05D
:100780001CC08C3609F488C08C3608F472C08D36D3
:1007900009F488C0883C09F0C3C0E9E3F3E080E0D5
:1007A00090E0DC01AFC01ADF609327037093280349
:1007B0008093290390932A0308954CDF60931D03CF
:1007C00070931E0380931F039093200308958091DC
:1007D0003903833509F0A4C080911D0390911E0355
:1007E000A0911F03B0912003B095A095909581959D
:1007F0009F4FAF4FBF4F80931D0390931E03A09355
:100800001F03B0932003089525DF609321037093A5
:100810002203809323039093240308958091390346
:10082000873509F07DC08091210390912203A0912A
:100830002303B0912403B095A095909581959F4F87
:10084000AF4FBF4F8093210390932203A0932303C4
:10085000B09324030895C2DE60932B030895BEDE97
:1008600060932C030895BADE7093260360932503EA
:100870000895B4DE4FEC51E0649F9001659F300D08
:10088000749F300D1124C9016AEF70E0D0D77093C6
:100890002E0360932D030895A1DE709330036093BF
:1008A0002F0308959BDE609331037093320380938E
:1008B000330390933403089534E0880F991FAA1FDF
:1008C000BB1F3A95D1F7322F3154363020F430E047
:1008D000275330400FC0322F3156363020F430E0ED
:1008E0002755304007C0322F30533A3058F430E0AB
:1008F00020533040442737FD4095542F820F931FDB
:10090000A41FB51F2191222321F033E0E534F30722
:1009100099F621E030913803381320E02093350315
:100920000895883108F56831F8F4482F46954695C2
:10093000469550E08095877021E030E002C0220F9C
:10094000331F8A95E2F7FA01EE0FFF1FE40FF51F40
:1009500043E0EE0FFF1F4A95E1F7E60FF11DED5260
:10096000FD4F8081822B80830895FF920F931F9308
:10097000DF93CF9300D000D00F92CDB7DEB7182F02
:1009800081E0982F911B99838A83812F8195880F0D
:100990008B831C821D83EBE0FE2EF10E8BE06F2D0E
:1009A000C0DF0BE0011B8BE0602FBBDF8F2D6BE006
:1009B000B8DF802F6BE0B5DF1BE04BC0898187FD7E
:1009C0000AC08D8181508D838B818E5F8B8399814D
:1009D0008B81890F89838C818F5F8C838A818E5F65
:1009E0008A8399818A81890F89838C816D81655F72
:1009F000855F97DF8C816D81655F912F981B892FB3
:100A000090DF8C819D81612F691B855F8ADF8C81DE
:100A10009D81612F691B912F981B892F82DF8D810A
:100A20006C81655F855F7DDF8D816C81655F912F56
:100A3000981B892F76DF8D819C81612F691B855FD3
:100A400070DF8D819C81612F691B912F981B892FED
:100A500068DF9C818D8198170CF4B0CF0F900F90B8
:100A60000F900F900F90CF91DF911F910F91FF90FA
:100A70000895AF92BF92CF92DF92EF92FF920F93C1
:100A80001F93382F562F142FA22FB0E0A61BB109A9
:100A9000B7FF03C0B095A195BF4FE12FF0E0E31B76
:100AA000F109F7FF03C0F095E195FF4F01E0EA1768
:100AB000FB0714F000E006C0812F122F282F832F90
:100AC000352F582F131730F4852F522F282F832FAF
:100AD000312F182FF12EF31AE22FF0E0E51BF10968
:100AE000F7FF03C0F095E195FF4FEE2E8F2D62E0EA
:100AF00091D6D82EB52E521718F4AA24A39402C06A
:100B0000AA24AA94C32E0EC0002319F08B2D6C2D9D
:100B100002C08C2D6B2D05DFDE18D7FE02C0BA0C8B
:100B2000DF0CC3941C1580F71F910F91FF90EF907D
:100B3000DF90CF90BF90AF900895DF93CF93CDB764
:100B4000DEB760970FB6F894DEBF0FBECDBF30E1C1
:100B50003BB988E08AB929988CE084B983E0809316
:100B6000690021E02DBB80E880BF10927B001EBC95
:100B70008DB58E7F8DBD84E58CBDE0914301F0E0A5
:100B8000EE0FFF1FEA5CFE4F80819181909346013A
:100B90008093450110927E0080917C008064809358
:100BA0007C0080917A00866080937A0010927B00AE
:100BB0003093C1008091C10084608093C100209374
:100BC000C50087E38093C400789450DB07DC8091F4
:100BD000C00087FF77C00091C60090913E019F3F03
:100BE00021F4043209F06EC010C0043271F00532F5
:100BF00030F40A3051F10D3009F051C026C00A32EC
:100C000099F00C3209F04BC00AC0109236031092D2
:100C100037031092380310923E0113DB53C08091CA
:100C2000380380278093380354DD0BDB10923603A2
:100C300080913E018F5F80933E010A3209F042C0ED
:100C4000B8EC2B2E20923E013DC043DD8FEF809308
:100C50003E01809135038823A9F1A4E4B3E0EDE1DE
:100C6000F3E089E101900D928150E1F781E08093FA
:100C70005D03A1E6B3E0EEE5F3E083E001900D92C1
:100C80008150E1F7809164038823E1F4809154035B
:100C9000909155038A309105A8F0DBDA13C080915A
:100CA0003603E82FF0E0E75CFC4F0083983C29F026
:100CB000909138039027909338038A3018F48F5F0F
:100CC000809336034C990EC081E080931B03809182
:100CD0001C038B3078F05B9A80913503882351F0A8
:100CE000B8DA08C080911B0381115B9810921B0336
:100CF00010921C0380914401823009F052C010927E
:100D000044012091430100E010E0CC24DD24822F37
:100D100090E0AC01A5E0440F551FAA95E1F7480FFC
:100D2000591F495B5E4F81E2289F50011124F8E66C
:100D30004F2EF1E05F2EA40CB51C1A012AC0D7017A
:100D40008D917D018032A1F0882391F090E0E3E065
:100D5000880F991FEA95E1F78C0D9D1D80509140F9
:100D6000B1E0883D9B0720F480509040EDD501C054
:100D700080E0F30181933F01EA14FB0401F708943A
:100D8000C11CD11C0F5D1F4FF1E008301F0709F493
:100D90001ECF71017BEC672E71E0772E600E711E05
:100DA000CECF80914401813009F011CF10924401DF
:100DB00080911B03882329F080911C038F5F80930F
:100DC0001C0380916F03882309F040C280912B039C
:100DD000882311F05B9A04C08BB198E089278BB906
:100DE00080916403882309F4BDC1E0904403F0902E
:100DF00045030091460310914703A0906503B0900E
:100E00006603C0906703D0906803C601B5016E0DFC
:100E10007F1D801F911F97FF07C09095809570954B
:100E200061957F4F8F4F9F4F20E834E84EE150E0AF
:100E300025D5C901865A9F4F47D98983C801B70173
:100E40005FD91B012C01C601B5015AD93B014C01E8
:100E5000609148037091490380914A0390914B033C
:100E60004FD97B018C016091690370916A03809175
:100E70006B0390916C0344D99B01AC012E193F097F
:100E8000400B510B62187308840895082980622D65
:100E9000772767FD7095872F972F9DD424E630E044
:100EA00040E050E00DD519012A0162E0E62EF12C58
:100EB000012D112DCC24C3940FC0C201B101A80192
:100EC0009701FED419012A01C401B301A8019701B9
:100ED000F7D439014A01CC0CA201910157FE07C099
:100EE00022273327A90122193309440955092F3F25
:100EF0006FEF360760E0460760E05607F0F6D40172
:100F0000C30197FE07C088279927DC018619970936
:100F1000A809B9098F3FEFEF9E07E0E0AE07E0E0D8
:100F2000BE0758F6C9822F83388749875A878B872F
:100F30009C87AD87BE87C201B101A20191014BD44C
:100F40005B016C01C401B301A401930144D4E1E04D
:100F50000FC052E0D694C794B794A7945A95D1F78E
:100F600042E096958795779567954A95D1F7EE0F6C
:100F7000E92EFF24002711272D2D3327442755273D
:100F8000E20EF31E041F151F2FEFE216F1040105F8
:100F9000110509F0F0F6EA839B01AC012A0D3B1D17
:100FA0004C1D5D1D2B833C834D835E8359016A017B
:100FB000D694C794B794A794A114B104C104D104E2
:100FC00061F180E090E0988B8F8702C05701680143
:100FD0006B817C818D819E81A60195014FD4790121
:100FE0008A01EA0CFB1C0C1D1D1D16950795F79434
:100FF000E794AE18BF08C00AD10A32E0A316B104C4
:10100000C104D10470F04F8558894F5F5F4F588BF2
:101010004F874A315105D1F604C0EB80FC800D8129
:101020001E816A81262F30E040E050E0C801B70100
:10103000D2D36B017C01611571058105910509F41D
:101040006AC08F819885A985BA852B853C854D8599
:101050005E8582179307A407B507D8F0CA01B901C6
:1010600024E630E040E050E0B6D3A701960106D474
:10107000022F20E030E0590103C00894A11CB11CEC
:10108000C50122D808171CF13AE5A316B104A9F747
:101090001EC06F81788589859A8524E630E040E01E
:1010A00050E099D3A7019601E9D3A22E00E010E009
:1010B00002C00F5F1F4FC80107D8A8161CF00A35E1
:1010C0001105B9F72AE530E0201B310B01C095016D
:1010D000611471048104910429F457FC1FC08AE54E
:1010E00090E01EC016141704180419044CF457FCA1
:1010F00003C08AE590E00CC0C901825F9E4F10C01A
:1011000057FC04C0C901865A9F4F0AC08EE091E087
:10111000821B930B05C080E090E002C08EE091E05E
:101120009093750380937403C701B60125E331E002
:1011300040E050E050D328EE33E040E050E09ED352
:1011400079018A016981262F30E040E050E0C80132
:10115000B70141D36093700370937103809372035E
:1011600090937303F6E7EF2EF3E0FF2E8EE793E004
:1011700000E0EAE0AE2EB12CC12CD12C9C838B83F5
:1011800080917C00807F80937C0080917C00802B0C
:1011900080937C0080917A00806A80937A008091AD
:1011A0007A00806480937A0080917A0084FFFCCF7B
:1011B00080917A00806180937A0080917A008F75A7
:1011C00080937A006091780070917900D7016D93D7
:1011D0007D937D0180E090E026E331E040E050E047
:1011E000FAD2A60195014AD339014A017AE09694D0
:1011F0008794779467947A95D1F7862D90E0982F0D
:101200008827990F990FA0E0B0E019012A01281A48
:10121000390A4A0A5B0AC201B10124E630E040E023
:1012200050E0D9D22AE096958795779567952A95CB
:10123000D1F7AB81BC816C9311966C9211970F5FC3
:101240001296BC83AB83043009F09ACF80916F0370
:101250008F5F80936F0380916F03823338F0109219
:101260006F0380915E038F5F80935E0380915E03C6
:101270008C3338F010925E0380915F038F5F809310
:101280005F0380915F038C3338F010925F0380918D
:1012900060038F5F8093600380916003833610F05A
:1012A00010926003E3D7EE249DE5A92E91E0B92EBC
:1012B00080E3C82EEE2009F073C0809160038A306D
:1012C00020F4C092470161E001C060E0209160031A
:1012D00030E040E050E080E00AE011E0C2D8682F42
:1012E00080915F038A3030F4E62FF0E0E95BFE4F37
:1012F000C0826F5F20915F0330E040E050E080E00B
:101300000AE011E0AED8682F80915E038A3030F495
:10131000E62FF0E0E95BFE4FC0826F5F20915E0335
:1013200030E040E050E080E0BDD7682F6F5F80E0A4
:1013300040E0A4D8682F6F5F80E041E09FD8E82F9D
:10134000EF5F20917F03B4E62B9F900111248091E1
:101350007E03280F311DF1E0263D3F0798F4293721
:10136000310598F02857304004E6202E312C229D7C
:10137000C001239D900D329D900D1124B50157D2CF
:101380009B0105C024E630E002C020E030E030E000
:1013900040E050E080E06E2F09E211E062D888C0A2
:1013A0002E2D213031F52091700330917103409141
:1013B00072035091730381E060E00BE211E051D8B9
:1013C000682F6F5F209174033091750340E050E007
:1013D00081E00DE211E045D8682F6F5F80916403D2
:1013E000882319F04AE151E002C040E251E081E077
:1013F0005EC03E2D3230C9F4209144033091450344
:10140000409146035091470382E060E001E06CD8D0
:10141000209148033091490340914A0350914B0376
:1014200082E066E100E060D843C020914C03309137
:101430004D0380916D0390916E03281B390B442757
:1014400037FD4095542F83E060E00BE211E009D8AE
:10145000682F6F5F209154033091550340E050E0B6
:1014600083E001E311E0FDD7682F6F5F2091560301
:101470003091570340E050E083E00DE211E0F1D7F6
:10148000682F6F5F2091530330E040E050E083E02D
:1014900004E011E0E6D7682F6F5F80915203882344
:1014A00019F041E251E002C045E251E083E0B4D7D7
:1014B000E3944E2D443009F0FDCE90D7E0907403B4
:1014C000F09075038091560390915703E81AF90A3A
:1014D0008BE04BDA8091700390917103A0917203BD
:1014E000B09173038A309105A105B10518F482E02B
:1014F0003CDA6DCBC701865A9F4FE6D5082FC7014E
:10150000E3D5482F202F332727FD309513E0220FF6
:10151000331F1A95E1F7C90164E670E09CD18B0195
:10152000842F992787FD9095B3E0880F991FBA956E
:10153000E1F764E670E08FD15B01602FABE0CA2E6B
:10154000CA0C8BE0E82EE01A655F8A194C2D2E2D0F
:1015500090DAF2E06F2E712CC801B3017CD1709546
:1015600061957F4F462F455FC501B30174D17095DA
:1015700061957F4F262F255F8C2D6E2D7ADAC8015D
:10158000B30169D1462F455FC501B30164D1262F50
:10159000255F8C2D6E2D6DDA1ACB1F920F920FB630
:1015A0000F9211242F933F938F939F93AF93BF93E9
:1015B000EF93FF9388E28A95F1F74A99F4C08091FE
:1015C000400190914101009709F487C08091420148
:1015D000813021F0823009F080C051C0A0914301D8
:1015E00098E19A95F1F78091400190914101B0E026
:1015F000FD0125E0EE0FFF1F2A95E1F7EA0FFB1F23
:10160000E95BFE4FAA0FBB1FAA5CBE4F2D913C9118
:10161000821B930B96958795A1E28A9FD001112496
:10162000A553BE4F81E29191903221F0992311F0A0
:10163000219A01C021989D919EBD000000000000EC
:10164000000000000000000000000000000000009A
:10165000000000000000000000000000000000008A
:10166000815009F7000000000000000000000000A9
:1016700000000000000000001EBC21982EC08FE179
:1016800091E00197F1F700C00000E0914001F09176
:101690004101E659FD4F83E090819EBD219A0000F3
:1016A000000000000000000000000000000000003A
:1016B000000000000000000000000000000000002A
:1016C000000000000000000000000000815078963B
:1016D000882311F7219800001EBC109242018091CE
:1016E0004001909141010196909341018093400106
:1016F00080914001909141018436910521F481E06F
:10170000809344015BC02091400130914101809160
:101710004501909146012817390770F0209140014A
:1017200030914101809145019091460140962817E2
:10173000390710F481E034C020914001309141011B
:101740008091450190914601409628173907C9F4C8
:1017500082E0809344018091430190E00196837080
:10176000907080934301E0914301F0E0EE0FFF1F82
:10177000EA5CFE4F80819181909346018093450100
:101780001DC0809140019091410189369105B0F0D2
:1017900080914001909141018138910578F482E077
:1017A000809342010BC08091400190914101893C9E
:1017B000910520F01092410110924001FF91EF91AC
:1017C000BF91AF919F918F913F912F910F900FBE3D
:1017D0000F901F901895629FD001739FF001829F18
:1017E000E00DF11D649FE00DF11D929FF00D839FB0
:1017F000F00D749FF00D659FF00D9927729FB00D4D
:10180000E11DF91F639FB00DE11DF91FBD01CF015F
:101810001124089587FB082E062687FD819567FD14
:10182000619569D00EF4919507FC81950895AA1BE6
:10183000BB1B51E107C0AA1FBB1FA617B70710F0BB
:10184000A61BB70B881F991F5A95A9F780959095ED
:10185000BC01CD01089597FB092E07260AD077FD1C
:1018600004D0E5DF06D000201AF4709561957F4F13
:101870000895F6F7909581959F4F0895A1E21A2E4D
:10188000AA1BBB1BFD010DC0AA1FBB1FEE1FFF1F24
:10189000A217B307E407F50720F0A21BB30BE40B74
:1018A000F50B661F771F881F991F1A9469F76095BB
:1018B0007095809590959B01AC01BD01CF01089575
:1018C00097FB092E05260ED057FD04D0D7DF0AD08E
:1018D000001C38F450954095309521953F4F4F4F5F
:1018E0005F4F0895F6F790958095709561957F4FBD
:1018F0008F4F9F4F0895991B79E004C0991F961749
:1019000008F0961B881F7A95C9F780950895FB010A
:10191000DC014150504030F08D910190801919F454
:101920000020B9F7881B990B0895FB01DC01415099
:10193000504048F001900D920020C9F701C01D925F
:1019400041505040E0F70895F999FECF92BD81BD16
:0C195000F89A992780B50895F894FFCF0D
:10195C0056004E005300450057003A002E004750E9
:10196C00474741004750524D4300482D53455400C2
:10197C0000464958004241440025004D004445476B
:10198C00004B4D2F480033004C00F0000901FF00C4
:00000001FF
