:1000000047C01ECD60C05FC05EC05DC05CC05BC04D
:100010005AC059C058C057C056C055C054C053C02C
:1000200052C051C050C04FC04EC04DC04CC04BC05C
:100030004AC049C00002030507090A0C0E1011133B
:100040001516181A1C1D1F2122242527292A2C2D9C
:100050002F303234353638393B3C3E3F4042434402
:10006000454748494A4B4D4E4F50515253545556AF
:10007000575758595A5B5B5C5D5D5E5F5F606061BE
:1000800061616262626363636364646464646400A4
:1000900011241FBECFEFD4E0DEBFCDBF11E0A0E042
:1000A000B1E0ECE0FEE102C005900D92A03AB1078C
:1000B000D9F714E0A0EAB1E001C01D92AA33B1075C
:1000C000E1F714D7A1CE9CCF68E671E008DE843B4F
:1000D000910520F0845B90404FEF01C041E08A35EC
:1000E000910530F024EB30E0B901681B790BCB01AE
:1000F000FC01EC5CFF4F8491849F802D11240895B6
:100100002F923F924F925F926F927F928F929F9227
:10011000AF92BF92CF92DF92EF92FF920F931F9315
:10012000DF93CF9300D000D00F92CDB7DEB77B0125
:100130008C0197FF0BC010950095F094E094E11CA2
:10014000F11C011D111D8FEF898302C0E1E0E983DD
:10015000C801B70120E432E44FE050E009DEA22EEE
:10016000BB24CC24DD2480E1682E87E2782E812C0C
:10017000912CC801B701A4019301FADD6A837B8346
:100180008C839D83C601B5012CE330E040E050E054
:100190007ADD1B012C01C601B50120EC3DEB40EFDF
:1001A0005FEF71DD6E0D7F1D801F911FA401930114
:1001B000DFDD220E311C411C511C6A817B818C8148
:1001C0009D812CE330E040E050E05DDD5B016C019F
:1001D000C201B10120E737E140E050E054DD7B018E
:1001E0008C01C601B50124E630E040E050E09EDD20
:1001F000E20EF31E041F151FF981FF3F41F4109515
:100200000095F094E094E11CF11C011D111DC80142
:10021000B7010F900F900F900F900F90CF91DF913B
:100220001F910F91FF90EF90DF90CF90BF90AF9014
:100230009F908F907F906F905F904F903F902F9006
:1002400008952F923F924F925F926F927F928F927A
:100250009F92AF92BF92CF92DF92EF92FF920F9355
:100260001F93DF93CF93CDB7DEB768970FB6F8949F
:10027000DEBF0FBECDBF1B012C0129833A834B8308
:100280005C83AD82BE82CF82D886988A8F866E15B7
:100290007F058007910781F42A153B054C055D0514
:1002A00059F4D4011D921D921D921C921397EDA535
:1002B000FEA511821082A3C1C801B701620D731D92
:1002C000841D951D97FF07C0909580957095619549
:1002D0007F4F8F4F9F4F20E834E84EE150E026DDFE
:1002E000C901865A9F4FF0DE8987C201B10108DF3C
:1002F0005B016C01C801B70103DF3B014C0169815F
:100300007A818B819C81FCDE7B018C016D817E81F9
:100310008F819885F5DE9B01AC012E193F09400BBA
:10032000510B6A187B088C089D08F9856F2F772779
:1003300067FD7095872F972FA6DC24E630E040E01C
:1003400050E016DD19012A01A2E0EA2EF12C012D60
:10035000112DAA24A3940FC0C201B101A8019701D5
:1003600007DD19012A01C401B301A801970100DDCD
:1003700039014A01AA0CA201910157FE07C02227A8
:100380003327A90122193309440955092F3F6FEF7B
:10039000360760E0460760E05607F0F6D401C30177
:1003A00097FE07C088279927DC0186199709A809B5
:1003B000B9098F3FEFEF9E07E0E0AE07E0E0BE0730
:1003C00058F6A982298B3A8B4B8B5C8B8D8B9E8B3D
:1003D000AF8BB88FC201B101A201910154DC5B0166
:1003E0006C01C401B301A40193014DDCE1E00FC035
:1003F000F2E0D694C794B794A794FA95D1F752E057
:1004000096958795779567955A95D1F7EE0FE92ED2
:10041000FF24002711272D2D332744275527E20ECF
:10042000F31E041F151F2FEFE216F104010511053D
:1004300009F0F0F6ED839B01AC012A0D3B1D4C1D2C
:100440005D1D29873A874B875C8759016A01D694DD
:10045000C794B794A794A114B104C104D10451F175
:100460001E861D8602C05701680169857A858B85C5
:100470009C85A60195015ADC79018A01EA0CFB1CD6
:100480000C1D1D1D16950795F794E794AE18BF082F
:10049000C00AD10A32E0A316B104C104D10470F03D
:1004A0004D855E854F5F5F4F5E874D874A315105B1
:1004B000D1F604C0E984FA840B851C856D81262F52
:1004C00030E040E050E0C801B701DDDB5B016C01CA
:1004D0008DA59EA5009709F476C0A114B104C104AE
:1004E000D10409F467C029893A894B895C898D89CF
:1004F0009E89AF89B88D281739074A075B07C0F076
:10050000BC01CD0124E630E040E050E0BCDBA601B8
:1005100095010CDCE22E00E010E002C00F5F1F4FDF
:10052000C801D2DDE8161CF10A351105B9F71FC064
:1005300069897A898B899C8924E630E040E050E023
:10054000A2DBA6019501F2DB022FEE24FF2403C0FB
:100550000894E11CF11CC701B7DD081724F09AE5E7
:10056000E916F104A9F70AE510E00E191F09611454
:1005700071048104910429F457FC1FC08AE590E0BE
:100580001EC016141704180419044CF457FC03C0B9
:100590008AE590E00CC0C801825F9E4F10C057FCF6
:1005A00004C0C801865A9F4F0AC08EE091E0801BAC
:1005B000910B05C080E090E002C08EE091E0ADA517
:1005C000BEA58D939C93C601B50125E331E040E0C3
:1005D00050E059DB28EE33E040E050E0A7DB790142
:1005E0008A01B9812B2F30E040E050E0C801B7010B
:1005F0004ADBEF85F88960837183828393836896F1
:100600000FB6F894DEBF0FBECDBFCF91DF911F9123
:100610000F91FF90EF90DF90CF90BF90AF909F90A1
:100620008F907F906F905F904F903F902F900895A4
:10063000ECEDF3E0119283E0E73EF807D9F7089577
:100640004F925F926F927F928F929F92AF92BF92E2
:10065000CF92DF92EF92FF920F931F93DF93CF938E
:100660000F92CDB7DEB72C01C62E79018A0117FF94
:1006700007C022273327A9012E193F09400B510B30
:10068000DD24D3948AE0882E912CA12CB12C06C0B5
:10069000CA01B901A50194016BDBD3942A3031055D
:1006A00041055105ACF717FDD3948C2D90E09C01CA
:1006B0002D0D311D213231050CF055C0480E591E4B
:1006C00017FF0BC010950095F094E094E11CF11C0D
:1006D000011D111D6FEF698301C019825201BAE03B
:1006E0006B2E712C812C912CC801B701A4019301B0
:1006F0003FDB605DF50161935F018E2F8419790105
:100700008A01121613061406150674F3F981FF3FC9
:1007100049F4E82FFF27E7FDF095E40DF51D9DE274
:1007200090838F5FE82FFF27E7FDF095E40DF51D1F
:1007300010828150582F569540E0282F30E0842FAA
:1007400090E0D201A80FB91F6C91F901E81BF90BD9
:10075000E40DF51D80818C9360834F5F541778F70B
:100760008D2D8C0D01C081E20F90CF91DF911F91F3
:100770000F91FF90EF90DF90CF90BF90AF909F9040
:100780008F907F906F905F904F9008950F931F937D
:100790009C01062FFA01DA010D900020E9F711976C
:1007A0001A2F141B862F90E0810F911D8132910525
:1007B0000CF011E2412F50E0C901800F911DBF01E3
:1007C0000CDB812F800F1F910F9108950F931F93C2
:1007D000CF93DF93EC0134DF682FCE01A801D6DF81
:1007E000DF91CF911F910F9108950F931F93CF9396
:1007F000DF93EC01E42FF0E0EE0FFF1FE75DFB4F0E
:100800001081218130E040E050E0CE0119DFFE018F
:10081000E80FF11D9EE29083682F6F5F1A3030F46D
:10082000FE01E60FF11D80E380836F5F212F30E032
:1008300040E050E0CE0100E011E0C8DFDF91CF9151
:100840001F910F9108953F924F925F926F927F9206
:100850008F929F92AF92BF92CF92DF92EF92FF92D0
:100860000F931F93CF93DF93EC01162F69017A0149
:10087000211531054105510521F44AE051E086DF9B
:1008800055C0CA01B90120E432E44FE050E070DA0B
:10089000422E552466247724C301B20120EC3DEB9F
:1008A00040EF5FEFF0D96C0D7D1D8E1D9F1D20E187
:1008B000822E27E2922EA12CB12CA501940158DAA8
:1008C000322EC701B601A501940152DA4B015C0139
:1008D000002359F01C141D041E041F041CF482E0A4
:1008E00091E00DC084E091E00AC01C141D041E04B8
:1008F0001F041CF486E091E002C088E091E06C01E6
:10090000CE01612FA301920106E111E05FDF682FA4
:10091000232D30E040E050E0CE0108E111E056DF49
:10092000682FCE01A5019401860150DFDF91CF91A0
:100930001F910F91FF90EF90DF90CF90BF90AF90FD
:100940009F908F907F906F905F904F903F90089511
:10095000FF920F931F9301E08091DC038D3209F029
:1009600000E0102F20E030E0A901E12FF0E0E45298
:10097000FC4FF0808F2D80538A3028F5CA01B901D1
:100980002AE030E040E050E07ED92F2D30E02053C7
:100990003040442737FD4095542F260F371F481FFE
:1009A000591F1F5F1B3008F3002321F06FEF7FEF0B
:1009B000CB0104C061E070E080E090E064D91F9159
:1009C0000F91FF9008958F2D8E3259F3EDCFFF9246
:1009D0000F931F9301E08091DC038D3209F000E05A
:1009E000102F20E030E0A90114C0CA01B9012AE0AB
:1009F00030E040E050E047D92F2D30E02053304028
:100A0000442737FD4095542F260F371F481F591F85
:100A10001F5FE12FF0E0E452FC4FF0808F2D8053F8
:100A20008A3010F41B3008F3002321F06FEF7FEFC2
:100A3000CB0104C061E070E080E090E024D91F9118
:100A40000F91FF9008958091DA03882301F58CEDD2
:100A500093E06AE171E045E050E0B1D9009731F4EC
:100A600081E08093DA031092960108958CED93E073
:100A700060E271E045E050E0A2D9009709F00AC1B8
:100A800082E08093DA0384E6809396010895809152
:100A9000D903882309F4FEC0809196018536E9F1D7
:100AA0008636D8F4843009F469C0853048F4823041
:100AB000F1F1833008F045C0813009F0EBC02DC062
:100AC000863009F482C0863008F462C0873009F4A9
:100AD00080C0893009F0DEC080C08A3609F458C071
:100AE0008B3648F4883669F1893608F047C0873676
:100AF00009F0D0C01CC08C3609F488C08C3608F4CC
:100B000072C08D3609F488C0883C09F0C3C0ECED92
:100B1000F3E080E090E0DC01AFC059DF6093CA03EE
:100B20007093CB038093CC039093CD03089510DF93
:100B30006093C0037093C1038093C2039093C30377
:100B400008958091DC03833509F0A4C08091C0032F
:100B50009091C103A091C203B091C303B095A09539
:100B6000909581959F4FAF4FBF4F8093C003909357
:100B7000C103A093C203B093C3030895E9DE609359
:100B8000C4037093C5038093C6039093C70308956D
:100B90008091DC03873509F07DC08091C40390917A
:100BA000C503A091C603B091C703B095A0959095D9
:100BB00081959F4FAF4FBF4F8093C4039093C50360
:100BC000A093C603B093C703089501DF6093CE03DB
:100BD0000895FDDE6093CF030895F9DE7093C90395
:100BE0006093C8030895F3DE4FEC51E0649F9001D9
:100BF000659F300D749F300D1124C9016AEF70E0BC
:100C00006ED87093D1036093D0030895E0DE7093A3
:100C1000D3036093D2030895DADE6093D403709314
:100C2000D5038093D6039093D703089534E0880FBB
:100C3000991FAA1FBB1F3A95D1F7322F3154363076
:100C400020F430E0275330400FC0322F3156363079
:100C500020F430E02755304007C0322F30533A306F
:100C600058F430E020533040442737FD4095542F4E
:100C7000820F931FA41FB51F2191222321F033E07F
:100C8000E83EF30799F621E03091DB03381320E0CA
:100C90002093D8030895883108F56831F8F4482F77
:100CA00046954695469550E08095877021E030E066
:100CB00002C0220F331F8A95E2F7FA01EE0FFF1FE1
:100CC000E40FF51F43E0EE0FFF1F4A95E1F7E60F33
:100CD000F11DEA58FC4F8081822B80830895FF929A
:100CE0000F931F93DF93CF9300D000D00F92CDB717
:100CF000DEB7182F81E0982F911B99838A83812F6B
:100D00008195880F8B831C821D83EBE0FE2EF10EF4
:100D10008BE06F2DC0DF0BE0011B8BE0602FBBDF92
:100D20008F2D6BE0B8DF802F6BE0B5DF1BE04BC091
:100D3000898187FD0AC08D8181508D838B818E5F73
:100D40008B8399818B81890F89838C818F5F8C83C1
:100D50008A818E5F8A8399818A81890F89838C81B8
:100D60006D81655F855F97DF8C816D81655F912FF8
:100D7000981B892F90DF8C819D81612F691B855F76
:100D80008ADF8C819D81612F691B912F981B892F90
:100D900082DF8D816C81655F855F7DDF8D816C81F8
:100DA000655F912F981B892F76DF8D819C81612F44
:100DB000691B855F70DF8D819C81612F691B912F7D
:100DC000981B892F68DF9C818D8198170CF4B0CF18
:100DD0000F900F900F900F900F90CF91DF911F9178
:100DE0000F91FF900895AF92BF92CF92DF92EF9252
:100DF000FF920F931F93382F562F142FA22FB0E07E
:100E0000A61BB109B7FF03C0B095A195BF4FE12F55
:100E1000F0E0E31BF109F7FF03C0F095E195FF4F08
:100E200001E0EA17FB0714F000E006C0812F122F43
:100E3000282F832F352F582F131730F4852F522F3B
:100E4000282F832F312F182FF12EF31AE22FF0E0E5
:100E5000E51BF109F7FF03C0F095E195FF4FEE2E7A
:100E60008F2D62E02FD7D82EB52E521718F4AA2452
:100E7000A39402C0AA24AA94C32E0EC0002319F082
:100E80008B2D6C2D02C08C2D6B2D05DFDE18D7FE4F
:100E900002C0BA0CDF0CC3941C1580F71F910F9190
:100EA000FF90EF90DF90CF90BF90AF900895109299
:100EB000170410921604109209041092080410925C
:100EC0001504109214041092200410921F04089527
:100ED000EEDFAAE0B4E0E7EEF3E08AE001900D92E5
:100EE0008150E1F781E0809307040895DF93CF9369
:100EF000CDB7DEB728970FB6F894DEBF0FBECDBFD3
:100F000030E13BB988E08AB929988CE084B983E064
:100F10008093690021E02DBB80E880BF10927B00A8
:100F20001EBC8DB58E7F8DBD84E58CBDE091A30187
:100F3000F0E0EE0FFF1FEC57FE4F80819181909300
:100F4000A6018093A50110927E0080917C008064B0
:100F500080937C0080917A00866080937A00109262
:100F60007B003093C1008091C10084608093C100F8
:100F70002093C50087E38093C400789448EA242E28
:100F800041E0342E8091C00087FFE5C00091C6008B
:100F9000909196019F3F21F4043209F0DCC010C00B
:100FA000043271F0053230F40A3049F10D3009F0A5
:100FB000BFC025C00A3299F00C3209F0B9C00AC08E
:100FC0001092D9031092DA031092DB03109296016B
:100FD0002FDBC1C08091DB0380278093DB0333DDEF
:100FE00027DB1092D903809196018F5F8093960141
:100FF0000A3209F0B0C088EC80939601ACC023DDC2
:101000008FEF809396018091D803882309F4A3C0C1
:101010006091E7037091E8038091E9039091EA03FE
:101020002091EB033091EC034091ED035091EE03DE
:10103000E090C003F090C1030091C2031091C3037C
:10104000A090C403B090C503C090C603D090C7035E
:101050006E157F058007910729F42A153B054C057D
:101060005D05D1F000D0ADB7BEB712961C921E92AE
:1010700011974E010894811C911CE3D880911604AD
:101080009091170429813A81820F931F909317043E
:10109000809316040F900F90A7EEB3E0E0ECF3E01E
:1010A00089E101900D928150E1F781E08093000485
:1010B000A4E0B4E0E1E0F4E083E001900D9281501F
:1010C000E1F780910704882371F48091F503882368
:1010D00009F441C08091F7039091F8038A3091059B
:1010E000D0F1F6DE38C08091F7039091F80320919B
:1010F0000804309109042817390720F49093090453
:10110000809308048091EF039091F00320911204E2
:1011100030911304821B930B209114043091150419
:1011200028173907C4F4909315048093140413C04E
:101130008091D903E82FF0E0E452FC4F0083983C03
:1011400029F09091DB0390279093DB038A3018F409
:101150008F5F8093D9034C9912C081E08093BE03C6
:101160008091BF038B3098F05B9A8091D8038823DD
:1011700071F08091CE03882351F0AADE08C08091DF
:10118000BE0381115B981092BE031092BF03809141
:10119000A401823009F066C01092A4012091A3013D
:1011A000EE24FF24CC24DD24822F90E08C0135E056
:1011B000000F111F3A95E1F7080F191F08551E4F30
:1011C00081E2289F40011124E9ECF1E08E0E9F1E80
:1011D000C80187017C013EC0D5012D915D012032FF
:1011E00041F1222331F1822F90E0243678F08456A9
:1011F0009040B3E0880F991FBA95E1F78C0D9D1DC3
:1012000080319105A0F4805090400FC0A3E0880F7A
:10121000991FAA95E1F78C0D9D1D88509140B1E072
:10122000803D9B0730F4805F9F4FE6D503C08AEA7C
:1012300001C080E0F30181933F01A814B90461F675
:101240000894C11CD11C0F5D1F4FF1E008301F072F
:1012500009F498CE5701FEE66F2EF2E07F2E600E65
:10126000711EBACF8091A401813009F08BCE10920B
:10127000A4018091BE03882329F08091BF038F5F72
:101280008093BF0380911804882309F037C18091AF
:10129000CE03882311F05B9A04C08BB198E08927B4
:1012A0008BB980910704882309F447C000D060916E
:1012B000E7037091E8038091E9039091EA0320919C
:1012C000EB033091EC034091ED035091EE03E0907D
:1012D0000A04F0900B0400910C0410910D04A090EE
:1012E0000E04B0900F04C0901004D0901104EDE1F2
:1012F000F4E0ADB7BEB71296FC93EE931197E9E117
:101300008E2EE4E09E2E9DD78091190490911A04B0
:10131000A0911B04B0911C0420911F043091200463
:1013200040E050E00F900F90281739074A075B07FD
:1013300020F49093200480931F0481E2882E84E09F
:10134000982E07E9602E01E0702E1BE9412E11E076
:10135000512EB9E2CB2EB4E0DB2EAA248601809177
:101360007C00807F80937C0080917C008A29809320
:101370007C0080917A00806A80937A0080917A0064
:10138000806480937A0080917A0084FFFCCF809102
:101390007A00806180937A0080917A008F758093C3
:1013A0007A006091780070917900F40161937193F3
:1013B0004F0180E090E026E331E040E050E063D46C
:1013C0002AE030E040E050E0B1D469017A01D30175
:1013D0002D913D0130E040E050E0C701B60153D40B
:1013E000F20121912F0130E040E050E09FD46901EB
:1013F0007A01AAE0F694E794D794C794AA95D1F716
:10140000CD82DE82EF82F8868C2D90E0982F88279F
:10141000990F990FA0E0B0E069017A01C81AD90AC2
:10142000EA0AFB0AC701B60124E630E040E050E0DA
:101430002AD4EAE09695879577956795EA95D1F74E
:10144000D8016C93ED811196EC931197A3940E5FE4
:101450001F4FFA2DF43009F082CF81E090E0209107
:10146000F7033091F803293C310510F480E090E057
:1014700090933204809331048091EF039091F003B4
:101480002091120430911304821B930B21E030E071
:1014900043E18938940710F420E030E030933404BD
:1014A0002093330421E030E08091190490911A04D4
:1014B000A0911B04B0911C04813167E2960760E0A3
:1014C000A60760E0B60710F420E030E03093360461
:1014D0002093350490912A0484E6989FC00111243A
:1014E00020912904820F911D21E0A1E0843F9A07F9
:1014F00008F020E0209337041092380480911804FB
:101500008F5F8093180480911804823378F01092D2
:101510001804809101048F5F809301048091390445
:1015200090E001968170907080933904809101045D
:101530008C3338F010920104809102048F5F809305
:101540000204809102048C3338F0109202048091DE
:1015500003048F5F8093030480910304833610F0AB
:101560001092030459ECC52E51E0D52EEE24FF2431
:1015700044E6442E34E6832E912C2DE5622E21E0A4
:10158000722E90E3A92EB6C11192EC15FD05E1F77C
:101590008E2DEE2009F04DC088EA91E060E046E231
:1015A00051E0F4D888EA91E067E04DE251E0EED8EE
:1015B00088EA91E06EE044E351E0E8D880910304CA
:1015C0008A3020F4F101A08E69E101C068E1209128
:1015D000030430E040E050E088EA91E006E111E0E9
:1015E000F5D8682F809102048A3030F4E62FF0E0BD
:1015F000E855FE4FA0826F5F2091020430E040E08A
:1016000050E088EA91E006E111E0E0D8682F80918F
:1016100001048A3030F4E62FF0E0E855FE4FA08256
:101620006F5F2091010430E040E050E088EA91E0F3
:10163000A7C0813009F04DC089EC91E060E249E338
:1016400051E0A4D880913704882321F08091390497
:10165000882329F089EC91E060E040E0C6D88091D1
:101660003804882321F080913904882329F089ECFB
:1016700091E067E041E0B9D820912E04F42D2F9F2E
:101680009001112480912D04280F311D41E0263D49
:10169000340778F42937310578F028573040289DF1
:1016A000C001299D900D389D900D1124B30117D3D1
:1016B00005C064E670E002C060E070E0262F30E014
:1016C00040E050E089EC91E06EE00AE311E07ED862
:1016D00001C18230E9F48091F7039091F8038A30D8
:1016E000910508F0F7C080910704882331F08AEE55
:1016F00091E067E04CE351E0ECC08091390488232D
:1017000009F4E8C08AEE91E065E04FE451E0E1C001
:10171000833009F053C08091F7039091F8038A3029
:10172000910508F0D7C080910704882359F12091D2
:101730001F043091200440E050E08BE092E067E02D
:101740007FD7209108043091090440E050E08BE0FD
:1017500092E06CE075D7209116043091170440E0B8
:1017600050E08BE092E060E16BD72091140430915F
:101770001504442737FD4095542F8BE092E066E135
:101780005FD7A8C02091E7033091E8034091E903B7
:101790005091EA038BE092E064E001E054D8682FB6
:1017A0006E5F2091EB033091EC034091ED0350917B
:1017B000EE038BE092E000E046D88CC0843009F064
:1017C00065C08091310490913204009721F080919E
:1017D0003904882351F02091F7033091F80340E059
:1017E00050E08CE292E060E02BD7809107048823E0
:1017F00039F48CE292E064E045E651E0C7D716C0C8
:101800008091350490913604009721F0809139043D
:10181000882361F02091190430911A0440911B042F
:1018200050911C048CE292E064E00AD78091F503A9
:10183000882351F02091F60330E040E050E08CE244
:1018400092E067E1FDD606C08CE292E067E145E6F2
:1018500051E09CD78091330490913404009721F09B
:10186000809139048823B1F12091EF033091F00386
:101870008091120490911304281B390B442737FDE3
:101880004095542F8CE292E06CE17ACF8DE492E0A7
:1018900060E047E651E07AD7682F6F5F8DE492E011
:1018A0004BE651E073D790910704992339F0682FE4
:1018B0006F5F8DE492E042E751E068D78DE492E0FB
:1018C00067E148E751E062D78DE492E06CE14CE7D4
:1018D00051E05CD70894E11CF11C81E290E0C80E55
:1018E000D91E96E0E916F10429F42EE833E080E0F1
:1018F00090E016C0F70185E0EE0FFF1F8A95E1F733
:10190000EE0DFF1DE855FE4F3FCE1192E217F30793
:10191000E1F701969F01285E3F4F8330910569F002
:10192000FC01EE0FFF1FE80FF91F13E0EE0FFF1F82
:101930001A95E1F7EA58FC4FE8CF00911D04109189
:101940001E048091F9039091FA03081B190B8BE098
:10195000C6D98091190490911A04A0911B04B091EA
:101960001C048A309105A105B10518F482E0B7D9AD
:1019700009CB8091F7039091F8038A30910520F00C
:101980008091CE03882351F485E065E041E121E1B7
:101990002ADA85E061E141E125E050C0C801865ABC
:1019A0009F4F92D3E82EC8018FD3E82F4E2D552795
:1019B00047FD5095B3E0440F551FBA95E1F724E673
:1019C00030E0CA01B9019FD14B018E2F992787FDC5
:1019D0009095A3E0880F991FAA95E1F7B90193D1DB
:1019E0005B01682DFBE0CF2ECA0C8BE0E82EE818D7
:1019F000655F8A194C2D2E2DF6D902E010E0C40146
:101A0000B80181D1709561957F4F462F455FC50123
:101A1000B80179D1709561957F4F262F255F8C2D68
:101A20006E2DE1D9C401B8016ED1462F455FC501C5
:101A3000B80169D1262F255F8C2D6E2DD4D9A2CA6D
:101A40001F920F920FB60F9211242F933F934F9333
:101A50005F936F937F938F939F93AF93BF93EF9316
:101A6000FF9388E28A95F1F78091A0019091A101FE
:101A70004A99F1C0009709F47EC08091A20181309B
:101A800021F0823009F077C049C09091A301E8E1CC
:101A9000EA95F1F7292F30E0F901A5E0EE0FFF1FDD
:101AA000AA95E1F7E20FF31FE855FE4FA091A701B9
:101AB00081E2A89FD0011124A259BD4F989FC00177
:101AC000112487539E4F2191203221F0222311F0BF
:101AD000219A01C021982D912EBD00000000000028
:101AE00000000000000000000000000000000000F6
:101AF000000000000000000000000000E817F907E7
:101B000011F70000000000000000000000000000CD
:101B10000000000000001EBC21982DC083E191E070
:101B20000197F1F700C00000E091A701F0E0EA584A
:101B3000FC4F80E090819EBD219A000000000000D3
:101B40000000000000000000000000000000000095
:101B50000000000000000000000000000000000085
:101B600000000000000000008F5F7896833011F7BE
:101B7000219800001EBC1092A2018091A0019091BA
:101B8000A10101969093A1018093A0018E36910549
:101B900011F421E004C08F36910519F422E020935E
:101BA000A4012091A5013091A60182179307A0F00E
:101BB00040918101509182018417950768F441E0BA
:101BC0004093A201821B8093A701909183019230E0
:101BD00009F048C0869531C0209181013091820181
:101BE0008217930769F582E08093A4018091A30195
:101BF00090E0019666E070E086D08093A301FC013E
:101C0000EE0FFF1FEC57FE4F208131813093A6016C
:101C10002093A50180579E4FFC0180818093830112
:101C200090E063E0880F991F6A95E1F7820F931F98
:101C3000909382018093810181E08093A70112C07B
:101C40009C01295630402831310560F422E0209370
:101C5000A2018956F2CF893C910520F01092A10192
:101C60001092A001FF91EF91BF91AF919F918F9141
:101C70007F916F915F914F913F912F910F900FBE88
:101C80000F901F901895629FD001739FF001829F63
:101C9000E00DF11D649FE00DF11D929FF00D839FFB
:101CA000F00D749FF00D659FF00D9927729FB00D98
:101CB000E11DF91F639FB00DE11DF91FBD01CF01AB
:101CC0001124089587FB082E062687FD819567FD60
:101CD000619569D00EF4919507FC81950895AA1B32
:101CE000BB1B51E107C0AA1FBB1FA617B70710F007
:101CF000A61BB70B881F991F5A95A9F78095909539
:101D0000BC01CD01089597FB092E07260AD077FD67
:101D100004D0E5DF06D000201AF4709561957F4F5E
:101D20000895F6F7909581959F4F0895A1E21A2E98
:101D3000AA1BBB1BFD010DC0AA1FBB1FEE1FFF1F6F
:101D4000A217B307E407F50720F0A21BB30BE40BBF
:101D5000F50B661F771F881F991F1A9469F7609506
:101D60007095809590959B01AC01BD01CF010895C0
:101D700097FB092E05260ED057FD04D0D7DF0AD0D9
:101D8000001C38F450954095309521953F4F4F4FAA
:101D90005F4F0895F6F790958095709561957F4F08
:101DA0008F4F9F4F0895991B79E004C0991F961794
:101DB00008F0961B881F7A95C9F780950895FB0156
:101DC000DC014150504030F08D910190801919F4A0
:101DD0000020B9F7881B990B0895FB01DC014150E5
:101DE000504048F001900D920020C9F701C01D92AB
:101DF00041505040E0F70895F999FECF92BD81BD62
:0C1E0000F89A992780B50895F894FFCF58
:101E0C0056004E005300450057002D2D3A2D2D2E17
:101E1C002D2D2D2D3F003A002E00475047474100F5
:101E2C004750524D430042415454312000424154DA
:101E3C005432200052535349000025004C4F53207C
:101E4C002053504420545249502020414C540041BE
:101E5C004351554952494E4720484F4D4520504F0C
:101E6C00532E2E2E002D00535044004C4F53202047
:101E7C002000482D5345540053415400414C5420EC
:101E8C000002000232004200AA00C800FF00180144
:101E9C00010201010201FF01010101010101010027
:00000001FF
