:1000000047C089C960C05FC05EC05DC05CC05BC0E6
:100010005AC059C058C057C056C055C054C053C02C
:1000200052C051C050C04FC04EC04DC04CC04BC05C
:100030004AC049C00002030507090A0C0E1011133B
:100040001516181A1C1D1F2122242527292A2C2D9C
:100050002F303234353638393B3C3E3F4042434402
:10006000454748494A4B4D4E4F50515253545556AF
:10007000575758595A5B5B5C5D5D5E5F5F606061BE
:1000800061616262626363636364646464646400A4
:1000900011241FBECFEFD4E0DEBFCDBF11E0A0E042
:1000A000B1E0E6ECF6E102C005900D92A833B1078D
:1000B000D9F713E0A8E3B1E001C01D92A83AB10757
:1000C000E1F7C2D3FECA9CCF68E671E065DA843BF3
:1000D000910520F0845B90404FEF01C041E08A35EC
:1000E000910530F024EB30E0B901681B790BCB01AE
:1000F000FC01EC5CFF4F8491849F802D11240895B6
:100100002F923F924F925F926F927F928F929F9227
:10011000AF92BF92CF92DF92EF92FF920F931F9315
:10012000DF93CF9300D000D00F92CDB7DEB77B0125
:100130008C0197FF0BC010950095F094E094E11CA2
:10014000F11C011D111D8FEF898302C0E1E0E983DD
:10015000C801B70120E432E44FE050E066DAA22E95
:10016000BB24CC24DD2480E1682E87E2782E812C0C
:10017000912CC801B701A401930157DA6A837B83EC
:100180008C839D83C601B5012CE330E040E050E054
:10019000D7D91B012C01C601B50120EC3DEB40EF86
:1001A0005FEFCED96E0D7F1D801F911FA4019301BB
:1001B0003CDA220E311C411C511C6A817B818C81EE
:1001C0009D812CE330E040E050E0BAD95B016C0146
:1001D000C201B10120E737E140E050E0B1D97B0135
:1001E0008C01C601B50124E630E040E050E0FBD9C7
:1001F000E20EF31E041F151FF981FF3F41F4109515
:100200000095F094E094E11CF11C011D111DC80142
:10021000B7010F900F900F900F900F90CF91DF913B
:100220001F910F91FF90EF90DF90CF90BF90AF9014
:100230009F908F907F906F905F904F903F902F9006
:100240000895EDE8F3E0119283E0E839F807D9F773
:1002500008952FE531E080E090E00BC01192E217A5
:10026000F307E1F701969F012F5D3F4F8430910521
:1002700059F0FC0145E0EE0FFF1F4A95E1F7E80F4A
:10028000F91FE25CFE4FEACF08952F923F924F9202
:100290005F926F927F928F929F92BF92CF92DF92E6
:1002A000EF92FF920F931F93CF93DF93C82EB62E3A
:1002B00079018A01DD24D3946AE0662E712C812CA9
:1002C000912C06C0CA01B901A4019301AED9D394FF
:1002D0002A30310541055105ACF78B2D90E09C018A
:1002E0002D0D311D213231050CF057C021E23C2D7E
:1002F000329FE0011124C80FD91FC25CDE4F17FFE7
:100300000BC010950095F094E094E11CF11C011DC8
:10031000111DCC24CA9401C0CC244E013E015AE0E8
:10032000252E312C412C512CC801B701A20191017D
:100330007CD9605DD3016D933D018A2F8C1B7901BF
:100340008A01121613061406150674F3FC2DFF3FDE
:1003500049F4E82FFF27E7FDF095EC0FFD1F9DE224
:1003600090838F5FE82FFF27E7FDF095EC0FFD1FCF
:1003700010828150E82FF0E03196EC0FFD1F90E0E5
:1003800007C0D4012C9132913D934D0120839F5F92
:100390009817B8F38D2D8B0D01C081E2DF91CF91BD
:1003A0001F910F91FF90EF90DF90CF90BF909F90A3
:1003B0008F907F906F905F904F903F902F90089517
:1003C0002AEE32E080E090E00BC01192E217F307D2
:1003D000E1F701969F01205E3F4F8430910549F07F
:1003E000FC0175E0EE0FFF1F7A95E1F7E653FD4F34
:1003F000ECCF08950F931F93062FFA01DA010D90A9
:100400000020E9F711971A2F141B462F50E0410FD7
:10041000511D413251050CF011E221E2829F900101
:100420001124200F311D412F50E0C901825C9E4FE5
:10043000BF0130D9812F800F1F910F910895FF9236
:100440000F931F93F82E21DF682F8F2DA801D2DF85
:100450001F910F91FF9008950F931F93182FE42F72
:10046000F0E0EE0FFF1FE156FC4F0081218130E0EC
:1004700040E050E00ADF212F30E0F901A5E0EE0F67
:10048000FF1FAA95E1F7E20FF31FDF01A80FB11DCF
:10049000A25CBE4F9EE29C93682F6F5F0A3038F4D7
:1004A000E60FF11DE25CFE4F80E380836F5F202F3B
:1004B00030E040E050E0812F00E011E0C0DF1F910C
:1004C0000F910895FF920F931F9301E080918D0388
:1004D0008D3209F000E0102F20E030E0A901E12F7B
:1004E000F0E0E357FC4FF0808F2D80538A3028F5E1
:1004F000CA01B9012AE030E040E050E021D82F2DB8
:1005000030E020533040442737FD4095542F260FCC
:10051000371F481F591F1F5F1B3008F3002321F0AE
:100520006FEF7FEFCB0104C061E070E080E090E00E
:1005300007D81F910F91FF9008958F2D8E3259F398
:10054000EDCFFF920F931F9301E080918D038D32C9
:1005500009F000E0102F20E030E0A90114C0CA012A
:10056000B9012AE030E040E050E0EAD72F2D30E03A
:1005700020533040442737FD4095542F260F371F16
:10058000481F591F1F5FE12FF0E0E357FC4FF08039
:100590008F2D80538A3010F41B3008F3002321F094
:1005A0006FEF7FEFCB0104C061E070E080E090E08E
:1005B000C7D71F910F91FF90089580914D03882315
:1005C00001F58DE893E062E071E045E050E054D839
:1005D000009731F481E080934D0310923601089525
:1005E0008DE893E068E071E045E050E045D8009781
:1005F00009F00AC182E080934D0384E680933601BE
:10060000089580914C03882309F4FEC0809136013F
:100610008536E9F18636D8F4843009F469C085302E
:1006200048F48230F1F1833008F045C0813009F0A0
:10063000EBC02DC0863009F482C0863008F462C059
:10064000873009F480C0893009F0DEC080C08A3666
:1006500009F458C08B3648F4883669F1893608F0B9
:1006600047C0873609F0D0C01CC08C3609F488C05A
:100670008C3608F472C08D3609F488C0883C09F0C5
:10068000C3C0EDE8F3E080E090E0DC01AFC059DFEB
:100690006093590370935A0380935B0390935C03B8
:1006A000089510DF60934F037093500380935103BC
:1006B00090935203089580918D03833509F0A4C06F
:1006C00080914F0390915003A0915103B091520338
:1006D000B095A095909581959F4FAF4FBF4F809358
:1006E0004F0390935003A0935103B0935203089586
:1006F000E9DE609353037093540380935503909302
:100700005603089580918D03873509F07DC080914F
:10071000530390915403A0915503B0915603B095A3
:10072000A095909581959F4FAF4FBF4F80935303F6
:1007300090935403A0935503B0935603089501DF9B
:1007400060935D030895FDDE60935E030895F9DE16
:1007500070935803609357030895F3DE4FEC51E014
:10076000649F9001659F300D749F300D1124C90165
:100770006AEF70E011D77093600360935F03089590
:10078000E0DE70936203609361030895DADE6093A4
:1007900063037093640380936503909366030895E5
:1007A00034E0880F991FAA1FBB1F3A95D1F7322F4B
:1007B0003154363020F430E0275330400FC0322F10
:1007C0003156363020F430E02755304007C0322F04
:1007D00030533A3058F430E020533040442737FD4E
:1007E0004095542F820F931FA41FB51F21912223E0
:1007F00021F033E0E939F30799F621E030914E0317
:10080000381320E02093670308958032E0F46032CB
:10081000D0F4E82FE695E695E695F0E080958770B0
:1008200021E030E002C0220F331F8A95E2F745E055
:10083000EE0FFF1F4A95E1F7E60FF11DE653FD4F5E
:100840008081822B80830895DF93CF93CDB7DEB76D
:1008500064970FB6F894DEBF0FBECDBF20E12BB971
:1008600088E08AB929988CE084B983E08093690094
:1008700091E09DBB80E880BF10927B001EBC8DB5CF
:100880008E7F8DBD84E58CBDE0913B01F0E0EE0FE5
:10089000FF1FE25DFE4F808180933D0110927E003C
:1008A00080917C00816480937C0080917A00866ACC
:1008B00080937A0010927B002093C1008091C10048
:1008C00084608093C1009093C50087E38093C40047
:1008D0007894BFDC75DD8091C00087FF72C01091F5
:1008E000C600909136019F3F21F4143209F069C08F
:1008F00010C0143271F0153230F41A3051F11D303D
:1009000009F04CC026C01A3299F01C3209F046C0DA
:100910000AC010924C0310924D0310924E03109295
:1009200036018FDC4EC080914E03812780934E03A9
:1009300044DE87DC10924C03809136018F5F8093F8
:1009400036011A3209F03DC078EC272E209236018C
:1009500038C033DE8FEF80933601809167038823A0
:1009600081F180916803882361F4A9E6B3E0EFE4A4
:10097000F3E08AE001900D928150E1F781E08093ED
:100980006803A3E7B3E0EFE4F3E089E101900D929F
:100990008150E1F781E080938C0313C080914C0378
:1009A000E82FF0E0E357FC4F1083983C29F090913A
:1009B0004E03912790934E038A3018F48F5F8093F3
:1009C0004C034C9909C081E080934A0380914B030A
:1009D0008B3050F05B9A08C080914A0381115B987C
:1009E00010924A0310924B0380913C01823009F02F
:1009F00053C010923C0140913B0120E030E0AA241A
:100A0000BB24842F90E08C0165E0000F111F6A95D4
:100A1000E1F7080F191F025C1E4F81E2489F300169
:100A200011245FE5452E51E0552E640C751C7801AC
:100A300089012AC0D1018D911D018032A1F0882346
:100A400091F090E043E0880F991F4A95E1F78A0DF5
:100A50009B1D80509140B1E0883D9B0720F4805061
:100A6000904027D601C080E0F60181936F012614E3
:100A7000370401F70894A11CB11C0F5D1F4FF1E072
:100A800008301F0709F427CF170132ECC32E31E0DD
:100A9000D32EC00ED11ECECF80913C01813009F003
:100AA0001ACF10923C0180914A03882329F080914B
:100AB0004B038F5F80934B0380919803882309F049
:100AC00029C280915D03882311F05B9A04C08BB129
:100AD00098E089278BB980916803882309F4BCC109
:100AE0006091730370917403809175039091760304
:100AF0002AE030E040E050E023D57B018C0160919A
:100B0000690370916A0380916B0390916C0318D50F
:100B10005B016C016E0D7F1D801F911F97FF07C049
:100B200090958095709561957F4F8F4F9F4F20E8EE
:100B300034E84EE150E057D5C901865A9F4FC4DAD8
:100B40008E83C801B701DCDA1B012C01C601B50197
:100B5000D7DA3B014C016091770370917803809163
:100B6000790390917A032AE030E040E050E0E8D445
:100B7000C7DA7B018C0160916D0370916E038091E7
:100B80006F03909170032AE030E040E050E0D8D449
:100B9000B7DA9B01AC012E193F09400B510B6218CB
:100BA0007308840895082E80622D772767FD70955D
:100BB000872F972FC5D424E630E040E050E035D5AC
:100BC00059016A0122E0E22EF12C012D112D22247F
:100BD00023940FC0C601B501A801970126D559017C
:100BE0006A01C401B301A80197011FD539014A0167
:100BF000220CA6019501D7FE07C022273327A901A1
:100C00002A193B094C095D092F3F6FEF360760E059
:100C1000460760E05607F0F6D401C30197FE07C00F
:100C200088279927DC0186199709A809B9098F3FF8
:100C3000EFEF9E07E0E0AE07E0E0BE0758F62A8639
:100C40002D873E874F87588B898B9A8BAB8BBC8BBC
:100C5000C401B301A401930173D46E837F83888799
:100C60009987C601B501A60195016AD42E803F80FF
:100C700048845984260E371E481E591E2E823F82F4
:100C80004886598656944794379427942114310402
:100C90004104510451F11C861B8602C01701280132
:100CA0006E817F8188859985A20191019CD479010B
:100CB0008A01E20CF31C041D151D16950795F79487
:100CC000E7942E183F08400A510A22E02216310408
:100CD0004104510470F04B855C854F5F5F4F5C872A
:100CE0004B874A315105D1F604C0EE80FF8008855C
:100CF00019856A85262F30E040E050E0C801B70131
:100D00001FD47B018C016093990370939A038093A5
:100D10009B0390939C0310929E0310929D031616C2
:100D20001706180619060CF07DC08D859E85AF85C7
:100D3000B88929883A884B885C8882159305A40570
:100D4000B505E0F0C201B10124E630E040E050E03A
:100D5000F7D3A801970147D4F22E00E010E002C0BB
:100D60000F5F1F4FC801B0D9F8161CF00A351105E6
:100D7000B8F310939E0300939D0321C06D857E857B
:100D80008F85988924E630E040E050E0D9D3A8016F
:100D9000970129D4F22E00E010E002C00F5F1F4F30
:100DA000C80192D9F8161CF00A351105B8F38AE586
:100DB00090E0801B910B90939E0380939D036114A0
:100DC00071048104910461F4D7FC03C08AE590E0CA
:100DD00002C08EE091E090939E0380939D0322C019
:100DE000161417041804190464F480919D0390915B
:100DF0009E03D7FC03C02AE530E00EC0825F9E4F01
:100E0000EACF80919D0390919E03D7FC03C0865A40
:100E10009F4FE1CF2EE031E0281B390B30939E032A
:100E200020939D036091990370919A0380919B0395
:100E300090919C0325E331E040E050E081D328EE1F
:100E400033E040E050E0F1D32093990330939A03CC
:100E500040939B0350939C030FE913E0FF24BAE0F7
:100E6000AB2EB12CC12CD12C80917C00807F809343
:100E70007C0080917C00F3948F2980937C0080918A
:100E80007A00806480937A0080917A0084FFFCCF9E
:100E900080917A00806180937A00609178007091EF
:100EA000790080E090E026E331E040E050E048D374
:100EB000A601950198D339014A01AAE09694879436
:100EC00077946794AA95D1F7862D90E0982F88277C
:100ED000990F990FA0E0B0E019012A01281A390AE8
:100EE0004A0A5B0AC201B10124E630E040E050E06A
:100EF00027D3EAE09695879577956795EA95D1F798
:100F0000D8016C9311966C920E5F1F4FBF2DB330BA
:100F100009F0AACF809198038F5F80939803809106
:100F20009803823338F0109298038091A5038F5F65
:100F30008093A5038091A5038C3338F01092A5030C
:100F40008091A6038F5F8093A6038091A6038C33C4
:100F500038F01092A6038091A7038F5F8093A703B8
:100F60008091A703833610F01092A70372D9FF2453
:100F70006DE5A62E61E0B62E50E3E52EFF2009F0C8
:100F800071C08091A7038A3020F4E0923E0161E0B5
:100F900001C060E02091A70330E040E050E080E035
:100FA0000DE111E04CDA682F8091A6038A3030F40D
:100FB000E62FF0E0E25CFE4FE0826F5F2091A60337
:100FC00030E040E050E080E00DE111E038DA682FD9
:100FD0008091A5038A3030F4E62FF0E0E25CFE4F0A
:100FE000E0826F5F2091A50330E040E050E080E0B8
:100FF0004CD9682F6F5F80E040E02EDA682F6F5F7A
:1010000080E041E029DAE82FEF5F2091A003F4E6C9
:101010002F9F9001112480919F03280F311D41E0E3
:10102000263D340790F42937310590F02857304099
:10103000A4E6B0E02A9FC0012B9F900D3A9F900D2F
:101040001124B501A9D29B0105C024E630E002C0FD
:1010500020E030E030E040E050E080E06E2F0FE133
:1010600011E07DC0BF2DB13021F580916803882348
:1010700019F04EE051E002C044E151E081E060E04F
:10108000B9D9682F6F5F2091990330919A034091ED
:101090009B0350919C0381E001E211E0D0D9682FBD
:1010A0006F5F20919D0330919E0340E050E081E00E
:1010B00054C0EF2DE230B9F420914F03309150032A
:1010C000409151035091520382E060E0DED82091BC
:1010D000530330915403409155035091560382E0DD
:1010E00069E1D3D83DC020915E0330E040E050E09C
:1010F00083E060E007E211E0A2D9682F6F5F809182
:101100006703882319F045E151E002C049E151E04D
:1011100083E070D9682F6F5F209157033091580397
:10112000442737FD4095542F83E001E211E087D931
:10113000682F6F5F20915F033091600340E050E0C3
:1011400083E009E211E07BD9682F6F5F2091610392
:101150003091620340E050E083E003E211E06FD998
:10116000F394FF2DF43009F009CF2AD982EF898357
:1011700081E08A8382EE8B831C828FE08D836EE117
:1011800044DB8FE060E041DB8EE16FE03EDB80E03E
:101190006FE03BDB1FE04BC0898187FD0AC08D817A
:1011A00081508D838B818E5F8B8399818B81890F99
:1011B00089838C818F5F8C838A818E5F8A839981FA
:1011C0008A81890F89838C816D81615F815F1DDBDD
:1011D0008C816D81615F212E281A822D16DB8C8116
:1011E0009D81612F691B815F10DB8C819D81612F47
:1011F000691B312E381A832D08DB8D816C81615F6C
:10120000815F03DB8D816C81615F412E481A842DE3
:10121000FCDA8D819C81612F691B815FF6DA8D81FB
:101220009C81612F691B512E581A852DEEDA9C8105
:101230008D8198170CF4B0CFE0908503F090860371
:1012400080919D0390919E03E81AF90AC701865A7E
:101250009F4F3AD7082F112707FD1095C70134D7A4
:10126000992787FD90952AE030E0B901A9D1E62FB2
:10127000E15FC801B901A4D11FE0161B412F50E066
:101280004F50504057FF03C0509541955F4F2E2F50
:1012900030E02F50304037FF03C0309521953F4F4D
:1012A000FF24F3942417350724F0FF24812F1E2FE9
:1012B000E82F1F3028F04E2F012FEFE01FE002C073
:1012C0004FE00FE0E02EE11A242F30E02E1B310911
:1012D00037FF03C0309521953F4FD22E8E2D62E00F
:1012E0004ED1A82E6E2EE41718F42224239402C0A7
:1012F00022242A94FF2019F0862D612F02C0812F0D
:10130000662D83DAAD18A7FE02C0620CAE0C1F5F1B
:10131000011780F7E0CA1F920F920FB60F921124A7
:101320002F933F938F939F93AF93BF93EF93FF932D
:1013300088E28A95F1F74A99EBC080913801909143
:101340003901009709F484C080913A01813021F07D
:10135000823009F07DC051C0A0913B0188E18A959F
:10136000F1F78091380190913901B0E0FD0125E05D
:10137000EE0FFF1F2A95E1F7EA0FFB1FE25CFE4F1D
:10138000AA0FBB1FA25DBE4F2D913C91821B930BF8
:1013900096958795A1E28A9FD0011124AE53BE4F46
:1013A00081E29191903221F0992311F0219A01C0AC
:1013B00021989D919EBD00000000000000000000EB
:1013C000000000000000000000000000000000001D
:1013D000000000000000000000000000815009F73C
:1013E00000000000000000000000000000000000FD
:1013F000000000001EBC21982BC080ED8A95F1F7FB
:10140000E0913801F0913901ED5BFD4F84E090816E
:101410009EBD219A000000000000000000000000B6
:1014200000000000000000000000000000000000BC
:1014300000000000000000000000000000000000AC
:1014400000008150B096882311F7219800001EBC3F
:1014500010923A0180913801909139010196909350
:1014600039018093380180913801909139018130A0
:10147000910521F481E080933C0155C02091380111
:101480003091390180913D0190E02817390768F0CB
:10149000209138013091390180913D0190E04096D2
:1014A0002817390710F481E030C0209138013091BD
:1014B000390180913D0190E0409628173907B1F439
:1014C00082E080933C0180913B0190E00196837023
:1014D000907080933B01E0913B01F0E0EE0FFF1F25
:1014E000E25DFE4F808180933D011DC080913801F7
:1014F0009091390187389105B0F080913801909131
:101500003901873A910578F482E080933A010BC063
:101510008091380190913901893C910520F0109219
:10152000390110923801FF91EF91BF91AF919F91D6
:101530008F913F912F910F900FBE0F901F90189594
:10154000629FD001739FF001829FE00DF11D649FA7
:10155000E00DF11D929FF00D839FF00D749FF00D33
:10156000659FF00D9927729FB00DE11DF91F639FD4
:10157000B00DE11DF91FBD01CF011124089587FBB6
:10158000082E062687FD819567FD619569D00EF4CA
:10159000919507FC81950895AA1BBB1B51E107C0DB
:1015A000AA1FBB1FA617B70710F0A61BB70B881FF3
:1015B000991F5A95A9F780959095BC01CD01089582
:1015C00097FB092E07260AD077FD04D0E5DF06D069
:1015D00000201AF4709561957F4F0895F6F7909565
:1015E00081959F4F0895A1E21A2EAA1BBB1BFD01F6
:1015F0000DC0AA1FBB1FEE1FFF1FA217B307E407F2
:10160000F50720F0A21BB30BE40BF50B661F771F49
:10161000881F991F1A9469F7609570958095909529
:101620009B01AC01BD01CF01089597FB092E052652
:101630000ED057FD04D0D7DF0AD0001C38F45095E7
:101640004095309521953F4F4F4F5F4F0895F6F7E6
:1016500090958095709561957F4F8F4F9F4F08951E
:10166000991B79E004C0991F961708F0961B881FF4
:101670007A95C9F780950895FB01DC0141505040EF
:1016800030F08D910190801919F40020B9F7881B72
:10169000990B0895FB01DC014150504048F0019046
:1016A0000D920020C9F701C01D9241505040E0F753
:1016B0000895F999FECF92BD81BDF89A992780B51A
:0616C0000895F894FFCF2D
:1016C60056004750474741004750524D4300482D6A
:1016D600534554000046495800424144003A00250B
:1016E600004D004445470053004B4D2F4800320043
:0816F6004D00E600FE00FF00BC
:00000001FF
